{
  "_format": "hh-sol-artifact-1",
  "contractName": "ERC20ServiceMock",
  "sourceName": "contracts/token/ERC20/ERC20ServiceMock.sol",
  "abi": [
    {
      "anonymous": false,
      "inputs": [
        {
          "indexed": true,
          "internalType": "address",
          "name": "tokenAddress",
          "type": "address"
        },
        {
          "indexed": false,
          "internalType": "uint256",
          "name": "amount",
          "type": "uint256"
        }
      ],
      "name": "ERC20Deposited",
      "type": "event"
    },
    {
      "anonymous": false,
      "inputs": [
        {
          "indexed": false,
          "internalType": "address",
          "name": "tokenAddress",
          "type": "address"
        }
      ],
      "name": "ERC20TokenRemoved",
      "type": "event"
    },
    {
      "anonymous": false,
      "inputs": [
        {
          "indexed": true,
          "internalType": "address",
          "name": "tokenAddress",
          "type": "address"
        }
      ],
      "name": "ERC20TokenTracked",
      "type": "event"
    },
    {
      "anonymous": false,
      "inputs": [
        {
          "indexed": true,
          "internalType": "address",
          "name": "previousOwner",
          "type": "address"
        },
        {
          "indexed": true,
          "internalType": "address",
          "name": "newOwner",
          "type": "address"
        }
      ],
      "name": "OwnershipTransferred",
      "type": "event"
    },
    {
      "inputs": [
        {
          "internalType": "address",
          "name": "token",
          "type": "address"
        },
        {
          "internalType": "address",
          "name": "spender",
          "type": "address"
        },
        {
          "internalType": "uint256",
          "name": "amount",
          "type": "uint256"
        }
      ],
      "name": "approveERC20",
      "outputs": [
        {
          "internalType": "bool",
          "name": "",
          "type": "bool"
        }
      ],
      "stateMutability": "nonpayable",
      "type": "function"
    },
    {
      "inputs": [
        {
          "internalType": "address",
          "name": "token",
          "type": "address"
        }
      ],
      "name": "balanceOfERC20",
      "outputs": [
        {
          "internalType": "uint256",
          "name": "",
          "type": "uint256"
        }
      ],
      "stateMutability": "view",
      "type": "function"
    },
    {
      "inputs": [
        {
          "internalType": "address",
          "name": "token",
          "type": "address"
        },
        {
          "internalType": "uint256",
          "name": "amount",
          "type": "uint256"
        }
      ],
      "name": "depositERC20",
      "outputs": [],
      "stateMutability": "nonpayable",
      "type": "function"
    },
    {
      "inputs": [],
      "name": "getAllTrackedERC20Tokens",
      "outputs": [
        {
          "internalType": "address[]",
          "name": "",
          "type": "address[]"
        }
      ],
      "stateMutability": "view",
      "type": "function"
    },
    {
      "inputs": [
        {
          "internalType": "address",
          "name": "token",
          "type": "address"
        }
      ],
      "name": "registerERC20",
      "outputs": [],
      "stateMutability": "nonpayable",
      "type": "function"
    },
    {
      "inputs": [
        {
          "internalType": "address",
          "name": "token",
          "type": "address"
        }
      ],
      "name": "removeERC20",
      "outputs": [],
      "stateMutability": "nonpayable",
      "type": "function"
    },
    {
      "inputs": [
        {
          "internalType": "address",
          "name": "token",
          "type": "address"
        },
        {
          "internalType": "address",
          "name": "to",
          "type": "address"
        },
        {
          "internalType": "uint256",
          "name": "amount",
          "type": "uint256"
        }
      ],
      "name": "transferERC20",
      "outputs": [
        {
          "internalType": "bool",
          "name": "",
          "type": "bool"
        }
      ],
      "stateMutability": "nonpayable",
      "type": "function"
    },
    {
      "inputs": [
        {
          "internalType": "address",
          "name": "token",
          "type": "address"
        },
        {
          "internalType": "address",
          "name": "from",
          "type": "address"
        },
        {
          "internalType": "address",
          "name": "to",
          "type": "address"
        },
        {
          "internalType": "uint256",
          "name": "amount",
          "type": "uint256"
        }
      ],
      "name": "transferERC20From",
      "outputs": [
        {
          "internalType": "bool",
          "name": "",
          "type": "bool"
        }
      ],
      "stateMutability": "nonpayable",
      "type": "function"
    }
  ],
  "bytecode": "0x608060405234801561001057600080fd5b50610d17806100206000396000f3fe608060405234801561001057600080fd5b50600436106100785760003560e01c806307940ee71461007d5780632137b20f146100a55780633bb810c0146100ba57806397feb926146100cf5780639db5dbe4146100e2578063a67755c2146100f5578063a8e5e4aa14610108578063d93db24f1461011b575b600080fd5b61009061008b366004610a08565b61013c565b60405190151581526020015b60405180910390f35b6100ad6101c6565b60405161009c9190610a53565b6100cd6100c8366004610aa0565b6101d5565b005b6100cd6100dd366004610ac2565b6101ea565b6100906100f0366004610aec565b6102c2565b6100cd610103366004610aa0565b610348565b610090610116366004610aec565b61035a565b61012e610129366004610aa0565b610395565b60405190815260200161009c565b600061014a8585858561040b565b6040516323b872dd60e01b81526001600160a01b038616906323b872dd9061017a90879087908790600401610b28565b6020604051808303816000875af1158015610199573d6000803e3d6000fd5b505050506040513d601f19601f820116820180604052508101906101bd9190610b4c565b95945050505050565b60606101d0610456565b905090565b6101de816104c1565b6101e7816104fa565b50565b6101f48282610543565b6101fe82826105b8565b6040516323b872dd60e01b81526001600160a01b038316906323b872dd9061022e90339030908690600401610b28565b6020604051808303816000875af115801561024d573d6000803e3d6000fd5b505050506040513d601f19601f820116820180604052508101906102719190610b4c565b61027a57600080fd5b816001600160a01b03167fab79632de7fe1724598ce2214eaa326d90d48064d2d3397406ecc5769316a5f6826040516102b591815260200190565b60405180910390a25b5050565b60006102cf8484846105d1565b60405163a9059cbb60e01b81526001600160a01b0385169063a9059cbb906102fd9086908690600401610b6e565b6020604051808303816000875af115801561031c573d6000803e3d6000fd5b505050506040513d601f19601f820116820180604052508101906103409190610b4c565b949350505050565b61035181610611565b6101e78161064a565b60006103678484846105d1565b60405163095ea7b360e01b81526001600160a01b0385169063095ea7b3906102fd9086908690600401610b6e565b6040516370a0823160e01b81526000906001600160a01b038316906370a08231906103c4903090600401610b87565b602060405180830381865afa1580156103e1573d6000803e3d6000fd5b505050506040513d601f19601f820116820180604052508101906104059190610b9b565b92915050565b610413610696565b546001600160a01b031633146104445760405162461bcd60e51b815260040161043b90610bb4565b60405180910390fd5b610450848484846106ba565b50505050565b60606104606106ea565b6001018054806020026020016040519081016040528092919081815260200182805480156104b757602002820191906000526020600020905b81546001600160a01b03168152600190910190602001808311610499575b5050505050905090565b6104c9610696565b546001600160a01b031633146104f15760405162461bcd60e51b815260040161043b90610bb4565b6101e78161070e565b61050c816105066106ea565b9061079f565b6040516001600160a01b038216907ffc0df4c937d034a35e004d3be20b22b3fa469059b9048555932f16f0b219ca4d90600090a250565b6001600160a01b0382166105695760405162461bcd60e51b815260040161043b90610beb565b600081116102be5760405162461bcd60e51b815260206004820152601c60248201527b4552433230536572766963653a20616d6f756e74206973207a65726f60201b604482015260640161043b565b6105c1826107fa565b6000036102be576102be826104fa565b6105d9610696565b546001600160a01b031633146106015760405162461bcd60e51b815260040161043b90610bb4565b61060c838383610823565b505050565b610619610696565b546001600160a01b031633146106415760405162461bcd60e51b815260040161043b90610bb4565b6101e78161084c565b61065c816106566106ea565b9061089b565b7f90387a30bef2980f7747512c8766fbb69ddb92b45d201abf34eb8915299f8d6a8160405161068b9190610b87565b60405180910390a150565b7f8a22373512790c48b83a1fe2efdd2888d4a917bcdc24d0adf63e60f67168046090565b8360006106c6826107fa565b116106e35760405162461bcd60e51b815260040161043b90610c39565b5050505050565b7ffcac9c4df6614b71838bf4d9c5317076838004b2a6c8cccf90e0375f6f4dafc290565b6001600160a01b0381166107345760405162461bcd60e51b815260040161043b90610beb565b61073d816107fa565b156101e75760405162461bcd60e51b815260206004820152602c60248201527f4552433230536572766963653a20455243323020746f6b656e20697320616c7260448201526b1958591e481d1c9858dad95960a21b606482015260840161043b565b600180830154906000906107b4908390610c86565b6001808601805491820181556000908152602080822090920180546001600160a01b039097166001600160a01b0319909716871790559485529490945250506040902055565b60006108046106ea565b6001600160a01b03909216600090815260209290925250604090205490565b82600061082f826107fa565b116104505760405162461bcd60e51b815260040161043b90610c39565b806000610858826107fa565b116108755760405162461bcd60e51b815260040161043b90610c39565b6001600160a01b0382166102be5760405162461bcd60e51b815260040161043b90610beb565b6001600160a01b038116600090815260208390526040812054906108c0600183610c9e565b90506001848101546108d29190610c9e565b8114610998576001808501805490916108ea91610c9e565b815481106108fa576108fa610cb5565b6000918252602090912001546001850180546001600160a01b03909216918390811061092857610928610cb5565b9060005260206000200160006101000a8154816001600160a01b0302191690836001600160a01b031602179055508184600001600086600101848154811061097257610972610cb5565b60009182526020808320909101546001600160a01b031683528201929092526040019020555b836001018054806109ab576109ab610ccb565b60008281526020808220830160001990810180546001600160a01b03191690559092019092556001600160a01b039490941681529390925250506040812055565b80356001600160a01b0381168114610a0357600080fd5b919050565b60008060008060808587031215610a1e57600080fd5b610a27856109ec565b9350610a35602086016109ec565b9250610a43604086016109ec565b9396929550929360600135925050565b6020808252825182820181905260009190848201906040850190845b81811015610a945783516001600160a01b031683529284019291840191600101610a6f565b50909695505050505050565b600060208284031215610ab257600080fd5b610abb826109ec565b9392505050565b60008060408385031215610ad557600080fd5b610ade836109ec565b946020939093013593505050565b600080600060608486031215610b0157600080fd5b610b0a846109ec565b9250610b18602085016109ec565b9150604084013590509250925092565b6001600160a01b039384168152919092166020820152604081019190915260600190565b600060208284031215610b5e57600080fd5b81518015158114610abb57600080fd5b6001600160a01b03929092168252602082015260400190565b6001600160a01b0391909116815260200190565b600060208284031215610bad57600080fd5b5051919050565b6020808252601d908201527f4f776e61626c653a2073656e646572206d757374206265206f776e6572000000604082015260600190565b6020808252602e908201527f4552433230536572766963653a20746f6b656e4164647265737320697320746860408201526d65207a65726f206164647265737360901b606082015260800190565b6020808252601f908201527f4552433230536572766963653a20746f6b656e206e6f7420747261636b656400604082015260600190565b634e487b7160e01b600052601160045260246000fd5b60008219821115610c9957610c99610c70565b500190565b600082821015610cb057610cb0610c70565b500390565b634e487b7160e01b600052603260045260246000fd5b634e487b7160e01b600052603160045260246000fdfea26469706673582212209586cd21f93f966c54a243378446f4bf38c4b0f36d7329ff027c10a3869b204a64736f6c634300080e0033",
  "linkReferences": {},
  "deployedLinkReferences": {}
}