{
  "_format": "hh-sol-artifact-1",
  "contractName": "CountersFacet",
  "sourceName": "contracts/utils/counters/CountersFacet.sol",
  "abi": [
    {
      "anonymous": false,
      "inputs": [
        {
          "indexed": true,
          "internalType": "uint256",
          "name": "index",
          "type": "uint256"
        },
        {
          "indexed": false,
          "internalType": "uint256",
          "name": "newValue",
          "type": "uint256"
        }
      ],
      "name": "Decremented",
      "type": "event"
    },
    {
      "anonymous": false,
      "inputs": [
        {
          "indexed": true,
          "internalType": "uint256",
          "name": "index",
          "type": "uint256"
        },
        {
          "indexed": false,
          "internalType": "uint256",
          "name": "newValue",
          "type": "uint256"
        }
      ],
      "name": "Incremented",
      "type": "event"
    },
    {
      "anonymous": false,
      "inputs": [
        {
          "indexed": true,
          "internalType": "address",
          "name": "previousOwner",
          "type": "address"
        },
        {
          "indexed": true,
          "internalType": "address",
          "name": "newOwner",
          "type": "address"
        }
      ],
      "name": "OwnershipTransferred",
      "type": "event"
    },
    {
      "anonymous": false,
      "inputs": [
        {
          "indexed": true,
          "internalType": "uint256",
          "name": "index",
          "type": "uint256"
        },
        {
          "indexed": false,
          "internalType": "uint256",
          "name": "newValue",
          "type": "uint256"
        }
      ],
      "name": "Reset",
      "type": "event"
    },
    {
      "inputs": [],
      "name": "countersFacetVersion",
      "outputs": [
        {
          "internalType": "string",
          "name": "",
          "type": "string"
        }
      ],
      "stateMutability": "pure",
      "type": "function"
    },
    {
      "inputs": [
        {
          "internalType": "uint256",
          "name": "index",
          "type": "uint256"
        }
      ],
      "name": "current",
      "outputs": [
        {
          "internalType": "uint256",
          "name": "",
          "type": "uint256"
        }
      ],
      "stateMutability": "nonpayable",
      "type": "function"
    },
    {
      "inputs": [
        {
          "internalType": "uint256",
          "name": "index",
          "type": "uint256"
        }
      ],
      "name": "decrement",
      "outputs": [],
      "stateMutability": "nonpayable",
      "type": "function"
    },
    {
      "inputs": [
        {
          "internalType": "uint256",
          "name": "index",
          "type": "uint256"
        }
      ],
      "name": "increment",
      "outputs": [],
      "stateMutability": "nonpayable",
      "type": "function"
    },
    {
      "inputs": [
        {
          "internalType": "uint256",
          "name": "index",
          "type": "uint256"
        }
      ],
      "name": "reset",
      "outputs": [],
      "stateMutability": "nonpayable",
      "type": "function"
    }
  ],
  "bytecode": "0x608060405234801561001057600080fd5b506105bd806100206000396000f3fe608060405234801561001057600080fd5b50600436106100575760003560e01c8063310bd74b1461005c5780633a9ebefd146100715780637cf5dab014610084578063ac03aa1c14610097578063d62fd243146100bd575b600080fd5b61006f61006a366004610485565b6100ea565b005b61006f61007f366004610485565b610108565b61006f610092366004610485565b61011a565b6100aa6100a5366004610485565b61012c565b6040519081526020015b60405180910390f35b604080518082018252600b81526a302e312e302e616c70686160a81b602082015290516100b4919061049e565b6100f38161013d565b6100fc8161017f565b610105816101d9565b50565b6101118161013d565b6101058161023d565b6101238161027a565b610105816102b3565b6000610137826102ec565b92915050565b610145610307565b546001600160a01b031633146101765760405162461bcd60e51b815260040161016d906104f3565b60405180910390fd5b6101058161032b565b61019a8161018b6103a6565b60009182526020526040812055565b807f5ae2e83411b15aef3c1609c37f90fc7c912666cfac3ba72a9ba900a39c5bfaa36101c5836102ec565b60405190815260200160405180910390a250565b6101e16103a6565b60008281526020919091526040902054156101055760405162461bcd60e51b815260206004820152601c60248201527b10dbdd5b9d195c9cce8810d3d55395115494d7d393d517d49154d15560221b604482015260640161016d565b61024f816102496103a6565b906103ca565b807f847bc9dfeccb5e1f46d639d8427a2dffec2db7148a5d315341194d6a7aafe4e56101c5836102ec565b610282610307565b546001600160a01b031633146102aa5760405162461bcd60e51b815260040161016d906104f3565b6101058161043d565b6102c5816102bf6103a6565b9061045d565b807f230c08f549f5f9e591e87490c6c26b3715ba3bdbe74477c4ec927b160763f7676101c5835b60006102f66103a6565b600092835260205250604090205490565b7f8a22373512790c48b83a1fe2efdd2888d4a917bcdc24d0adf63e60f67168046090565b806000811161034c5760405162461bcd60e51b815260040161016d9061052a565b6000610357826102ec565b116103a25760405162461bcd60e51b815260206004820152601b60248201527a10dbdd5b9d195c9cce8810d3d55395115497d393d517d193d55391602a1b604482015260640161016d565b5050565b7f7501651f7c1a1425b363e321895d17d818852dcf57a994e54489b51ae6d4d09690565b600081815260208390526040902054806104245760405162461bcd60e51b815260206004820152601b60248201527a436f756e7465723a2064656372656d656e74206f766572666c6f7760281b604482015260640161016d565b6000918252602092909252604090206000199091019055565b600081116101055760405162461bcd60e51b815260040161016d9061052a565b600081815260208390526040812080546001929061047c908490610561565b90915550505050565b60006020828403121561049757600080fd5b5035919050565b600060208083528351808285015260005b818110156104cb578581018301518582016040015282016104af565b818111156104dd576000604083870101525b50601f01601f1916929092016040019392505050565b6020808252601d908201527f4f776e61626c653a2073656e646572206d757374206265206f776e6572000000604082015260600190565b6020808252601d908201527f436f756e746572733a20494e4445585f4f55545f4f465f424f554e4453000000604082015260600190565b6000821982111561058257634e487b7160e01b600052601160045260246000fd5b50019056fea2646970667358221220139be571c99ee173bf7f0836e5f00dab362ea969f73143f2e9a476a34b19a71a64736f6c634300080e0033",
  "linkReferences": {},
  "deployedLinkReferences": {}
}