{
  "_format": "hh-sol-artifact-1",
  "contractName": "ZkWalletBaseMock",
  "sourceName": "contracts/diamond/zkWallet/base/ZkWalletBaseMock.sol",
  "abi": [
    {
      "inputs": [
        {
          "internalType": "address",
          "name": "owner_",
          "type": "address"
        },
        {
          "components": [
            {
              "internalType": "string",
              "name": "name",
              "type": "string"
            },
            {
              "internalType": "address",
              "name": "facetAddress",
              "type": "address"
            },
            {
              "internalType": "string",
              "name": "version",
              "type": "string"
            }
          ],
          "internalType": "struct WalletFactoryStorage.Facet[]",
          "name": "facets_",
          "type": "tuple[]"
        },
        {
          "components": [
            {
              "internalType": "uint8",
              "name": "merkleTreeDepth",
              "type": "uint8"
            },
            {
              "internalType": "address",
              "name": "contractAddress",
              "type": "address"
            }
          ],
          "internalType": "struct IWalletFactoryInternal.VerifierDTO[]",
          "name": "_verifiers",
          "type": "tuple[]"
        }
      ],
      "stateMutability": "nonpayable",
      "type": "constructor"
    },
    {
      "anonymous": false,
      "inputs": [
        {
          "components": [
            {
              "internalType": "address",
              "name": "target",
              "type": "address"
            },
            {
              "internalType": "enum IDiamondWritable.FacetCutAction",
              "name": "action",
              "type": "uint8"
            },
            {
              "internalType": "bytes4[]",
              "name": "selectors",
              "type": "bytes4[]"
            }
          ],
          "indexed": false,
          "internalType": "struct IDiamondWritable.FacetCut[]",
          "name": "facetCuts",
          "type": "tuple[]"
        },
        {
          "indexed": false,
          "internalType": "address",
          "name": "target",
          "type": "address"
        },
        {
          "indexed": false,
          "internalType": "bytes",
          "name": "data",
          "type": "bytes"
        }
      ],
      "name": "DiamondCut",
      "type": "event"
    },
    {
      "anonymous": false,
      "inputs": [
        {
          "indexed": true,
          "internalType": "address",
          "name": "previousOwner",
          "type": "address"
        },
        {
          "indexed": true,
          "internalType": "address",
          "name": "newOwner",
          "type": "address"
        }
      ],
      "name": "OwnershipTransferred",
      "type": "event"
    },
    {
      "stateMutability": "payable",
      "type": "fallback"
    },
    {
      "inputs": [],
      "name": "acceptOwnership",
      "outputs": [],
      "stateMutability": "nonpayable",
      "type": "function"
    },
    {
      "inputs": [
        {
          "components": [
            {
              "internalType": "address",
              "name": "target",
              "type": "address"
            },
            {
              "internalType": "enum IDiamondWritable.FacetCutAction",
              "name": "action",
              "type": "uint8"
            },
            {
              "internalType": "bytes4[]",
              "name": "selectors",
              "type": "bytes4[]"
            }
          ],
          "internalType": "struct IDiamondWritable.FacetCut[]",
          "name": "facetCuts",
          "type": "tuple[]"
        },
        {
          "internalType": "address",
          "name": "target",
          "type": "address"
        },
        {
          "internalType": "bytes",
          "name": "data",
          "type": "bytes"
        }
      ],
      "name": "diamondCut",
      "outputs": [],
      "stateMutability": "nonpayable",
      "type": "function"
    },
    {
      "inputs": [
        {
          "internalType": "bytes4",
          "name": "selector",
          "type": "bytes4"
        }
      ],
      "name": "facetAddress",
      "outputs": [
        {
          "internalType": "address",
          "name": "facet",
          "type": "address"
        }
      ],
      "stateMutability": "view",
      "type": "function"
    },
    {
      "inputs": [],
      "name": "facetAddresses",
      "outputs": [
        {
          "internalType": "address[]",
          "name": "addresses",
          "type": "address[]"
        }
      ],
      "stateMutability": "view",
      "type": "function"
    },
    {
      "inputs": [
        {
          "internalType": "address",
          "name": "facet",
          "type": "address"
        }
      ],
      "name": "facetFunctionSelectors",
      "outputs": [
        {
          "internalType": "bytes4[]",
          "name": "selectors",
          "type": "bytes4[]"
        }
      ],
      "stateMutability": "view",
      "type": "function"
    },
    {
      "inputs": [],
      "name": "facets",
      "outputs": [
        {
          "components": [
            {
              "internalType": "address",
              "name": "target",
              "type": "address"
            },
            {
              "internalType": "bytes4[]",
              "name": "selectors",
              "type": "bytes4[]"
            }
          ],
          "internalType": "struct IDiamondReadable.Facet[]",
          "name": "diamondFacets",
          "type": "tuple[]"
        }
      ],
      "stateMutability": "view",
      "type": "function"
    },
    {
      "inputs": [],
      "name": "getFallbackAddress",
      "outputs": [
        {
          "internalType": "address",
          "name": "",
          "type": "address"
        }
      ],
      "stateMutability": "view",
      "type": "function"
    },
    {
      "inputs": [],
      "name": "nomineeOwner",
      "outputs": [
        {
          "internalType": "address",
          "name": "",
          "type": "address"
        }
      ],
      "stateMutability": "view",
      "type": "function"
    },
    {
      "inputs": [],
      "name": "owner",
      "outputs": [
        {
          "internalType": "address",
          "name": "",
          "type": "address"
        }
      ],
      "stateMutability": "view",
      "type": "function"
    },
    {
      "inputs": [
        {
          "internalType": "address",
          "name": "fallbackAddress",
          "type": "address"
        }
      ],
      "name": "setFallbackAddress",
      "outputs": [],
      "stateMutability": "nonpayable",
      "type": "function"
    },
    {
      "inputs": [
        {
          "internalType": "bytes4",
          "name": "interfaceId",
          "type": "bytes4"
        }
      ],
      "name": "supportsInterface",
      "outputs": [
        {
          "internalType": "bool",
          "name": "",
          "type": "bool"
        }
      ],
      "stateMutability": "view",
      "type": "function"
    },
    {
      "inputs": [
        {
          "internalType": "address",
          "name": "account",
          "type": "address"
        }
      ],
      "name": "transferOwnership",
      "outputs": [],
      "stateMutability": "nonpayable",
      "type": "function"
    },
    {
      "inputs": [],
      "name": "version",
      "outputs": [
        {
          "internalType": "string",
          "name": "",
          "type": "string"
        }
      ],
      "stateMutability": "pure",
      "type": "function"
    },
    {
      "stateMutability": "payable",
      "type": "receive"
    }
  ],
  "bytecode": "0x60806040523480156200001157600080fd5b506040516200366b3803806200366b833981016040819052620000349162001355565b6001600160a01b038316620000a35760405162461bcd60e51b815260206004820152602a60248201527f5a6b57616c6c65744469616d6f6e643a206f776e657220697320746865207a65604482015269726f206164647265737360b01b60648201526084015b60405180910390fd5b620000ae83620000c2565b620000b981620000d0565b505050620016e5565b620000cd8162000191565b50565b60005b81518160ff1610156200018d57818160ff1681518110620000f857620000f8620014bf565b60200260200101516020015162000119620005fd60201b62000d201760201c565b6000016000848460ff1681518110620001365762000136620014bf565b60200260200101516000015160ff16815260200190815260200160002060006101000a8154816001600160a01b0302191690836001600160a01b0316021790555080806200018490620014d5565b915050620000d3565b5050565b6000620001a86200062160201b62000d441760201c565b60408051600c8082526101a08201909252919250600091906020820161018080368337019050509050631f931c1c60e01b81600081518110620001ef57620001ef620014bf565b6001600160e01b0319909216602092830291909101820152620002299083906307e4c70760e21b9060019062000d6862000645821b17901c565b637a0ed62760e01b81600181518110620002475762000247620014bf565b6001600160e01b03199092166020928302919091019091015280516356fe50af60e11b9082906002908110620002815762000281620014bf565b6001600160e01b03199092166020928302919091019091015280516314bbdacb60e21b9082906003908110620002bb57620002bb620014bf565b6001600160e01b03199092166020928302919091019091015280516366ffd66360e11b9082906004908110620002f557620002f5620014bf565b6001600160e01b03199092166020928302919091018201526200032f9083906348e2b09360e01b9060019062000d6862000645821b17901c565b6301ffc9a760e01b816005815181106200034d576200034d620014bf565b6001600160e01b0319909216602092830291909101820152620003879083906301ffc9a760e01b9060019062000d6862000645821b17901c565b638da5cb5b60e01b81600681518110620003a557620003a5620014bf565b6001600160e01b031990921660209283029190910190910152805163455a8a8560e11b9082906007908110620003df57620003df620014bf565b6001600160e01b031990921660209283029190910190910152805163f2fde38b60e01b9082906008908110620004195762000419620014bf565b6001600160e01b03199092166020928302919091019091015280516379ba509760e01b9082906009908110620004535762000453620014bf565b6001600160e01b03199092166020928302919091018201526200048d9083906307f5828d60e41b9060019062000d6862000645821b17901c565b632c40805960e01b81600a81518110620004ab57620004ab620014bf565b6001600160e01b0319909216602092830291909101909101528051639142376560e01b908290600b908110620004e557620004e5620014bf565b6001600160e01b03199290921660209283029190910190910152604080516001808252818301909252600091816020015b6040805160608082018352600080835260208301529181019190915281526020019060019003908162000516579050506040805160608101909152308152909150602081016000815260200183815250816000815181106200057c576200057c620014bf565b6020026020010181905250620005c981600060405180602001604052806000815250620005b3620006cf60201b62000def1760201c565b620006f360201b62000e0117909392919060201c565b620005f784620005e36200091f60201b62000fdd1760201c565b6200094360201b620010011790919060201c565b50505050565b7f1fd5ae9b688ff1e92cea024147bd3c60ba20584ed7225a597f53b9dde63d587e90565b7f326d0c59a7612f6a9919e2a8ee333c80ba689d8ba2634de89c85cbb04832e70590565b6001600160e01b03198083169003620006a15760405162461bcd60e51b815260206004820152601c60248201527f4552433136353a20696e76616c696420696e746572666163652069640000000060448201526064016200009a565b6001600160e01b03199190911660009081526020929092526040909120805460ff1916911515919091179055565b7f177481ac65e4292921c69f62d1cc7f57541261e5d61c8175cf4e36a01c9bfc9390565b600184015461ffff811690819060009060071615620007245750600381901c60009081526002870160205260409020545b60005b86518110156200088d576000878281518110620007485762000748620014bf565b60200260200101519050600081602001519050600082604001515111620007be5760405162461bcd60e51b815260206004820152602360248201527f4469616d6f6e64426173653a206e6f2073656c6563746f7273207370656369666044820152621a595960ea1b60648201526084016200009a565b6000816002811115620007d557620007d562001503565b036200080457620007f98585848d6200096060201b6200101e17909392919060201c565b909550935062000882565b60018160028111156200081b576200081b62001503565b0362000841576200083b828b62000b3260201b620011d11790919060201c565b62000882565b600281600281111562000858576200085862001503565b0362000882576200087c8585848d62000d1b60201b6200139417909392919060201c565b90955093505b505060010162000727565b50828214620008aa5760018701805461ffff191661ffff84161790555b6007821615620008cd57600382901c600090815260028801602052604090208190555b7f8faa70878671ccd212d20771b795c50af8fd3ff6cf27f4bde57e5d4de0aeb673868686604051620009029392919062001547565b60405180910390a162000916858562000f91565b50505050505050565b7f8a22373512790c48b83a1fe2efdd2888d4a917bcdc24d0adf63e60f67168046090565b81546001600160a01b0319166001600160a01b0391909116179055565b805160009081906001600160a01b03163014806200099c57506200099c83600001516001600160a01b03166200111c60201b620003c71760201c565b620009f65760405162461bcd60e51b815260206004820152602360248201527f4469616d6f6e64426173653a204144442074617267657420686173206e6f20636044820152626f646560e81b60648201526084016200009a565b60005b83604001515181101562000b255760008460400151828151811062000a225762000a22620014bf565b6020908102919091018101516001600160e01b031981166000908152918a9052604090912054909150606081901c1562000aab5760405162461bcd60e51b815260206004820152602360248201527f4469616d6f6e64426173653a2073656c6563746f7220616c726561647920616460448201526219195960ea1b60648201526084016200009a565b85516001600160e01b0319838116600081815260208d90526040902060609390931b6001600160601b0319168b1790925560058a901b60e090811692831c91831c1999909916179781900362000b1557600389901c600090815260028b0160205260408120989098555b50505060019586019501620009f9565b5093959294509192505050565b62000b5581600001516001600160a01b03166200111c60201b620003c71760201c565b62000bb35760405162461bcd60e51b815260206004820152602760248201527f4469616d6f6e64426173653a205245504c4143452074617267657420686173206044820152666e6f20636f646560c81b60648201526084016200009a565b60005b81604001515181101562000d165760008260400151828151811062000bdf5762000bdf620014bf565b6020908102919091018101516001600160e01b03198116600090815291869052604090912054909150606081901c8062000c2d5760405162461bcd60e51b81526004016200009a906200164e565b306001600160a01b0382160362000c585760405162461bcd60e51b81526004016200009a9062001685565b84600001516001600160a01b0316816001600160a01b03160362000cd05760405162461bcd60e51b815260206004820152602860248201527f4469616d6f6e64426173653a205245504c41434520746172676574206973206960448201526719195b9d1a58d85b60c21b60648201526084016200009a565b5083516001600160e01b031992909216600090815260208690526040902060609290921b6001600160601b0319166001600160601b039190911617905560010162000bb6565b505050565b805160009081906001600160a01b03161562000d925760405162461bcd60e51b815260206004820152602f60248201527f4469616d6f6e64426173653a2052454d4f564520746172676574206d7573742060448201526e6265207a65726f206164647265737360881b60648201526084016200009a565b600385901c6007861660005b85604001515181101562000f7d5760008660400151828151811062000dc75762000dc7620014bf565b6020908102919091018101516001600160e01b031981166000908152918c9052604090912054909150606081901c62000e145760405162461bcd60e51b81526004016200009a906200164e565b30606082901c0362000e3a5760405162461bcd60e51b81526004016200009a9062001685565b600089900362000e6857600019909401600081815260028c0160205260409020549850936007935062000e70565b600019909301925b600584901b89901b6000806001600160e01b03198084169086161462000ec3576001600160e01b03198316600090815260208f90526040902080546001600160601b0319166001600160601b0386161790555b50506001600160e01b03198316600090815260208d90526040812055611fff600383901c1660e0600584901b1687821462000f2857600082815260028f016020526040902080546001600160e01b031980841c19909116908516831c17905562000f4c565b80836001600160e01b031916901c816001600160e01b031960001b901c198d16179b505b8660000362000f6b57600088815260028f01602052604081208190559b505b50506001909301925062000d9e915050565b5060039190911b1796939550929350505050565b8051156001600160a01b0383161514620010055760405162461bcd60e51b815260206004820152602e60248201527f4469616d6f6e64426173653a20696e76616c696420696e697469616c697a617460448201526d696f6e20706172616d657465727360901b60648201526084016200009a565b6001600160a01b038216156200018d576001600160a01b0382163014620010aa5762001045826001600160a01b03166200111c60201b620003c71760201c565b620010aa5760405162461bcd60e51b815260206004820152602e60248201527f4469616d6f6e64426173653a20696e697469616c697a6174696f6e207461726760448201526d657420686173206e6f20636f646560901b60648201526084016200009a565b6000826001600160a01b031682604051620010c69190620016c7565b600060405180830381855af49150503d806000811462001103576040519150601f19603f3d011682016040523d82523d6000602084013e62001108565b606091505b505090508062000d16573d6000803e3d6000fd5b3b151590565b80516001600160a01b03811681146200113a57600080fd5b919050565b634e487b7160e01b600052604160045260246000fd5b604080519081016001600160401b03811182821017156200117a576200117a6200113f565b60405290565b604051606081016001600160401b03811182821017156200117a576200117a6200113f565b604051601f8201601f191681016001600160401b0381118282101715620011d057620011d06200113f565b604052919050565b60006001600160401b03821115620011f457620011f46200113f565b5060051b60200190565b60005b838110156200121b57818101518382015260200162001201565b83811115620005f75750506000910152565b600082601f8301126200123f57600080fd5b81516001600160401b038111156200125b576200125b6200113f565b62001270601f8201601f1916602001620011a5565b8181528460208386010111156200128657600080fd5b62001299826020830160208701620011fe565b949350505050565b600082601f830112620012b357600080fd5b81516020620012cc620012c683620011d8565b620011a5565b82815260069290921b84018101918181019086841115620012ec57600080fd5b8286015b848110156200134a57604081890312156200130b5760008081fd5b6200131562001155565b815160ff81168114620013285760008081fd5b81526200133782860162001122565b81860152835291830191604001620012f0565b509695505050505050565b6000806000606084860312156200136b57600080fd5b620013768462001122565b602085810151919450906001600160401b03808211156200139657600080fd5b818701915087601f830112620013ab57600080fd5b8151620013bc620012c682620011d8565b81815260059190911b8301840190848101908a831115620013dc57600080fd5b8585015b838110156200148a57805185811115620013f957600080fd5b86016060818e03601f190112156200141057600080fd5b6200141a62001180565b88820151878111156200142c57600080fd5b6200143c8f8b838601016200122d565b8252506200144d6040830162001122565b89820152606082015187811115620014655760008081fd5b620014758f8b838601016200122d565b604083015250845250918601918601620013e0565b5060408a01519097509450505080831115620014a557600080fd5b5050620014b586828701620012a1565b9150509250925092565b634e487b7160e01b600052603260045260246000fd5b600060ff821660ff8103620014fa57634e487b7160e01b600052601160045260246000fd5b60010192915050565b634e487b7160e01b600052602160045260246000fd5b6000815180845262001533816020860160208601620011fe565b601f01601f19169290920160200192915050565b60006060808301818452808751808352608092508286019150828160051b8701016020808b0160005b848110156200161c57898403607f19018652815180516001600160a01b03168552838101518986019060038110620015b857634e487b7160e01b600052602160045260246000fd5b868601526040918201519186018a905281519081905290840190600090898701905b80831015620016065783516001600160e01b0319168252928601926001929092019190860190620015da565b5097850197955050509082019060010162001570565b50506001600160a01b038a1690880152868103604088015262001640818962001519565b9a9950505050505050505050565b6020808252601f908201527f4469616d6f6e64426173653a2073656c6563746f72206e6f7420666f756e6400604082015260600190565b60208082526022908201527f4469616d6f6e64426173653a2073656c6563746f7220697320696d6d757461626040820152616c6560f01b606082015260800190565b60008251620016db818460208701620011fe565b9190910192915050565b611f7680620016f56000396000f3fe6080604052600436106100a65760003560e01c806301ffc9a71461014a5780631f931c1c1461017f5780632c4080591461019f57806352ef6b2c146101cc57806354fd4d50146101ee57806379ba5097146102285780637a0ed6271461023d5780638ab5150a1461025f5780638da5cb5b146102745780639142376514610289578063adfca15e146102a9578063cdffacc6146102d6578063f2fde38b146102f6576100ad565b366100ad57005b60006100b7610316565b90506001600160a01b0381163b6101245760405162461bcd60e51b815260206004820152602660248201527f50726f78793a20696d706c656d656e746174696f6e206d75737420626520636f6044820152651b9d1c9858dd60d21b60648201526084015b60405180910390fd5b3660008037600080366000845af43d6000803e808015610143573d6000f35b3d6000fd5b005b34801561015657600080fd5b5061016a610165366004611847565b6103cd565b60405190151581526020015b60405180910390f35b34801561018b57600080fd5b5061014861019a3660046118c1565b610402565b3480156101ab57600080fd5b506101b461048f565b6040516001600160a01b039091168152602001610176565b3480156101d857600080fd5b506101e16104ab565b6040516101769190611972565b3480156101fa57600080fd5b50604080518082018252600b81526a302e312e302e616c70686160a81b602082015290516101769190611a1b565b34801561023457600080fd5b5061014861064d565b34801561024957600080fd5b506102526106d1565b6040516101769190611a73565b34801561026b57600080fd5b506101b4610af6565b34801561028057600080fd5b506101b4610b05565b34801561029557600080fd5b506101486102a4366004611af0565b610b0f565b3480156102b557600080fd5b506102c96102c4366004611af0565b610b6c565b6040516101769190611b0b565b3480156102e257600080fd5b506101b46102f1366004611847565b610cb7565b34801561030257600080fd5b50610148610311366004611af0565b610ce4565b600080356001600160e01b0319168152600080516020611f2183398151915260208190526040822054819060601c806103c0575060038201546001600160a01b0316806103c05760405162461bcd60e51b815260206004820152603260248201527f4469616d6f6e64426173653a206e6f20666163657420666f756e6420666f722060448201527166756e6374696f6e207369676e617475726560701b606482015260840161011b565b9392505050565b3b151590565b60006103fc826103db610d44565b906001600160e01b0319166000908152602091909152604090205460ff1690565b92915050565b61040a610fdd565b546001600160a01b031633146104325760405162461bcd60e51b815260040161011b90611b4d565b61048861043f8587611c15565b8484848080601f0160208091040260200160405190810160405280939291908181526020018383808284376000920191909152506104809250610def915050565b929190610e01565b5050505050565b6000610499610def565b600301546001600160a01b0316919050565b606060006104b7610def565b600181015490915061ffff166001600160401b038111156104da576104da611b84565b604051908082528060200260200182016040528015610503578160200160208202803683370190505b50915060008060005b600184015461ffff16821015610645576000818152600285016020526040812054905b6008811015610630578361054281611d5e565b600188015490955061ffff168511905061063057600581901b82901b6001600160e01b0319811660009081526020889052604081205460601c90805b888110156105d3578a818151811061059857610598611d77565b60200260200101516001600160a01b0316836001600160a01b0316036105c157600191506105d3565b806105cb81611d5e565b91505061057e565b5080156105e25750505061061e565b818a89815181106105f5576105f5611d77565b6001600160a01b03909216602092830291909101909101528761061781611d5e565b9850505050505b8061062881611d5e565b91505061052f565b5050808061063d90611d5e565b91505061050c565b505082525090565b6106556115f7565b6001600160a01b0316336001600160a01b0316146106c75760405162461bcd60e51b815260206004820152602960248201527f536166654f776e61626c653a2073656e646572206d757374206265206e6f6d696044820152683732b29037bbb732b960b91b606482015260840161011b565b6106cf611610565b565b606060006106dd610def565b600181015490915061ffff166001600160401b0381111561070057610700611b84565b60405190808252806020026020018201604052801561074657816020015b60408051808201909152600081526060602082015281526020019060019003908161071e5790505b50600182015490925060009061ffff166001600160401b0381111561076d5761076d611b84565b604051908082528060200260200182016040528015610796578160200160208202803683370190505b50905060008060005b600185015461ffff16821015610a84576000818152600286016020526040812054905b6008811015610a6f57836107d581611d5e565b600189015490955061ffff1685119050610a6f57600581901b82901b6001600160e01b0319811660009081526020899052604081205460601c90805b8881101561092e57826001600160a01b03168c828151811061083557610835611d77565b6020026020010151600001516001600160a01b03160361091c57838c828151811061086257610862611d77565b6020026020010151602001518b838151811061088057610880611d77565b602002602001015160ff168151811061089b5761089b611d77565b60200260200101906001600160e01b03191690816001600160e01b0319168152505060ff8a82815181106108d1576108d1611d77565b602002602001015160ff16106108e657600080fd5b8981815181106108f8576108f8611d77565b60200260200101805180919061090d90611d8d565b60ff169052506001915061092e565b8061092681611d5e565b915050610811565b50801561093d57505050610a5d565b818b898151811061095057610950611d77565b60209081029190910101516001600160a01b03909116905260018a015461ffff166001600160401b0381111561098857610988611b84565b6040519080825280602002602001820160405280156109b1578160200160208202803683370190505b508b89815181106109c4576109c4611d77565b602002602001015160200181905250828b89815181106109e6576109e6611d77565b602002602001015160200151600081518110610a0457610a04611d77565b60200260200101906001600160e01b03191690816001600160e01b031916815250506001898981518110610a3a57610a3a611d77565b60ff9092166020928302919091019091015287610a5681611d5e565b9850505050505b80610a6781611d5e565b9150506107c2565b50508080610a7c90611d5e565b91505061079f565b5060005b82811015610aeb576000848281518110610aa457610aa4611d77565b602002602001015160ff1690506000878381518110610ac557610ac5611d77565b602002602001015160200151905081815250508080610ae390611d5e565b915050610a88565b508185525050505090565b6000610b006115f7565b905090565b6000610b00611673565b610b17610fdd565b546001600160a01b03163314610b3f5760405162461bcd60e51b815260040161011b90611b4d565b80610b48610def565b60030180546001600160a01b0319166001600160a01b039290921691909117905550565b60606000610b78610def565b600181015490915061ffff166001600160401b03811115610b9b57610b9b611b84565b604051908082528060200260200182016040528015610bc4578160200160208202803683370190505b50915060008060005b600184015461ffff16821015610cad576000818152600285016020526040812054905b6008811015610c985783610c0381611d5e565b600188015490955061ffff1685119050610c9857600581901b82901b6001600160e01b0319811660009081526020889052604090205460601c6001600160a01b038a1603610c855780888781518110610c5e57610c5e611d77565b6001600160e01b03199092166020928302919091019091015285610c8181611d5e565b9650505b5080610c9081611d5e565b915050610bf0565b50508080610ca590611d5e565b915050610bcd565b5050825250919050565b6000610cc1610def565b6001600160e01b0319909216600090815260209290925250604090205460601c90565b610cec610fdd565b546001600160a01b03163314610d145760405162461bcd60e51b815260040161011b90611b4d565b610d1d8161167d565b50565b7f1fd5ae9b688ff1e92cea024147bd3c60ba20584ed7225a597f53b9dde63d587e90565b7f326d0c59a7612f6a9919e2a8ee333c80ba689d8ba2634de89c85cbb04832e70590565b6001600160e01b03198083169003610dc15760405162461bcd60e51b815260206004820152601c60248201527b115490cc4d8d4e881a5b9d985b1a59081a5b9d195c999858d9481a5960221b604482015260640161011b565b6001600160e01b03199190911660009081526020929092526040909120805460ff1916911515919091179055565b600080516020611f2183398151915290565b600184015461ffff811690819060009060071615610e315750600381901c60009081526002870160205260409020545b60005b8651811015610f51576000878281518110610e5157610e51611d77565b60200260200101519050600081602001519050600082604001515111610ec55760405162461bcd60e51b815260206004820152602360248201527f4469616d6f6e64426173653a206e6f2073656c6563746f7273207370656369666044820152621a595960ea1b606482015260840161011b565b6000816002811115610ed957610ed9611dac565b03610ef457610eea8a86868561101e565b9095509350610f47565b6001816002811115610f0857610f08611dac565b03610f1c57610f178a836111d1565b610f47565b6002816002811115610f3057610f30611dac565b03610f4757610f418a868685611394565b90955093505b5050600101610e34565b50828214610f6d5760018701805461ffff191661ffff84161790555b6007821615610f8f57600382901c600090815260028801602052604090208190555b7f8faa70878671ccd212d20771b795c50af8fd3ff6cf27f4bde57e5d4de0aeb673868686604051610fc293929190611dc2565b60405180910390a1610fd48585611686565b50505050505050565b7f8a22373512790c48b83a1fe2efdd2888d4a917bcdc24d0adf63e60f67168046090565b81546001600160a01b0319166001600160a01b0391909116179055565b805160009081906001600160a01b0316301480611045575082516001600160a01b03163b15155b61109d5760405162461bcd60e51b815260206004820152602360248201527f4469616d6f6e64426173653a204144442074617267657420686173206e6f20636044820152626f646560e81b606482015260840161011b565b60005b8360400151518110156111c4576000846040015182815181106110c5576110c5611d77565b6020908102919091018101516001600160e01b031981166000908152918a9052604090912054909150606081901c1561114c5760405162461bcd60e51b815260206004820152602360248201527f4469616d6f6e64426173653a2073656c6563746f7220616c726561647920616460448201526219195960ea1b606482015260840161011b565b85516001600160e01b0319838116600081815260208d90526040902060609390931b6001600160601b0319168b1790925560058a901b60e090811692831c91831c199990991617978190036111b557600389901c600090815260028b0160205260408120989098555b505050600195860195016110a0565b5093959294509192505050565b80516001600160a01b03163b6112395760405162461bcd60e51b815260206004820152602760248201527f4469616d6f6e64426173653a205245504c4143452074617267657420686173206044820152666e6f20636f646560c81b606482015260840161011b565b60005b81604001515181101561138f5760008260400151828151811061126157611261611d77565b6020908102919091018101516001600160e01b03198116600090815291869052604090912054909150606081901c806112ac5760405162461bcd60e51b815260040161011b90611e8b565b306001600160a01b038216036112d45760405162461bcd60e51b815260040161011b90611ec2565b84600001516001600160a01b0316816001600160a01b03160361134a5760405162461bcd60e51b815260206004820152602860248201527f4469616d6f6e64426173653a205245504c41434520746172676574206973206960448201526719195b9d1a58d85b60c21b606482015260840161011b565b5083516001600160e01b031992909216600090815260208690526040902060609290921b6001600160601b0319166001600160601b039190911617905560010161123c565b505050565b805160009081906001600160a01b0316156114095760405162461bcd60e51b815260206004820152602f60248201527f4469616d6f6e64426173653a2052454d4f564520746172676574206d7573742060448201526e6265207a65726f206164647265737360881b606482015260840161011b565b600385901c6007861660005b8560400151518110156115e35760008660400151828151811061143a5761143a611d77565b6020908102919091018101516001600160e01b031981166000908152918c9052604090912054909150606081901c6114845760405162461bcd60e51b815260040161011b90611e8b565b30606082901c036114a75760405162461bcd60e51b815260040161011b90611ec2565b60008990036114d357600019909401600081815260028c016020526040902054985093600793506114db565b600019909301925b600584901b89901b6000806001600160e01b03198084169086161461152d576001600160e01b03198316600090815260208f90526040902080546001600160601b0319166001600160601b0386161790555b50506001600160e01b03198316600090815260208d90526040812055611fff600383901c1660e0600584901b1687821461159057600082815260028f016020526040902080546001600160e01b031980841c19909116908516831c1790556115b4565b80836001600160e01b031916901c816001600160e01b031960001b901c198d16179b505b866000036115d257600088815260028f01602052604081208190559b505b505060019093019250611415915050565b5060039190911b1796939550929350505050565b60006116016117f6565b546001600160a01b0316919050565b600061161a610fdd565b805460405191925033916001600160a01b03909116907f8be0079c531659141344cd1fd0a4f28419497f9722a3daafe3b4186f6b6457e090600090a36116608133611001565b610d1d600061166d6117f6565b90611001565b6000611601610fdd565b610d1d8161181a565b8051156001600160a01b03831615146116f85760405162461bcd60e51b815260206004820152602e60248201527f4469616d6f6e64426173653a20696e76616c696420696e697469616c697a617460448201526d696f6e20706172616d657465727360901b606482015260840161011b565b6001600160a01b038216156117f2576001600160a01b0382163014611785576001600160a01b0382163b6117855760405162461bcd60e51b815260206004820152602e60248201527f4469616d6f6e64426173653a20696e697469616c697a6174696f6e207461726760448201526d657420686173206e6f20636f646560901b606482015260840161011b565b6000826001600160a01b03168260405161179f9190611f04565b600060405180830381855af49150503d80600081146117da576040519150601f19603f3d011682016040523d82523d6000602084013e6117df565b606091505b505090508061138f573d6000803e3d6000fd5b5050565b7f24aa1f7b31fd188a8d3ecfb06bc55c806040e59b03bd4396283442fce661789090565b610d1d81610d1d8161166d6117f6565b80356001600160e01b03198116811461184257600080fd5b919050565b60006020828403121561185957600080fd5b6103c08261182a565b80356001600160a01b038116811461184257600080fd5b60008083601f84011261188b57600080fd5b5081356001600160401b038111156118a257600080fd5b6020830191508360208285010111156118ba57600080fd5b9250929050565b6000806000806000606086880312156118d957600080fd5b85356001600160401b03808211156118f057600080fd5b818801915088601f83011261190457600080fd5b81358181111561191357600080fd5b8960208260051b850101111561192857600080fd5b6020830197508096505061193e60208901611862565b9450604088013591508082111561195457600080fd5b5061196188828901611879565b969995985093965092949392505050565b6020808252825182820181905260009190848201906040850190845b818110156119b35783516001600160a01b03168352928401929184019160010161198e565b50909695505050505050565b60005b838110156119da5781810151838201526020016119c2565b838111156119e9576000848401525b50505050565b60008151808452611a078160208601602086016119bf565b601f01601f19169290920160200192915050565b6020815260006103c060208301846119ef565b600081518084526020808501945080840160005b83811015611a685781516001600160e01b03191687529582019590820190600101611a42565b509495945050505050565b60006020808301818452808551808352604092508286019150828160051b87010184880160005b83811015611ae257888303603f19018552815180516001600160a01b03168452870151878401879052611acf87850182611a2e565b9588019593505090860190600101611a9a565b509098975050505050505050565b600060208284031215611b0257600080fd5b6103c082611862565b6020808252825182820181905260009190848201906040850190845b818110156119b35783516001600160e01b03191683529284019291840191600101611b27565b6020808252601d908201527f4f776e61626c653a2073656e646572206d757374206265206f776e6572000000604082015260600190565b634e487b7160e01b600052604160045260246000fd5b604051606081016001600160401b0381118282101715611bbc57611bbc611b84565b60405290565b604051601f8201601f191681016001600160401b0381118282101715611bea57611bea611b84565b604052919050565b60006001600160401b03821115611c0b57611c0b611b84565b5060051b60200190565b6000611c28611c2384611bf2565b611bc2565b83815260208082019190600586811b860136811115611c4657600080fd5b865b81811015611d3b5780356001600160401b0380821115611c685760008081fd5b818a01915060608236031215611c7e5760008081fd5b611c86611b9a565b611c8f83611862565b81528683013560038110611ca35760008081fd5b8188015260408381013583811115611cbb5760008081fd5b939093019236601f850112611cd257600092508283fd5b83359250611ce2611c2384611bf2565b83815292871b84018801928881019036851115611cff5760008081fd5b948901945b84861015611d2457611d158661182a565b82529489019490890190611d04565b918301919091525088525050948301948301611c48565b5092979650505050505050565b634e487b7160e01b600052601160045260246000fd5b600060018201611d7057611d70611d48565b5060010190565b634e487b7160e01b600052603260045260246000fd5b600060ff821660ff8103611da357611da3611d48565b60010192915050565b634e487b7160e01b600052602160045260246000fd5b6000606080830181845280875180835260808601915060808160051b87010192506020808a016000805b84811015611e5b57898703607f19018652825180516001600160a01b031688528481015160038110611e2c57634e487b7160e01b84526021600452602484fd5b88860152604090810151908801899052611e4889890182611a2e565b9750509483019491830191600101611dec565b5050506001600160a01b0389169087015250508381036040850152611e8081866119ef565b979650505050505050565b6020808252601f908201527f4469616d6f6e64426173653a2073656c6563746f72206e6f7420666f756e6400604082015260600190565b60208082526022908201527f4469616d6f6e64426173653a2073656c6563746f7220697320696d6d757461626040820152616c6560f01b606082015260800190565b60008251611f168184602087016119bf565b919091019291505056fe177481ac65e4292921c69f62d1cc7f57541261e5d61c8175cf4e36a01c9bfc93a264697066735822122093049fbe36c9657714d7eb800bfd9ab1a62e21bfb520396e068ecc13a71608fd64736f6c634300080e0033",
  "linkReferences": {},
  "deployedLinkReferences": {}
}