{
  "_format": "hh-sol-artifact-1",
  "contractName": "EtherServiceFacet",
  "sourceName": "contracts/ether/EtherServiceFacet.sol",
  "abi": [
    {
      "anonymous": false,
      "inputs": [
        {
          "indexed": false,
          "internalType": "address payable",
          "name": "to",
          "type": "address"
        },
        {
          "indexed": false,
          "internalType": "uint256",
          "name": "amount",
          "type": "uint256"
        }
      ],
      "name": "EtherTransfered",
      "type": "event"
    },
    {
      "anonymous": false,
      "inputs": [
        {
          "indexed": true,
          "internalType": "address",
          "name": "previousOwner",
          "type": "address"
        },
        {
          "indexed": true,
          "internalType": "address",
          "name": "newOwner",
          "type": "address"
        }
      ],
      "name": "OwnershipTransferred",
      "type": "event"
    },
    {
      "inputs": [],
      "name": "etherServiceFacetVersion",
      "outputs": [
        {
          "internalType": "string",
          "name": "",
          "type": "string"
        }
      ],
      "stateMutability": "pure",
      "type": "function"
    },
    {
      "inputs": [],
      "name": "getEtherBalance",
      "outputs": [
        {
          "internalType": "uint256",
          "name": "",
          "type": "uint256"
        }
      ],
      "stateMutability": "view",
      "type": "function"
    },
    {
      "inputs": [
        {
          "internalType": "address payable",
          "name": "to",
          "type": "address"
        },
        {
          "internalType": "uint256",
          "name": "amount",
          "type": "uint256"
        }
      ],
      "name": "transferEther",
      "outputs": [
        {
          "internalType": "bool",
          "name": "",
          "type": "bool"
        },
        {
          "internalType": "bytes",
          "name": "",
          "type": "bytes"
        }
      ],
      "stateMutability": "nonpayable",
      "type": "function"
    }
  ],
  "bytecode": "0x608060405234801561001057600080fd5b506103f0806100206000396000f3fe608060405234801561001057600080fd5b50600436106100415760003560e01c806305b1137b1461004657806376f6223814610070578063ea46193e1461009d575b600080fd5b6100596100543660046102f8565b6100ab565b60405161006792919061037d565b60405180910390f35b604080518082018252600b81526a302e312e302e616c70686160a81b6020820152905161006791906103a0565b604051478152602001610067565b600060607f8a22373512790c48b83a1fe2efdd2888d4a917bcdc24d0adf63e60f671680460546001600160a01b0316331461012d5760405162461bcd60e51b815260206004820152601d60248201527f4f776e61626c653a2073656e646572206d757374206265206f776e657200000060448201526064015b60405180910390fd5b6001600160a01b03841661019c5760405162461bcd60e51b815260206004820152603060248201527f45746865725365727669636546616365743a20746f206164726573732069732060448201526f746865207a65726f206164647265737360801b6064820152608401610124565b600083116101f65760405162461bcd60e51b815260206004820152602160248201527f45746865725365727669636546616365743a20616d6f756e74206973207a65726044820152606f60f81b6064820152608401610124565b600080856001600160a01b03168560405160006040518083038185875af1925050503d8060008114610244576040519150601f19603f3d011682016040523d82523d6000602084013e610249565b606091505b5091509150816102ab5760405162461bcd60e51b815260206004820152602760248201527f45746865725365727669636546616365743a206661696c656420746f2073656e604482015266321022ba3432b960c91b6064820152608401610124565b604080516001600160a01b0388168152602081018790527fcbbf9d8eccd82bfe565beb740ad23209888d91a194d1ad1eb4add4476e6be45c910160405180910390a1909590945092505050565b6000806040838503121561030b57600080fd5b82356001600160a01b038116811461032257600080fd5b946020939093013593505050565b6000815180845260005b818110156103565760208185018101518683018201520161033a565b81811115610368576000602083870101525b50601f01601f19169290920160200192915050565b82151581526040602082015260006103986040830184610330565b949350505050565b6020815260006103b36020830184610330565b939250505056fea2646970667358221220a38c49e86911326992fff1e6aff6c11c383269001d5fb4fd44b88939f22bf06364736f6c634300080e0033",
  "linkReferences": {},
  "deployedLinkReferences": {}
}