{
  "_format": "hh-sol-artifact-1",
  "contractName": "CountersMock",
  "sourceName": "contracts/utils/counters/CountersMock.sol",
  "abi": [
    {
      "anonymous": false,
      "inputs": [
        {
          "indexed": true,
          "internalType": "uint256",
          "name": "index",
          "type": "uint256"
        },
        {
          "indexed": false,
          "internalType": "uint256",
          "name": "newValue",
          "type": "uint256"
        }
      ],
      "name": "Decremented",
      "type": "event"
    },
    {
      "anonymous": false,
      "inputs": [
        {
          "indexed": true,
          "internalType": "uint256",
          "name": "index",
          "type": "uint256"
        },
        {
          "indexed": false,
          "internalType": "uint256",
          "name": "newValue",
          "type": "uint256"
        }
      ],
      "name": "Incremented",
      "type": "event"
    },
    {
      "anonymous": false,
      "inputs": [
        {
          "indexed": true,
          "internalType": "uint256",
          "name": "index",
          "type": "uint256"
        },
        {
          "indexed": false,
          "internalType": "uint256",
          "name": "newValue",
          "type": "uint256"
        }
      ],
      "name": "Reset",
      "type": "event"
    },
    {
      "inputs": [
        {
          "internalType": "uint256",
          "name": "index",
          "type": "uint256"
        }
      ],
      "name": "current",
      "outputs": [
        {
          "internalType": "uint256",
          "name": "",
          "type": "uint256"
        }
      ],
      "stateMutability": "nonpayable",
      "type": "function"
    },
    {
      "inputs": [
        {
          "internalType": "uint256",
          "name": "index",
          "type": "uint256"
        }
      ],
      "name": "decrement",
      "outputs": [],
      "stateMutability": "nonpayable",
      "type": "function"
    },
    {
      "inputs": [
        {
          "internalType": "uint256",
          "name": "index",
          "type": "uint256"
        }
      ],
      "name": "increment",
      "outputs": [],
      "stateMutability": "nonpayable",
      "type": "function"
    },
    {
      "inputs": [
        {
          "internalType": "uint256",
          "name": "index",
          "type": "uint256"
        }
      ],
      "name": "reset",
      "outputs": [],
      "stateMutability": "nonpayable",
      "type": "function"
    }
  ],
  "bytecode": "0x608060405234801561001057600080fd5b50610462806100206000396000f3fe608060405234801561001057600080fd5b506004361061004c5760003560e01c8063310bd74b146100515780633a9ebefd146100665780637cf5dab014610079578063ac03aa1c1461008c575b600080fd5b61006461005f3660046103b6565b6100b1565b005b6100646100743660046103b6565b6100cf565b6100646100873660046103b6565b6100e1565b61009f61009a3660046103b6565b6100f3565b60405190815260200160405180910390f35b6100ba81610104565b6100c381610188565b6100cc816101e2565b50565b6100d881610104565b6100cc81610246565b6100ea81610283565b6100cc816102a3565b60006100fe826102dc565b92915050565b806000811161012e5760405162461bcd60e51b8152600401610125906103cf565b60405180910390fd5b6000610139826102dc565b116101845760405162461bcd60e51b815260206004820152601b60248201527a10dbdd5b9d195c9cce8810d3d55395115497d393d517d193d55391602a1b6044820152606401610125565b5050565b6101a3816101946102f7565b60009182526020526040812055565b807f5ae2e83411b15aef3c1609c37f90fc7c912666cfac3ba72a9ba900a39c5bfaa36101ce836102dc565b60405190815260200160405180910390a250565b6101ea6102f7565b60008281526020919091526040902054156100cc5760405162461bcd60e51b815260206004820152601c60248201527b10dbdd5b9d195c9cce8810d3d55395115494d7d393d517d49154d15560221b6044820152606401610125565b610258816102526102f7565b9061031b565b807f847bc9dfeccb5e1f46d639d8427a2dffec2db7148a5d315341194d6a7aafe4e56101ce836102dc565b600081116100cc5760405162461bcd60e51b8152600401610125906103cf565b6102b5816102af6102f7565b9061038e565b807f230c08f549f5f9e591e87490c6c26b3715ba3bdbe74477c4ec927b160763f7676101ce835b60006102e66102f7565b600092835260205250604090205490565b7f7501651f7c1a1425b363e321895d17d818852dcf57a994e54489b51ae6d4d09690565b600081815260208390526040902054806103755760405162461bcd60e51b815260206004820152601b60248201527a436f756e7465723a2064656372656d656e74206f766572666c6f7760281b6044820152606401610125565b6000918252602092909252604090206000199091019055565b60008181526020839052604081208054600192906103ad908490610406565b90915550505050565b6000602082840312156103c857600080fd5b5035919050565b6020808252601d908201527f436f756e746572733a20494e4445585f4f55545f4f465f424f554e4453000000604082015260600190565b6000821982111561042757634e487b7160e01b600052601160045260246000fd5b50019056fea264697066735822122066a5a4e6d4d033d84342b62a9bf8e2d1687792e21b20c14cf20c989e6b2909f264736f6c634300080e0033",
  "linkReferences": {},
  "deployedLinkReferences": {}
}