{
  "_format": "hh-sol-artifact-1",
  "contractName": "SemaphoreVotingFacet",
  "sourceName": "contracts/facets/SemaphoreVotingFacet.sol",
  "abi": [
    {
      "anonymous": false,
      "inputs": [
        {
          "indexed": false,
          "internalType": "uint256",
          "name": "nullifierHash",
          "type": "uint256"
        }
      ],
      "name": "NullifierHashAdded",
      "type": "event"
    },
    {
      "anonymous": false,
      "inputs": [
        {
          "indexed": true,
          "internalType": "address",
          "name": "previousOwner",
          "type": "address"
        },
        {
          "indexed": true,
          "internalType": "address",
          "name": "newOwner",
          "type": "address"
        }
      ],
      "name": "OwnershipTransferred",
      "type": "event"
    },
    {
      "anonymous": false,
      "inputs": [
        {
          "indexed": false,
          "internalType": "uint256",
          "name": "pollId",
          "type": "uint256"
        },
        {
          "indexed": true,
          "internalType": "address",
          "name": "coordinator",
          "type": "address"
        }
      ],
      "name": "PollCreated",
      "type": "event"
    },
    {
      "anonymous": false,
      "inputs": [
        {
          "indexed": false,
          "internalType": "uint256",
          "name": "pollId",
          "type": "uint256"
        },
        {
          "indexed": true,
          "internalType": "address",
          "name": "coordinator",
          "type": "address"
        },
        {
          "indexed": false,
          "internalType": "uint256",
          "name": "decryptionKey",
          "type": "uint256"
        }
      ],
      "name": "PollEnded",
      "type": "event"
    },
    {
      "anonymous": false,
      "inputs": [
        {
          "indexed": false,
          "internalType": "uint256",
          "name": "pollId",
          "type": "uint256"
        },
        {
          "indexed": true,
          "internalType": "address",
          "name": "coordinator",
          "type": "address"
        },
        {
          "indexed": false,
          "internalType": "uint256",
          "name": "encryptionKey",
          "type": "uint256"
        }
      ],
      "name": "PollStarted",
      "type": "event"
    },
    {
      "anonymous": false,
      "inputs": [
        {
          "indexed": true,
          "internalType": "uint256",
          "name": "groupId",
          "type": "uint256"
        },
        {
          "indexed": false,
          "internalType": "bytes32",
          "name": "signal",
          "type": "bytes32"
        }
      ],
      "name": "ProofVerified",
      "type": "event"
    },
    {
      "anonymous": false,
      "inputs": [
        {
          "indexed": true,
          "internalType": "uint256",
          "name": "pollId",
          "type": "uint256"
        },
        {
          "indexed": false,
          "internalType": "bytes32",
          "name": "vote",
          "type": "bytes32"
        }
      ],
      "name": "VoteAdded",
      "type": "event"
    },
    {
      "inputs": [
        {
          "internalType": "uint256",
          "name": "groupId",
          "type": "uint256"
        },
        {
          "internalType": "bytes32",
          "name": "vote",
          "type": "bytes32"
        },
        {
          "internalType": "uint256",
          "name": "nullifierHash",
          "type": "uint256"
        },
        {
          "internalType": "uint256",
          "name": "pollId",
          "type": "uint256"
        },
        {
          "internalType": "uint256[8]",
          "name": "proof",
          "type": "uint256[8]"
        }
      ],
      "name": "castVote",
      "outputs": [],
      "stateMutability": "nonpayable",
      "type": "function"
    },
    {
      "inputs": [
        {
          "internalType": "uint256",
          "name": "pollId",
          "type": "uint256"
        },
        {
          "internalType": "address",
          "name": "coordinator",
          "type": "address"
        },
        {
          "internalType": "uint8",
          "name": "depth",
          "type": "uint8"
        }
      ],
      "name": "createPoll",
      "outputs": [],
      "stateMutability": "nonpayable",
      "type": "function"
    },
    {
      "inputs": [
        {
          "internalType": "uint256",
          "name": "pollId",
          "type": "uint256"
        },
        {
          "internalType": "uint256",
          "name": "decryptionKey",
          "type": "uint256"
        }
      ],
      "name": "endPoll",
      "outputs": [],
      "stateMutability": "nonpayable",
      "type": "function"
    },
    {
      "inputs": [],
      "name": "semaphoreVotingFacetVersion",
      "outputs": [
        {
          "internalType": "string",
          "name": "",
          "type": "string"
        }
      ],
      "stateMutability": "pure",
      "type": "function"
    },
    {
      "inputs": [
        {
          "internalType": "uint256",
          "name": "pollId",
          "type": "uint256"
        },
        {
          "internalType": "uint256",
          "name": "encryptionKey",
          "type": "uint256"
        }
      ],
      "name": "startPoll",
      "outputs": [],
      "stateMutability": "nonpayable",
      "type": "function"
    }
  ],
  "bytecode": "0x608060405234801561001057600080fd5b5061096c806100206000396000f3fe608060405234801561001057600080fd5b50600436106100575760003560e01c806331c1e59d1461005c57806347df85bb14610071578063b359dd4314610084578063bbd8c7db14610097578063f9eb7929146100aa575b600080fd5b61006f61006a36600461071c565b6100da565b005b61006f61007f366004610770565b6100f5565b61006f6100923660046107c3565b610109565b61006f6100a53660046107c3565b610117565b60408051808201825260058152640302e312e360dc1b602082015290516100d191906107e5565b60405180910390f35b6100e5838383610121565b6100f08383836101aa565b505050565b6101028585858585610240565b5050505050565b610113828261028e565b5050565b61011382826102dc565b7f8a22373512790c48b83a1fe2efdd2888d4a917bcdc24d0adf63e60f671680460546001600160a01b0316331461019f5760405162461bcd60e51b815260206004820152601d60248201527f4f776e61626c653a2073656e646572206d757374206265206f776e657200000060448201526064015b60405180910390fd5b6100f0838383610322565b6101e383836101b7610391565b6000928352602052604090912080546001600160a01b0319166001600160a01b03909216919091179055565b6101f88360006101f1610391565b91906103b5565b816001600160a01b03167fb447d309fd3b1a27466cdb08ccc02ee5188e9c71fc58af042bafe3e0bb4512308460405161023391815260200190565b60405180910390a2505050565b61024d85858585856103f0565b817f9259c591af3680137739dc2b275c388eb1639a143b49022e7062fa162f14776d8560405161027f91815260200190565b60405180910390a25050505050565b61029c8260016101f1610391565b604080518381526020810183905233917f426c5e6bd38728569cc4e1f0a309f506d4c1bc56189920d59343af2639b60d3e91015b60405180910390a25050565b6102ea8260026101f1610391565b604080518381526020810183905233917f4a0c303670c99ff9b9eab216bcca4f03007fbece83818599a2946ea62c541fde91016102d0565b6001600160a01b0382166100f05760405162461bcd60e51b815260206004820152603060248201527f53656d6170686f7265566f74696e673a20636f6f7264696e61746f722069732060448201526f746865207a65726f206164647265737360801b6064820152608401610196565b7f71cc6fc415e2c7a2cf4d3e53460f98380a338c51fb7683653e59001f128a36c190565b6000828152602084905260409020805482919060ff60a01b1916600160a01b8360028111156103e6576103e661083a565b0217905550505050565b60006103fa61049d565b60008781526020919091526040812060010154915061041761049d565b6000888152602091825260408082205460ff168083527f1fd5ae9b688ff1e92cea024147bd3c60ba20584ed7225a597f53b9dde63d587e9093529020549091506001600160a01b031661046e8784888888866104c1565b6104938661047a6106c1565b600091825260205260409020805460ff19166001179055565b5050505050505050565b7f18009942081384ebf013f551c6956278f8f7e6b5ba58de96a877e7d2e169e67090565b6104c96106c1565b6000858152602091909152604090205460ff16156105485760405162461bcd60e51b815260206004820152603660248201527f53656d6170686f7265436f72653a20796f752063616e6e6f7420757365207468604482015275652073616d65206e756c6c696669657220747769636560501b6064820152608401610196565b6000610553876106e5565b9050816001600160a01b0316635fe8c13b60405180604001604052808660006008811061058257610582610850565b602002013581526020018660016008811061059f5761059f610850565b60200201359052604080516080810182528782013591810191825290819060608201896003602002013581525081526020016040518060400160405280896004600881106105ef576105ef610850565b602002013581526020018960056008811061060c5761060c610850565b6020020135905290526040805180820190915280886006602002013581526020018860076008811061064057610640610850565b602002013581525060405180608001604052808c81526020018b81526020018781526020018a8152506040518563ffffffff1660e01b8152600401610688949392919061088f565b60006040518083038186803b1580156106a057600080fd5b505afa1580156106b4573d6000803e3d6000fd5b5050505050505050505050565b7f2e80343f7be649afb4507a40421854eda29bc956f126850e8d1f99d3fcc3131e90565b60006008826040516020016106fc91815260200190565b60408051601f198184030181529190528051602090910120901c92915050565b60008060006060848603121561073157600080fd5b8335925060208401356001600160a01b038116811461074f57600080fd5b9150604084013560ff8116811461076557600080fd5b809150509250925092565b600080600080600061018080878903121561078a57600080fd5b863595506020870135945060408701359350606087013592508781880111156107b257600080fd5b506080860190509295509295909350565b600080604083850312156107d657600080fd5b50508035926020909101359150565b600060208083528351808285015260005b81811015610812578581018301518582016040015282016107f6565b81811115610824576000604083870101525b50601f01601f1916929092016040019392505050565b634e487b7160e01b600052602160045260246000fd5b634e487b7160e01b600052603260045260246000fd5b8060005b600281101561088957815184526020938401939091019060010161086a565b50505050565b610180810161089e8287610866565b60408083018660005b60028082106108b657506108f1565b82518460005b838110156108da5782518252602092830192909101906001016108bc565b5050509284019250602091909101906001016108a7565b5050505061090260c0830185610866565b61010082018360005b600481101561092a57815183526020928301929091019060010161090b565b5050509594505050505056fea264697066735822122024bcafae72acc740c72b33d86166070c68d13f5c5fe9ee5d1e80b5a51efa8aa664736f6c634300080e0033",
  "linkReferences": {},
  "deployedLinkReferences": {}
}