{
  "_format": "hh-sol-artifact-1",
  "contractName": "WalletFactoryFacet",
  "sourceName": "contracts/facets/WalletFactoryFacet.sol",
  "abi": [
    {
      "anonymous": false,
      "inputs": [
        {
          "indexed": false,
          "internalType": "address",
          "name": "wallet",
          "type": "address"
        }
      ],
      "name": "DiamondIsSet",
      "type": "event"
    },
    {
      "anonymous": false,
      "inputs": [
        {
          "indexed": false,
          "internalType": "string",
          "name": "name",
          "type": "string"
        },
        {
          "indexed": false,
          "internalType": "address",
          "name": "facetAddress",
          "type": "address"
        },
        {
          "indexed": false,
          "internalType": "string",
          "name": "version",
          "type": "string"
        }
      ],
      "name": "FacetIsAdded",
      "type": "event"
    },
    {
      "anonymous": false,
      "inputs": [
        {
          "indexed": false,
          "internalType": "address",
          "name": "facetAddress",
          "type": "address"
        }
      ],
      "name": "FacetIsRemoved",
      "type": "event"
    },
    {
      "anonymous": false,
      "inputs": [
        {
          "indexed": true,
          "internalType": "bytes32",
          "name": "hashId",
          "type": "bytes32"
        },
        {
          "indexed": false,
          "internalType": "bytes32",
          "name": "guardian",
          "type": "bytes32"
        }
      ],
      "name": "GuardianAdded",
      "type": "event"
    },
    {
      "anonymous": false,
      "inputs": [
        {
          "indexed": true,
          "internalType": "bytes32",
          "name": "hashId",
          "type": "bytes32"
        },
        {
          "indexed": false,
          "internalType": "bytes32",
          "name": "guardian",
          "type": "bytes32"
        }
      ],
      "name": "GuardianRemoved",
      "type": "event"
    },
    {
      "anonymous": false,
      "inputs": [
        {
          "indexed": true,
          "internalType": "address",
          "name": "previousOwner",
          "type": "address"
        },
        {
          "indexed": true,
          "internalType": "address",
          "name": "newOwner",
          "type": "address"
        }
      ],
      "name": "OwnershipTransferred",
      "type": "event"
    },
    {
      "anonymous": false,
      "inputs": [
        {
          "indexed": false,
          "internalType": "address",
          "name": "instance",
          "type": "address"
        }
      ],
      "name": "WalletIsCreated",
      "type": "event"
    },
    {
      "inputs": [],
      "name": "WALLET_CREATION",
      "outputs": [
        {
          "internalType": "string",
          "name": "",
          "type": "string"
        }
      ],
      "stateMutability": "view",
      "type": "function"
    },
    {
      "inputs": [
        {
          "internalType": "string",
          "name": "name",
          "type": "string"
        },
        {
          "internalType": "address",
          "name": "facetAddress",
          "type": "address"
        },
        {
          "internalType": "string",
          "name": "version",
          "type": "string"
        }
      ],
      "name": "addFacet",
      "outputs": [],
      "stateMutability": "nonpayable",
      "type": "function"
    },
    {
      "inputs": [
        {
          "internalType": "bytes32",
          "name": "hashId",
          "type": "bytes32"
        },
        {
          "internalType": "bytes32",
          "name": "guardian",
          "type": "bytes32"
        }
      ],
      "name": "addGuardian",
      "outputs": [],
      "stateMutability": "nonpayable",
      "type": "function"
    },
    {
      "inputs": [
        {
          "internalType": "bytes32",
          "name": "hashId",
          "type": "bytes32"
        },
        {
          "internalType": "address",
          "name": "owner",
          "type": "address"
        },
        {
          "components": [
            {
              "internalType": "uint8",
              "name": "merkleTreeDepth",
              "type": "uint8"
            },
            {
              "internalType": "address",
              "name": "contractAddress",
              "type": "address"
            }
          ],
          "internalType": "struct IWalletFactoryInternal.VerifierDTO[]",
          "name": "verifier",
          "type": "tuple[]"
        }
      ],
      "name": "createWallet",
      "outputs": [
        {
          "internalType": "address",
          "name": "",
          "type": "address"
        }
      ],
      "stateMutability": "nonpayable",
      "type": "function"
    },
    {
      "inputs": [
        {
          "internalType": "bytes32",
          "name": "hashId",
          "type": "bytes32"
        },
        {
          "internalType": "address",
          "name": "owner",
          "type": "address"
        },
        {
          "components": [
            {
              "internalType": "uint8",
              "name": "merkleTreeDepth",
              "type": "uint8"
            },
            {
              "internalType": "address",
              "name": "contractAddress",
              "type": "address"
            }
          ],
          "internalType": "struct IWalletFactoryInternal.VerifierDTO[]",
          "name": "verifiers",
          "type": "tuple[]"
        },
        {
          "internalType": "bytes32",
          "name": "salt",
          "type": "bytes32"
        }
      ],
      "name": "createWalletDeterministic",
      "outputs": [
        {
          "internalType": "address",
          "name": "",
          "type": "address"
        }
      ],
      "stateMutability": "nonpayable",
      "type": "function"
    },
    {
      "inputs": [],
      "name": "getDiamond",
      "outputs": [
        {
          "internalType": "address",
          "name": "",
          "type": "address"
        }
      ],
      "stateMutability": "view",
      "type": "function"
    },
    {
      "inputs": [
        {
          "internalType": "uint256",
          "name": "arrayIndex",
          "type": "uint256"
        }
      ],
      "name": "getFacet",
      "outputs": [
        {
          "components": [
            {
              "internalType": "string",
              "name": "name",
              "type": "string"
            },
            {
              "internalType": "address",
              "name": "facetAddress",
              "type": "address"
            },
            {
              "internalType": "string",
              "name": "version",
              "type": "string"
            }
          ],
          "internalType": "struct WalletFactoryStorage.Facet",
          "name": "",
          "type": "tuple"
        }
      ],
      "stateMutability": "view",
      "type": "function"
    },
    {
      "inputs": [
        {
          "internalType": "address",
          "name": "facetAddress",
          "type": "address"
        }
      ],
      "name": "getFacetIndex",
      "outputs": [
        {
          "internalType": "uint256",
          "name": "",
          "type": "uint256"
        }
      ],
      "stateMutability": "view",
      "type": "function"
    },
    {
      "inputs": [],
      "name": "getFacets",
      "outputs": [
        {
          "components": [
            {
              "internalType": "string",
              "name": "name",
              "type": "string"
            },
            {
              "internalType": "address",
              "name": "facetAddress",
              "type": "address"
            },
            {
              "internalType": "string",
              "name": "version",
              "type": "string"
            }
          ],
          "internalType": "struct WalletFactoryStorage.Facet[]",
          "name": "",
          "type": "tuple[]"
        }
      ],
      "stateMutability": "view",
      "type": "function"
    },
    {
      "inputs": [
        {
          "internalType": "bytes32",
          "name": "hashId",
          "type": "bytes32"
        }
      ],
      "name": "getWallet",
      "outputs": [
        {
          "internalType": "address",
          "name": "",
          "type": "address"
        }
      ],
      "stateMutability": "view",
      "type": "function"
    },
    {
      "inputs": [
        {
          "internalType": "bytes32",
          "name": "salt",
          "type": "bytes32"
        }
      ],
      "name": "predictDeterministicAddress",
      "outputs": [
        {
          "internalType": "address",
          "name": "predicted",
          "type": "address"
        }
      ],
      "stateMutability": "view",
      "type": "function"
    },
    {
      "inputs": [
        {
          "internalType": "bytes32",
          "name": "hashId",
          "type": "bytes32"
        }
      ],
      "name": "removeGuardian",
      "outputs": [],
      "stateMutability": "nonpayable",
      "type": "function"
    },
    {
      "inputs": [
        {
          "internalType": "address",
          "name": "diamond",
          "type": "address"
        }
      ],
      "name": "setDiamond",
      "outputs": [],
      "stateMutability": "nonpayable",
      "type": "function"
    },
    {
      "inputs": [],
      "name": "walletFactoryFacetVersion",
      "outputs": [
        {
          "internalType": "string",
          "name": "",
          "type": "string"
        }
      ],
      "stateMutability": "pure",
      "type": "function"
    }
  ],
  "bytecode": "0x608060405234801561001057600080fd5b50615ece806100206000396000f3fe60806040523480156200001157600080fd5b5060043610620000ca5760003560e01c80630429ad3714620000cf5780635414dff0146200010a578063662ea47d146200013057806376ed535a1462000149578063789d392a146200016257806390610b0e1462000179578063bb916c8414620001a8578063c4c03d3114620001ce578063c741d58014620001f4578063d7b8b95b146200020b578063d9449d121462000215578063dfb08252146200022c578063f4032a521462000243578063fb948690146200025a575b600080fd5b60408051808201909152600b81526a302e312e302e616c70686160a81b60208201525b604051620001019190620010e5565b60405180910390f35b620001216200011b36600462001101565b62000271565b6040516200010191906200111b565b6200013a6200027b565b604051620001019190620011cf565b620001606200015a36600462001201565b6200028c565b005b620001216200017336600462001101565b620002a5565b620000f26040518060400160405280600f81526020016e2ba0a62622aa2fa1a922a0aa24a7a760891b81525081565b620001bf620001b936600462001201565b620002b2565b60405190815260200162000101565b620001e5620001df36600462001101565b620002bf565b6040516200010191906200121f565b62000160620002053660046200131e565b620002d4565b62000121620002f3565b620001606200022636600462001101565b620002ff565b620001216200023d36600462001463565b6200030a565b6200012162000254366004620014c7565b62000331565b620001606200026b36600462001519565b62000355565b6000805b92915050565b60606200028762000365565b905090565b62000297816200051c565b620002a28162000565565b50565b60006200027582620005d3565b60006200027582620005fc565b620002c962000faa565b62000275826200062a565b620002e1838383620007c0565b620002ee83838362000802565b505050565b600062000287620008bb565b620002a281620008d9565b60006200031a8585858562000954565b620003288585858562000967565b95945050505050565b60006200034084848462000ab6565b6200034d84848462000b15565b949350505050565b62000361828262000ba6565b5050565b60606200037162000bf9565b600501805480602002602001604051908101604052809291908181526020016000905b82821015620005135783829060005260206000209060030201604051806060016040529081600082018054620003ca906200153c565b80601f0160208091040260200160405190810160405280929190818152602001828054620003f8906200153c565b8015620004495780601f106200041d5761010080835404028352916020019162000449565b820191906000526020600020905b8154815290600101906020018083116200042b57829003601f168201915b505050918352505060018201546001600160a01b031660208201526002820180546040909201916200047b906200153c565b80601f0160208091040260200160405190810160405280929190818152602001828054620004a9906200153c565b8015620004fa5780601f10620004ce57610100808354040283529160200191620004fa565b820191906000526020600020905b815481529060010190602001808311620004dc57829003601f168201915b5050505050815250508152602001906001019062000394565b50505050905090565b6200052662000c1d565b546001600160a01b031633146200055a5760405162461bcd60e51b8152600401620005519062001578565b60405180910390fd5b620002a28162000c41565b62000597816200057462000bf9565b60030180546001600160a01b0319166001600160a01b0392909216919091179055565b7f4703b806ce253ec467a0cec6e96db61459e46d554e98ae0c96e6bffc747e301881604051620005c891906200111b565b60405180910390a150565b6000620005df62000bf9565b60009283526001016020525060409020546001600160a01b031690565b60006200060862000bf9565b6001600160a01b03909216600090815260049290920160205250604090205490565b6200063462000faa565b6200063e62000bf9565b6005018281548110620006555762000655620015af565b906000526020600020906003020160405180606001604052908160008201805462000680906200153c565b80601f0160208091040260200160405190810160405280929190818152602001828054620006ae906200153c565b8015620006ff5780601f10620006d357610100808354040283529160200191620006ff565b820191906000526020600020905b815481529060010190602001808311620006e157829003601f168201915b505050918352505060018201546001600160a01b0316602082015260028201805460409092019162000731906200153c565b80601f01602080910402602001604051908101604052809291908181526020018280546200075f906200153c565b8015620007b05780601f106200078457610100808354040283529160200191620007b0565b820191906000526020600020905b8154815290600101906020018083116200079257829003601f168201915b5050505050815250509050919050565b620007ca62000c1d565b546001600160a01b03163314620007f55760405162461bcd60e51b8152600401620005519062001578565b620002ee83838362000cb4565b6200081c8383836200081362000bf9565b92919062000e31565b620008795760405162461bcd60e51b815260206004820152602660248201527f57616c6c6574466163746f72793a206e6f742061626c6520746f2073746f726560448201526508199858d95d60d21b606482015260840162000551565b7fe3b6747c69e38e1caca5ffefe6d66ff357c95eb855430a1b3cbf7ca88ddcbd47838383604051620008ae93929190620015c5565b60405180910390a1505050565b6000620008c762000bf9565b600301546001600160a01b0316919050565b6000620008e562000bf9565b60008381526020919091526040902054905062000915826200090662000bf9565b60009182526020526040812055565b817f8187100adcd2468151d7572d3d2a17cdb4ab9f7688acaf80ada4bff51aea8ca6826040516200094891815260200190565b60405180910390a25050565b6200096184848462000ab6565b50505050565b60008062000974620008bb565b905060006200098262000365565b905060006200099b6001600160a01b0384168662000f0e565b9050600080826001600160a01b031689858a604051602401620009c19392919062001607565b60408051601f198184030181529181526020820180516001600160e01b031663d93192eb60e01b17905251620009f8919062001683565b6000604051808303816000865af19150503d806000811462000a37576040519150601f19603f3d011682016040523d82523d6000602084013e62000a3c565b606091505b509150915062000a808a8462000a5162000bf9565b6000928352600101602052604090912080546001600160a01b0319166001600160a01b03909216919091179055565b60008051602062005e798339815191528360405162000aa091906200111b565b60405180910390a1509098975050505050505050565b82620002ee5760405162461bcd60e51b815260206004820152602760248201527f57616c6c6574466163746f72793a2068617368496420697320746865207a65726044820152666f2076616c756560c81b606482015260840162000551565b60008062000b2262000365565b9050600084828560405162000b379062000fd4565b62000b459392919062001607565b604051809103906000f08015801562000b62573d6000803e3d6000fd5b50905062000b75868262000a5162000bf9565b60008051602062005e798339815191528160405162000b9591906200111b565b60405180910390a195945050505050565b62000bc6828262000bb662000bf9565b6000928352602052604090912055565b817f01ed7f618889af828fab01d3bf5444c1a4fcadaed129a974e626619fc931d35e826040516200094891815260200190565b7fdceae6d9a41d34d6b97e8286c87108c9b51b397199d7da5eb84a85f46236a23990565b7f8a22373512790c48b83a1fe2efdd2888d4a917bcdc24d0adf63e60f67168046090565b6001600160a01b038116620002a25760405162461bcd60e51b815260206004820152603260248201527f57616c6c6574466163746f72793a204469616d6f6e64206164647265737320696044820152717320746865207a65726f206164647265737360701b606482015260840162000551565b604080516000815260208101808352815190209162000cd69186910162001683565b604051602081830303815290604052805190602001200362000d3a5760405162461bcd60e51b815260206004820152601c60248201527b57616c6c6574466163746f72793a206e616d6520697320656d70747960201b604482015260640162000551565b6001600160a01b03821662000daa5760405162461bcd60e51b815260206004820152602f60248201527f57616c6c6574466163746f72793a20666163657441646472657373206973207460448201526e6865207a65726f206164647265737360881b606482015260840162000551565b604080516000815260208101808352815190209162000dcc9184910162001683565b6040516020818303038152906040528051906020012003620002ee5760405162461bcd60e51b815260206004820152601f60248201527f57616c6c6574466163746f72793a2076657273696f6e20697320656d70747900604482015260640162000551565b60058401546000908162000e47826001620016a1565b604080516060810182528881526001600160a01b03881660208083019190915291810187905260058a0180546001810182556000918252908390208251805195965092946003909202019262000ea292849291019062000fe2565b506020828101516001830180546001600160a01b0319166001600160a01b039092169190911790556040830151805162000ee3926002850192019062000fe2565b5050506001600160a01b03851660009081526004880160205260409020555060019050949350505050565b6000604051733d602d80600a3d3981f3363d3d373d3d3d363d7360601b81528360601b60148201526e5af43d82803e903d91602b57fd5bf360881b6028820152826037826000f59150506001600160a01b038116620002755760405162461bcd60e51b8152602060048201526017602482015276115490cc4c4d8dce8818dc99585d194c8819985a5b1959604a1b604482015260640162000551565b60405180606001604052806060815260200160006001600160a01b03168152602001606081525090565b6147b080620016c983390190565b82805462000ff0906200153c565b90600052602060002090601f0160209004810192826200101457600085556200105f565b82601f106200102f57805160ff19168380011785556200105f565b828001600101855582156200105f579182015b828111156200105f57825182559160200191906001019062001042565b506200106d92915062001071565b5090565b5b808211156200106d576000815560010162001072565b60005b83811015620010a55781810151838201526020016200108b565b83811115620009615750506000910152565b60008151808452620010d181602086016020860162001088565b601f01601f19169290920160200192915050565b602081526000620010fa6020830184620010b7565b9392505050565b6000602082840312156200111457600080fd5b5035919050565b6001600160a01b0391909116815260200190565b6000815160608452620011466060850182620010b7565b905060018060a01b03602084015116602085015260408301518482036040860152620003288282620010b7565b600082825180855260208086019550808260051b84010181860160005b84811015620011c257601f19868403018952620011af8383516200112f565b9884019892509083019060010162001190565b5090979650505050505050565b602081526000620010fa602083018462001173565b80356001600160a01b0381168114620011fc57600080fd5b919050565b6000602082840312156200121457600080fd5b620010fa82620011e4565b602081526000620010fa60208301846200112f565b634e487b7160e01b600052604160045260246000fd5b604080519081016001600160401b03811182821017156200126f576200126f62001234565b60405290565b604051601f8201601f191681016001600160401b0381118282101715620012a057620012a062001234565b604052919050565b600082601f830112620012ba57600080fd5b81356001600160401b03811115620012d657620012d662001234565b620012eb601f8201601f191660200162001275565b8181528460208386010111156200130157600080fd5b816020850160208301376000918101602001919091529392505050565b6000806000606084860312156200133457600080fd5b83356001600160401b03808211156200134c57600080fd5b6200135a87838801620012a8565b94506200136a60208701620011e4565b935060408601359150808211156200138157600080fd5b506200139086828701620012a8565b9150509250925092565b600082601f830112620013ac57600080fd5b813560206001600160401b03821115620013ca57620013ca62001234565b620013da818360051b0162001275565b82815260069290921b84018101918181019086841115620013fa57600080fd5b8286015b84811015620014585760408189031215620014195760008081fd5b620014236200124a565b813560ff81168114620014365760008081fd5b815262001445828601620011e4565b81860152835291830191604001620013fe565b509695505050505050565b600080600080608085870312156200147a57600080fd5b843593506200148c60208601620011e4565b925060408501356001600160401b03811115620014a857600080fd5b620014b6878288016200139a565b949793965093946060013593505050565b600080600060608486031215620014dd57600080fd5b83359250620014ef60208501620011e4565b915060408401356001600160401b038111156200150b57600080fd5b62001390868287016200139a565b600080604083850312156200152d57600080fd5b50508035926020909101359150565b600181811c908216806200155157607f821691505b6020821081036200157257634e487b7160e01b600052602260045260246000fd5b50919050565b6020808252601d908201527f4f776e61626c653a2073656e646572206d757374206265206f776e6572000000604082015260600190565b634e487b7160e01b600052603260045260246000fd5b606081526000620015da6060830186620010b7565b6001600160a01b03851660208401528281036040840152620015fd8185620010b7565b9695505050505050565b600060018060a01b03808616835260206060818501526200162c606085018762001173565b84810360408681019190915286518083528388019284019060005b8181101562001673578451805160ff168452860151871686840152938501939183019160010162001647565b50909a9950505050505050505050565b600082516200169781846020870162001088565b9190910192915050565b60008219821115620016c357634e487b7160e01b600052601160045260246000fd5b50019056fe60806040523480156200001157600080fd5b50604051620047b0380380620047b0833981016040819052620000349162002474565b6001600160a01b038316620000a35760405162461bcd60e51b815260206004820152602a60248201527f5a6b57616c6c65744469616d6f6e643a206f776e657220697320746865207a65604482015269726f206164647265737360b01b60648201526084015b60405180910390fd5b620000ae83620000cd565b620000b981620000db565b620000c4826200019c565b5050506200282a565b620000d881620012b9565b50565b60005b81518160ff1610156200019857818160ff1681518110620001035762000103620025de565b60200260200101516020015162000124620016fd60201b62000d201760201c565b6000016000848460ff1681518110620001415762000141620025de565b60200260200101516000015160ff16815260200190815260200160002060006101000a8154816001600160a01b0302191690836001600160a01b0316021790555080806200018f906200260a565b915050620000de565b5050565b60005b815181101562000198576000828281518110620001c057620001c0620025de565b60200260200101516000015190506000838381518110620001e557620001e5620025de565b602002602001015160200151905060405160200162000217906c11dd585c991a585b919858d95d609a1b8152600d0190565b60405160208183030381529060405280519060200120826040516020016200024091906200262c565b60405160208183030381529060405280519060200120036200058857604080516001808252818301909252600091816020015b6200027d62002222565b8152602001906001900390816200027357505060408051600a8082526101608201909252919250600091906020820161014080368337019050509050639872581960e01b81600081518110620002d757620002d7620025de565b6001600160e01b031990921660209283029190910190910152805163a7ba59f160e01b9082906001908110620003115762000311620025de565b6001600160e01b031990921660209283029190910190910152805163f5a857ff60e01b90829060029081106200034b576200034b620025de565b6001600160e01b031990921660209283029190910190910152805163b79edce760e01b9082906003908110620003855762000385620025de565b6001600160e01b0319909216602092830291909101909101528051634cc499d760e01b9082906004908110620003bf57620003bf620025de565b6001600160e01b031990921660209283029190910190910152805162081ad160e61b9082906005908110620003f857620003f8620025de565b6001600160e01b031990921660209283029190910190910152805163c3b9d44f60e01b9082906006908110620004325762000432620025de565b6001600160e01b03199092166020928302919091019091015280516305b9e53360e01b90829060079081106200046c576200046c620025de565b6001600160e01b0319909216602092830291909101909101528051632a70cedd60e21b9082906008908110620004a657620004a6620025de565b6001600160e01b031990921660209283029190910190910152805163a4a9ba7360e01b9082906009908110620004e057620004e0620025de565b6001600160e01b031990921660209283029190910182015260408051606081019091526001600160a01b0385168152908101600081526020018281525082600081518110620005335762000533620025de565b602002602001018190525062000580826000604051806020016040528060008152506200056a6200172160201b62000d441760201c565b6200174560201b62000d5617909392919060201c565b5050620012a1565b6040517f53656d6170686f726547726f757073466163657400000000000000000000000060208201526034016040516020818303038152906040528051906020012082604051602001620005dd91906200262c565b60405160208183030381529060405280519060200120036200087e57604080516001808252818301909252600091816020015b6200061a62002222565b8152602001906001900390816200061057505060408051600a80825261016082019092529192506000919060208201610140803683370190505090506371749b3d60e01b81600081518110620006745762000674620025de565b6001600160e01b03199092166020928302919091019091015280516309b24b3b60e41b9082906001908110620006ae57620006ae620025de565b6001600160e01b03199092166020928302919091019091015280516375e618c960e01b9082906002908110620006e857620006e8620025de565b6001600160e01b031990921660209283029190910190910152805163b9c78c2b60e01b9082906003908110620007225762000722620025de565b6001600160e01b0319909216602092830291909101909101528051632a65872560e21b90829060049081106200075c576200075c620025de565b6001600160e01b0319909216602092830291909101909101528051630e2bec6560e11b9082906005908110620007965762000796620025de565b6001600160e01b0319909216602092830291909101909101528051632b47741360e11b9082906006908110620007d057620007d0620025de565b6001600160e01b0319909216602092830291909101909101528051630424537160e01b90829060079081106200080a576200080a620025de565b6001600160e01b03199092166020928302919091019091015280516343989f8560e01b9082906008908110620008445762000844620025de565b6001600160e01b0319909216602092830291909101909101528051631783efc360e01b9082906009908110620004e057620004e0620025de565b6040516c149958dbdd995c9e519858d95d609a1b6020820152602d016040516020818303038152906040528051906020012082604051602001620008c391906200262c565b604051602081830303815290604052805190602001200362000ab557604080516001808252818301909252600091816020015b6200090062002222565b815260200190600190039081620008f65750506040805160078082526101008201909252919250600091906020820160e08036833701905050905063fca46d2660e01b81600081518110620009595762000959620025de565b6001600160e01b031990921660209283029190910190910152805163f021158160e01b9082906001908110620009935762000993620025de565b6001600160e01b0319909216602092830291909101909101528051630493e36760e21b9082906002908110620009cd57620009cd620025de565b6001600160e01b0319909216602092830291909101909101528051632a7906ad60e21b908290600390811062000a075762000a07620025de565b6001600160e01b031990921660209283029190910190910152805163f79c8b7760e01b908290600490811062000a415762000a41620025de565b6001600160e01b03199092166020928302919091019091015280516327e6ea8b60e11b908290600590811062000a7b5762000a7b620025de565b6001600160e01b0319909216602092830291909101909101528051632e0c20ff60e01b9082906006908110620004e057620004e0620025de565b60405170115490cc8c14d95c9d9a58d9519858d95d607a1b6020820152603101604051602081830303815290604052805190602001208260405160200162000afe91906200262c565b604051602081830303815290604052805190602001200362000d6457604080516001808252818301909252600091816020015b62000b3b62002222565b81526020019060019003908162000b31575050604080516009808252610140820190925291925060009190602082016101208036833701905050905063ebe2001560e01b8160008151811062000b955762000b95620025de565b6001600160e01b0319909216602092830291909101909101528051632137b20f60e01b908290600190811062000bcf5762000bcf620025de565b6001600160e01b031990921660209283029190910190910152805163d93db24f60e01b908290600290811062000c095762000c09620025de565b6001600160e01b031990921660209283029190910190910152805163276d76f960e21b908290600390811062000c435762000c43620025de565b6001600160e01b03199092166020928302919091019091015280516307940ee760e01b908290600490811062000c7d5762000c7d620025de565b6001600160e01b0319909216602092830291909101909101528051635472f25560e11b908290600590811062000cb75762000cb7620025de565b6001600160e01b031990921660209283029190910190910152805162eee04360e61b908290600690811062000cf05762000cf0620025de565b6001600160e01b031990921660209283029190910190910152805163533baae160e11b908290600790811062000d2a5762000d2a620025de565b6001600160e01b0319909216602092830291909101909101528051634bff5c9360e11b9082906008908110620004e057620004e0620025de565b60405171115490cdcc8c54d95c9d9a58d9519858d95d60721b6020820152603201604051602081830303815290604052805190602001208260405160200162000dae91906200262c565b6040516020818303038152906040528051906020012003620010c257604080516001808252818301909252600091816020015b62000deb62002222565b81526020019060019003908162000de157505060408051600c8082526101a08201909252919250600091906020820161018080368337019050509050636492339d60e01b8160008151811062000e455762000e45620025de565b6001600160e01b0319909216602092830291909101909101528051630a85bd0160e11b908290600190811062000e7f5762000e7f620025de565b6001600160e01b031990921660209283029190910190910152805163eb73e7ff60e01b908290600290811062000eb95762000eb9620025de565b6001600160e01b0319909216602092830291909101909101528051635020ac7760e01b908290600390811062000ef35762000ef3620025de565b6001600160e01b0319909216602092830291909101909101528051632347931160e11b908290600490811062000f2d5762000f2d620025de565b6001600160e01b03199092166020928302919091019091015280516304e9114960e41b908290600590811062000f675762000f67620025de565b6001600160e01b0319909216602092830291909101909101528051630d6531bb60e11b908290600690811062000fa15762000fa1620025de565b6001600160e01b031990921660209283029190910190910152805163e8023c3760e01b908290600790811062000fdb5762000fdb620025de565b6001600160e01b03199092166020928302919091019091015280516253918560e11b9082906008908110620010145762001014620025de565b6001600160e01b031990921660209283029190910190910152805163b689876b60e01b90829060099081106200104e576200104e620025de565b6001600160e01b0319909216602092830291909101909101528051633af6bb8160e11b908290600a908110620010885762001088620025de565b6001600160e01b031990921660209283029190910190910152805163694d25fb60e11b908290600b908110620004e057620004e0620025de565b60405170115d1a195c94d95c9d9a58d9519858d95d607a1b602082015260310160405160208183030381529060405280519060200120826040516020016200110b91906200262c565b6040516020818303038152906040528051906020012003620012a157604080516001808252818301909252600091816020015b6200114862002222565b8152602001906001900390816200113e5750506040805160038082526080820190925291925060009190602082016060803683370190505090506305b1137b60e01b81600081518110620011a057620011a0620025de565b6001600160e01b0319909216602092830291909101909101528051630edec44760e31b9082906001908110620011da57620011da620025de565b6001600160e01b03199092166020928302919091019091015280516375230c9f60e11b9082906002908110620012145762001214620025de565b6001600160e01b031990921660209283029190910182015260408051606081019091526001600160a01b0385168152908101600081526020018281525082600081518110620012675762001267620025de565b60200260200101819052506200129e826000604051806020016040528060008152506200056a6200172160201b62000d441760201c565b50505b50508080620012b09062002660565b9150506200019f565b6000620012d06200197160201b62000f321760201c565b60408051600c8082526101a08201909252919250600091906020820161018080368337019050509050631f931c1c60e01b81600081518110620013175762001317620025de565b6001600160e01b0319909216602092830291909101820152620013519083906307e4c70760e21b9060019062000f5662001995821b17901c565b637a0ed62760e01b816001815181106200136f576200136f620025de565b6001600160e01b03199092166020928302919091019091015280516356fe50af60e11b9082906002908110620013a957620013a9620025de565b6001600160e01b03199092166020928302919091019091015280516314bbdacb60e21b9082906003908110620013e357620013e3620025de565b6001600160e01b03199092166020928302919091019091015280516366ffd66360e11b90829060049081106200141d576200141d620025de565b6001600160e01b0319909216602092830291909101820152620014579083906348e2b09360e01b9060019062000f5662001995821b17901c565b6301ffc9a760e01b81600581518110620014755762001475620025de565b6001600160e01b0319909216602092830291909101820152620014af9083906301ffc9a760e01b9060019062000f5662001995821b17901c565b638da5cb5b60e01b81600681518110620014cd57620014cd620025de565b6001600160e01b031990921660209283029190910190910152805163455a8a8560e11b9082906007908110620015075762001507620025de565b6001600160e01b031990921660209283029190910190910152805163f2fde38b60e01b9082906008908110620015415762001541620025de565b6001600160e01b03199092166020928302919091019091015280516379ba509760e01b90829060099081106200157b576200157b620025de565b6001600160e01b0319909216602092830291909101820152620015b59083906307f5828d60e41b9060019062000f5662001995821b17901c565b632c40805960e01b81600a81518110620015d357620015d3620025de565b6001600160e01b0319909216602092830291909101909101528051639142376560e01b908290600b9081106200160d576200160d620025de565b6001600160e01b03199290921660209283029190910190910152604080516001808252818301909252600091816020015b6200164862002222565b8152602001906001900390816200163e57905050604080516060810190915230815290915060208101600081526020018381525081600081518110620016925762001692620025de565b6020026020010181905250620016c9816000604051806020016040528060008152506200056a6200172160201b62000d441760201c565b620016f784620016e362001a1f60201b62000fdd1760201c565b62001a4360201b620010011790919060201c565b50505050565b7f1fd5ae9b688ff1e92cea024147bd3c60ba20584ed7225a597f53b9dde63d587e90565b7f177481ac65e4292921c69f62d1cc7f57541261e5d61c8175cf4e36a01c9bfc9390565b600184015461ffff811690819060009060071615620017765750600381901c60009081526002870160205260409020545b60005b8651811015620018df5760008782815181106200179a576200179a620025de565b60200260200101519050600081602001519050600082604001515111620018105760405162461bcd60e51b815260206004820152602360248201527f4469616d6f6e64426173653a206e6f2073656c6563746f7273207370656369666044820152621a595960ea1b60648201526084016200009a565b60008160028111156200182757620018276200264a565b0362001856576200184b8585848d62001a6060201b6200101e17909392919060201c565b9095509350620018d4565b60018160028111156200186d576200186d6200264a565b0362001893576200188d828b62001c3260201b620011d11790919060201c565b620018d4565b6002816002811115620018aa57620018aa6200264a565b03620018d457620018ce8585848d62001e1b60201b6200139417909392919060201c565b90955093505b505060010162001779565b50828214620018fc5760018701805461ffff191661ffff84161790555b60078216156200191f57600382901c600090815260028801602052604090208190555b7f8faa70878671ccd212d20771b795c50af8fd3ff6cf27f4bde57e5d4de0aeb6738686866040516200195493929190620026aa565b60405180910390a162001968858562002091565b50505050505050565b7f326d0c59a7612f6a9919e2a8ee333c80ba689d8ba2634de89c85cbb04832e70590565b6001600160e01b03198083169003620019f15760405162461bcd60e51b815260206004820152601c60248201527f4552433136353a20696e76616c696420696e746572666163652069640000000060448201526064016200009a565b6001600160e01b03199190911660009081526020929092526040909120805460ff1916911515919091179055565b7f8a22373512790c48b83a1fe2efdd2888d4a917bcdc24d0adf63e60f67168046090565b81546001600160a01b0319166001600160a01b0391909116179055565b805160009081906001600160a01b031630148062001a9c575062001a9c83600001516001600160a01b03166200221c60201b620003c71760201c565b62001af65760405162461bcd60e51b815260206004820152602360248201527f4469616d6f6e64426173653a204144442074617267657420686173206e6f20636044820152626f646560e81b60648201526084016200009a565b60005b83604001515181101562001c255760008460400151828151811062001b225762001b22620025de565b6020908102919091018101516001600160e01b031981166000908152918a9052604090912054909150606081901c1562001bab5760405162461bcd60e51b815260206004820152602360248201527f4469616d6f6e64426173653a2073656c6563746f7220616c726561647920616460448201526219195960ea1b60648201526084016200009a565b85516001600160e01b0319838116600081815260208d90526040902060609390931b6001600160601b0319168b1790925560058a901b60e090811692831c91831c1999909916179781900362001c1557600389901c600090815260028b0160205260408120989098555b5050506001958601950162001af9565b5093959294509192505050565b62001c5581600001516001600160a01b03166200221c60201b620003c71760201c565b62001cb35760405162461bcd60e51b815260206004820152602760248201527f4469616d6f6e64426173653a205245504c4143452074617267657420686173206044820152666e6f20636f646560c81b60648201526084016200009a565b60005b81604001515181101562001e165760008260400151828151811062001cdf5762001cdf620025de565b6020908102919091018101516001600160e01b03198116600090815291869052604090912054909150606081901c8062001d2d5760405162461bcd60e51b81526004016200009a90620027b1565b306001600160a01b0382160362001d585760405162461bcd60e51b81526004016200009a90620027e8565b84600001516001600160a01b0316816001600160a01b03160362001dd05760405162461bcd60e51b815260206004820152602860248201527f4469616d6f6e64426173653a205245504c41434520746172676574206973206960448201526719195b9d1a58d85b60c21b60648201526084016200009a565b5083516001600160e01b031992909216600090815260208690526040902060609290921b6001600160601b0319166001600160601b039190911617905560010162001cb6565b505050565b805160009081906001600160a01b03161562001e925760405162461bcd60e51b815260206004820152602f60248201527f4469616d6f6e64426173653a2052454d4f564520746172676574206d7573742060448201526e6265207a65726f206164647265737360881b60648201526084016200009a565b600385901c6007861660005b8560400151518110156200207d5760008660400151828151811062001ec75762001ec7620025de565b6020908102919091018101516001600160e01b031981166000908152918c9052604090912054909150606081901c62001f145760405162461bcd60e51b81526004016200009a90620027b1565b30606082901c0362001f3a5760405162461bcd60e51b81526004016200009a90620027e8565b600089900362001f6857600019909401600081815260028c0160205260409020549850936007935062001f70565b600019909301925b600584901b89901b6000806001600160e01b03198084169086161462001fc3576001600160e01b03198316600090815260208f90526040902080546001600160601b0319166001600160601b0386161790555b50506001600160e01b03198316600090815260208d90526040812055611fff600383901c1660e0600584901b168782146200202857600082815260028f016020526040902080546001600160e01b031980841c19909116908516831c1790556200204c565b80836001600160e01b031916901c816001600160e01b031960001b901c198d16179b505b866000036200206b57600088815260028f01602052604081208190559b505b50506001909301925062001e9e915050565b5060039190911b1796939550929350505050565b8051156001600160a01b0383161514620021055760405162461bcd60e51b815260206004820152602e60248201527f4469616d6f6e64426173653a20696e76616c696420696e697469616c697a617460448201526d696f6e20706172616d657465727360901b60648201526084016200009a565b6001600160a01b0382161562000198576001600160a01b0382163014620021aa5762002145826001600160a01b03166200221c60201b620003c71760201c565b620021aa5760405162461bcd60e51b815260206004820152602e60248201527f4469616d6f6e64426173653a20696e697469616c697a6174696f6e207461726760448201526d657420686173206e6f20636f646560901b60648201526084016200009a565b6000826001600160a01b031682604051620021c691906200262c565b600060405180830381855af49150503d806000811462002203576040519150601f19603f3d011682016040523d82523d6000602084013e62002208565b606091505b505090508062001e16573d6000803e3d6000fd5b3b151590565b6040805160608082018352600080835260208301529181019190915290565b80516001600160a01b03811681146200225957600080fd5b919050565b634e487b7160e01b600052604160045260246000fd5b604080519081016001600160401b03811182821017156200229957620022996200225e565b60405290565b604051606081016001600160401b03811182821017156200229957620022996200225e565b604051601f8201601f191681016001600160401b0381118282101715620022ef57620022ef6200225e565b604052919050565b60006001600160401b038211156200231357620023136200225e565b5060051b60200190565b60005b838110156200233a57818101518382015260200162002320565b83811115620016f75750506000910152565b600082601f8301126200235e57600080fd5b81516001600160401b038111156200237a576200237a6200225e565b6200238f601f8201601f1916602001620022c4565b818152846020838601011115620023a557600080fd5b620023b88260208301602087016200231d565b949350505050565b600082601f830112620023d257600080fd5b81516020620023eb620023e583620022f7565b620022c4565b82815260069290921b840181019181810190868411156200240b57600080fd5b8286015b848110156200246957604081890312156200242a5760008081fd5b6200243462002274565b815160ff81168114620024475760008081fd5b81526200245682860162002241565b818601528352918301916040016200240f565b509695505050505050565b6000806000606084860312156200248a57600080fd5b620024958462002241565b602085810151919450906001600160401b0380821115620024b557600080fd5b818701915087601f830112620024ca57600080fd5b8151620024db620023e582620022f7565b81815260059190911b8301840190848101908a831115620024fb57600080fd5b8585015b83811015620025a9578051858111156200251857600080fd5b86016060818e03601f190112156200252f57600080fd5b620025396200229f565b88820151878111156200254b57600080fd5b6200255b8f8b838601016200234c565b8252506200256c6040830162002241565b89820152606082015187811115620025845760008081fd5b620025948f8b838601016200234c565b604083015250845250918601918601620024ff565b5060408a01519097509450505080831115620025c457600080fd5b5050620025d486828701620023c0565b9150509250925092565b634e487b7160e01b600052603260045260246000fd5b634e487b7160e01b600052601160045260246000fd5b600060ff821660ff8103620026235762002623620025f4565b60010192915050565b60008251620026408184602087016200231d565b9190910192915050565b634e487b7160e01b600052602160045260246000fd5b600060018201620026755762002675620025f4565b5060010190565b60008151808452620026968160208601602086016200231d565b601f01601f19169290920160200192915050565b60006060808301818452808751808352608092508286019150828160051b8701016020808b0160005b848110156200277f57898403607f19018652815180516001600160a01b031685528381015189860190600381106200271b57634e487b7160e01b600052602160045260246000fd5b868601526040918201519186018a905281519081905290840190600090898701905b80831015620027695783516001600160e01b03191682529286019260019290920191908601906200273d565b50978501979550505090820190600101620026d3565b50506001600160a01b038a16908801528681036040880152620027a381896200267c565b9a9950505050505050505050565b6020808252601f908201527f4469616d6f6e64426173653a2073656c6563746f72206e6f7420666f756e6400604082015260600190565b60208082526022908201527f4469616d6f6e64426173653a2073656c6563746f7220697320696d6d757461626040820152616c6560f01b606082015260800190565b611f76806200283a6000396000f3fe6080604052600436106100a65760003560e01c806301ffc9a71461014a5780631f931c1c1461017f5780632c4080591461019f57806352ef6b2c146101cc57806354fd4d50146101ee57806379ba5097146102285780637a0ed6271461023d5780638ab5150a1461025f5780638da5cb5b146102745780639142376514610289578063adfca15e146102a9578063cdffacc6146102d6578063f2fde38b146102f6576100ad565b366100ad57005b60006100b7610316565b90506001600160a01b0381163b6101245760405162461bcd60e51b815260206004820152602660248201527f50726f78793a20696d706c656d656e746174696f6e206d75737420626520636f6044820152651b9d1c9858dd60d21b60648201526084015b60405180910390fd5b3660008037600080366000845af43d6000803e808015610143573d6000f35b3d6000fd5b005b34801561015657600080fd5b5061016a610165366004611847565b6103cd565b60405190151581526020015b60405180910390f35b34801561018b57600080fd5b5061014861019a3660046118c1565b610402565b3480156101ab57600080fd5b506101b461048f565b6040516001600160a01b039091168152602001610176565b3480156101d857600080fd5b506101e16104ab565b6040516101769190611972565b3480156101fa57600080fd5b50604080518082018252600b81526a302e312e302e616c70686160a81b602082015290516101769190611a1b565b34801561023457600080fd5b5061014861064d565b34801561024957600080fd5b506102526106d1565b6040516101769190611a73565b34801561026b57600080fd5b506101b4610af6565b34801561028057600080fd5b506101b4610b05565b34801561029557600080fd5b506101486102a4366004611af0565b610b0f565b3480156102b557600080fd5b506102c96102c4366004611af0565b610b6c565b6040516101769190611b0b565b3480156102e257600080fd5b506101b46102f1366004611847565b610cb7565b34801561030257600080fd5b50610148610311366004611af0565b610ce4565b600080356001600160e01b0319168152600080516020611f2183398151915260208190526040822054819060601c806103c0575060038201546001600160a01b0316806103c05760405162461bcd60e51b815260206004820152603260248201527f4469616d6f6e64426173653a206e6f20666163657420666f756e6420666f722060448201527166756e6374696f6e207369676e617475726560701b606482015260840161011b565b9392505050565b3b151590565b60006103fc826103db610f32565b906001600160e01b0319166000908152602091909152604090205460ff1690565b92915050565b61040a610fdd565b546001600160a01b031633146104325760405162461bcd60e51b815260040161011b90611b4d565b61048861043f8587611c15565b8484848080601f0160208091040260200160405190810160405280939291908181526020018383808284376000920191909152506104809250610d44915050565b929190610d56565b5050505050565b6000610499610d44565b600301546001600160a01b0316919050565b606060006104b7610d44565b600181015490915061ffff166001600160401b038111156104da576104da611b84565b604051908082528060200260200182016040528015610503578160200160208202803683370190505b50915060008060005b600184015461ffff16821015610645576000818152600285016020526040812054905b6008811015610630578361054281611d5e565b600188015490955061ffff168511905061063057600581901b82901b6001600160e01b0319811660009081526020889052604081205460601c90805b888110156105d3578a818151811061059857610598611d77565b60200260200101516001600160a01b0316836001600160a01b0316036105c157600191506105d3565b806105cb81611d5e565b91505061057e565b5080156105e25750505061061e565b818a89815181106105f5576105f5611d77565b6001600160a01b03909216602092830291909101909101528761061781611d5e565b9850505050505b8061062881611d5e565b91505061052f565b5050808061063d90611d5e565b91505061050c565b505082525090565b6106556115f7565b6001600160a01b0316336001600160a01b0316146106c75760405162461bcd60e51b815260206004820152602960248201527f536166654f776e61626c653a2073656e646572206d757374206265206e6f6d696044820152683732b29037bbb732b960b91b606482015260840161011b565b6106cf611610565b565b606060006106dd610d44565b600181015490915061ffff166001600160401b0381111561070057610700611b84565b60405190808252806020026020018201604052801561074657816020015b60408051808201909152600081526060602082015281526020019060019003908161071e5790505b50600182015490925060009061ffff166001600160401b0381111561076d5761076d611b84565b604051908082528060200260200182016040528015610796578160200160208202803683370190505b50905060008060005b600185015461ffff16821015610a84576000818152600286016020526040812054905b6008811015610a6f57836107d581611d5e565b600189015490955061ffff1685119050610a6f57600581901b82901b6001600160e01b0319811660009081526020899052604081205460601c90805b8881101561092e57826001600160a01b03168c828151811061083557610835611d77565b6020026020010151600001516001600160a01b03160361091c57838c828151811061086257610862611d77565b6020026020010151602001518b838151811061088057610880611d77565b602002602001015160ff168151811061089b5761089b611d77565b60200260200101906001600160e01b03191690816001600160e01b0319168152505060ff8a82815181106108d1576108d1611d77565b602002602001015160ff16106108e657600080fd5b8981815181106108f8576108f8611d77565b60200260200101805180919061090d90611d8d565b60ff169052506001915061092e565b8061092681611d5e565b915050610811565b50801561093d57505050610a5d565b818b898151811061095057610950611d77565b60209081029190910101516001600160a01b03909116905260018a015461ffff166001600160401b0381111561098857610988611b84565b6040519080825280602002602001820160405280156109b1578160200160208202803683370190505b508b89815181106109c4576109c4611d77565b602002602001015160200181905250828b89815181106109e6576109e6611d77565b602002602001015160200151600081518110610a0457610a04611d77565b60200260200101906001600160e01b03191690816001600160e01b031916815250506001898981518110610a3a57610a3a611d77565b60ff9092166020928302919091019091015287610a5681611d5e565b9850505050505b80610a6781611d5e565b9150506107c2565b50508080610a7c90611d5e565b91505061079f565b5060005b82811015610aeb576000848281518110610aa457610aa4611d77565b602002602001015160ff1690506000878381518110610ac557610ac5611d77565b602002602001015160200151905081815250508080610ae390611d5e565b915050610a88565b508185525050505090565b6000610b006115f7565b905090565b6000610b00611673565b610b17610fdd565b546001600160a01b03163314610b3f5760405162461bcd60e51b815260040161011b90611b4d565b80610b48610d44565b60030180546001600160a01b0319166001600160a01b039290921691909117905550565b60606000610b78610d44565b600181015490915061ffff166001600160401b03811115610b9b57610b9b611b84565b604051908082528060200260200182016040528015610bc4578160200160208202803683370190505b50915060008060005b600184015461ffff16821015610cad576000818152600285016020526040812054905b6008811015610c985783610c0381611d5e565b600188015490955061ffff1685119050610c9857600581901b82901b6001600160e01b0319811660009081526020889052604090205460601c6001600160a01b038a1603610c855780888781518110610c5e57610c5e611d77565b6001600160e01b03199092166020928302919091019091015285610c8181611d5e565b9650505b5080610c9081611d5e565b915050610bf0565b50508080610ca590611d5e565b915050610bcd565b5050825250919050565b6000610cc1610d44565b6001600160e01b0319909216600090815260209290925250604090205460601c90565b610cec610fdd565b546001600160a01b03163314610d145760405162461bcd60e51b815260040161011b90611b4d565b610d1d8161167d565b50565b7f1fd5ae9b688ff1e92cea024147bd3c60ba20584ed7225a597f53b9dde63d587e90565b600080516020611f2183398151915290565b600184015461ffff811690819060009060071615610d865750600381901c60009081526002870160205260409020545b60005b8651811015610ea6576000878281518110610da657610da6611d77565b60200260200101519050600081602001519050600082604001515111610e1a5760405162461bcd60e51b815260206004820152602360248201527f4469616d6f6e64426173653a206e6f2073656c6563746f7273207370656369666044820152621a595960ea1b606482015260840161011b565b6000816002811115610e2e57610e2e611dac565b03610e4957610e3f8a86868561101e565b9095509350610e9c565b6001816002811115610e5d57610e5d611dac565b03610e7157610e6c8a836111d1565b610e9c565b6002816002811115610e8557610e85611dac565b03610e9c57610e968a868685611394565b90955093505b5050600101610d89565b50828214610ec25760018701805461ffff191661ffff84161790555b6007821615610ee457600382901c600090815260028801602052604090208190555b7f8faa70878671ccd212d20771b795c50af8fd3ff6cf27f4bde57e5d4de0aeb673868686604051610f1793929190611dc2565b60405180910390a1610f298585611686565b50505050505050565b7f326d0c59a7612f6a9919e2a8ee333c80ba689d8ba2634de89c85cbb04832e70590565b6001600160e01b03198083169003610faf5760405162461bcd60e51b815260206004820152601c60248201527b115490cc4d8d4e881a5b9d985b1a59081a5b9d195c999858d9481a5960221b604482015260640161011b565b6001600160e01b03199190911660009081526020929092526040909120805460ff1916911515919091179055565b7f8a22373512790c48b83a1fe2efdd2888d4a917bcdc24d0adf63e60f67168046090565b81546001600160a01b0319166001600160a01b0391909116179055565b805160009081906001600160a01b0316301480611045575082516001600160a01b03163b15155b61109d5760405162461bcd60e51b815260206004820152602360248201527f4469616d6f6e64426173653a204144442074617267657420686173206e6f20636044820152626f646560e81b606482015260840161011b565b60005b8360400151518110156111c4576000846040015182815181106110c5576110c5611d77565b6020908102919091018101516001600160e01b031981166000908152918a9052604090912054909150606081901c1561114c5760405162461bcd60e51b815260206004820152602360248201527f4469616d6f6e64426173653a2073656c6563746f7220616c726561647920616460448201526219195960ea1b606482015260840161011b565b85516001600160e01b0319838116600081815260208d90526040902060609390931b6001600160601b0319168b1790925560058a901b60e090811692831c91831c199990991617978190036111b557600389901c600090815260028b0160205260408120989098555b505050600195860195016110a0565b5093959294509192505050565b80516001600160a01b03163b6112395760405162461bcd60e51b815260206004820152602760248201527f4469616d6f6e64426173653a205245504c4143452074617267657420686173206044820152666e6f20636f646560c81b606482015260840161011b565b60005b81604001515181101561138f5760008260400151828151811061126157611261611d77565b6020908102919091018101516001600160e01b03198116600090815291869052604090912054909150606081901c806112ac5760405162461bcd60e51b815260040161011b90611e8b565b306001600160a01b038216036112d45760405162461bcd60e51b815260040161011b90611ec2565b84600001516001600160a01b0316816001600160a01b03160361134a5760405162461bcd60e51b815260206004820152602860248201527f4469616d6f6e64426173653a205245504c41434520746172676574206973206960448201526719195b9d1a58d85b60c21b606482015260840161011b565b5083516001600160e01b031992909216600090815260208690526040902060609290921b6001600160601b0319166001600160601b039190911617905560010161123c565b505050565b805160009081906001600160a01b0316156114095760405162461bcd60e51b815260206004820152602f60248201527f4469616d6f6e64426173653a2052454d4f564520746172676574206d7573742060448201526e6265207a65726f206164647265737360881b606482015260840161011b565b600385901c6007861660005b8560400151518110156115e35760008660400151828151811061143a5761143a611d77565b6020908102919091018101516001600160e01b031981166000908152918c9052604090912054909150606081901c6114845760405162461bcd60e51b815260040161011b90611e8b565b30606082901c036114a75760405162461bcd60e51b815260040161011b90611ec2565b60008990036114d357600019909401600081815260028c016020526040902054985093600793506114db565b600019909301925b600584901b89901b6000806001600160e01b03198084169086161461152d576001600160e01b03198316600090815260208f90526040902080546001600160601b0319166001600160601b0386161790555b50506001600160e01b03198316600090815260208d90526040812055611fff600383901c1660e0600584901b1687821461159057600082815260028f016020526040902080546001600160e01b031980841c19909116908516831c1790556115b4565b80836001600160e01b031916901c816001600160e01b031960001b901c198d16179b505b866000036115d257600088815260028f01602052604081208190559b505b505060019093019250611415915050565b5060039190911b1796939550929350505050565b60006116016117f6565b546001600160a01b0316919050565b600061161a610fdd565b805460405191925033916001600160a01b03909116907f8be0079c531659141344cd1fd0a4f28419497f9722a3daafe3b4186f6b6457e090600090a36116608133611001565b610d1d600061166d6117f6565b90611001565b6000611601610fdd565b610d1d8161181a565b8051156001600160a01b03831615146116f85760405162461bcd60e51b815260206004820152602e60248201527f4469616d6f6e64426173653a20696e76616c696420696e697469616c697a617460448201526d696f6e20706172616d657465727360901b606482015260840161011b565b6001600160a01b038216156117f2576001600160a01b0382163014611785576001600160a01b0382163b6117855760405162461bcd60e51b815260206004820152602e60248201527f4469616d6f6e64426173653a20696e697469616c697a6174696f6e207461726760448201526d657420686173206e6f20636f646560901b606482015260840161011b565b6000826001600160a01b03168260405161179f9190611f04565b600060405180830381855af49150503d80600081146117da576040519150601f19603f3d011682016040523d82523d6000602084013e6117df565b606091505b505090508061138f573d6000803e3d6000fd5b5050565b7f24aa1f7b31fd188a8d3ecfb06bc55c806040e59b03bd4396283442fce661789090565b610d1d81610d1d8161166d6117f6565b80356001600160e01b03198116811461184257600080fd5b919050565b60006020828403121561185957600080fd5b6103c08261182a565b80356001600160a01b038116811461184257600080fd5b60008083601f84011261188b57600080fd5b5081356001600160401b038111156118a257600080fd5b6020830191508360208285010111156118ba57600080fd5b9250929050565b6000806000806000606086880312156118d957600080fd5b85356001600160401b03808211156118f057600080fd5b818801915088601f83011261190457600080fd5b81358181111561191357600080fd5b8960208260051b850101111561192857600080fd5b6020830197508096505061193e60208901611862565b9450604088013591508082111561195457600080fd5b5061196188828901611879565b969995985093965092949392505050565b6020808252825182820181905260009190848201906040850190845b818110156119b35783516001600160a01b03168352928401929184019160010161198e565b50909695505050505050565b60005b838110156119da5781810151838201526020016119c2565b838111156119e9576000848401525b50505050565b60008151808452611a078160208601602086016119bf565b601f01601f19169290920160200192915050565b6020815260006103c060208301846119ef565b600081518084526020808501945080840160005b83811015611a685781516001600160e01b03191687529582019590820190600101611a42565b509495945050505050565b60006020808301818452808551808352604092508286019150828160051b87010184880160005b83811015611ae257888303603f19018552815180516001600160a01b03168452870151878401879052611acf87850182611a2e565b9588019593505090860190600101611a9a565b509098975050505050505050565b600060208284031215611b0257600080fd5b6103c082611862565b6020808252825182820181905260009190848201906040850190845b818110156119b35783516001600160e01b03191683529284019291840191600101611b27565b6020808252601d908201527f4f776e61626c653a2073656e646572206d757374206265206f776e6572000000604082015260600190565b634e487b7160e01b600052604160045260246000fd5b604051606081016001600160401b0381118282101715611bbc57611bbc611b84565b60405290565b604051601f8201601f191681016001600160401b0381118282101715611bea57611bea611b84565b604052919050565b60006001600160401b03821115611c0b57611c0b611b84565b5060051b60200190565b6000611c28611c2384611bf2565b611bc2565b83815260208082019190600586811b860136811115611c4657600080fd5b865b81811015611d3b5780356001600160401b0380821115611c685760008081fd5b818a01915060608236031215611c7e5760008081fd5b611c86611b9a565b611c8f83611862565b81528683013560038110611ca35760008081fd5b8188015260408381013583811115611cbb5760008081fd5b939093019236601f850112611cd257600092508283fd5b83359250611ce2611c2384611bf2565b83815292871b84018801928881019036851115611cff5760008081fd5b948901945b84861015611d2457611d158661182a565b82529489019490890190611d04565b918301919091525088525050948301948301611c48565b5092979650505050505050565b634e487b7160e01b600052601160045260246000fd5b600060018201611d7057611d70611d48565b5060010190565b634e487b7160e01b600052603260045260246000fd5b600060ff821660ff8103611da357611da3611d48565b60010192915050565b634e487b7160e01b600052602160045260246000fd5b6000606080830181845280875180835260808601915060808160051b87010192506020808a016000805b84811015611e5b57898703607f19018652825180516001600160a01b031688528481015160038110611e2c57634e487b7160e01b84526021600452602484fd5b88860152604090810151908801899052611e4889890182611a2e565b9750509483019491830191600101611dec565b5050506001600160a01b0389169087015250508381036040850152611e8081866119ef565b979650505050505050565b6020808252601f908201527f4469616d6f6e64426173653a2073656c6563746f72206e6f7420666f756e6400604082015260600190565b60208082526022908201527f4469616d6f6e64426173653a2073656c6563746f7220697320696d6d757461626040820152616c6560f01b606082015260800190565b60008251611f168184602087016119bf565b919091019291505056fe177481ac65e4292921c69f62d1cc7f57541261e5d61c8175cf4e36a01c9bfc93a2646970667358221220be10850042dd4d61121a25932c44db6d5eaf243cb4c92b04c5e99463f82eadad64736f6c634300080e00337cedc170fed3071c376e004331671630a13af4531c7441a04a1dc88bed2448baa264697066735822122000d2fd413e335689ea74f5730c1b231a59395f101d4d4f31ddc432c236bdec3264736f6c634300080e0033",
  "linkReferences": {},
  "deployedLinkReferences": {}
}