{
  "_format": "hh-sol-artifact-1",
  "contractName": "SemaphoreGroupsBaseMock",
  "sourceName": "contracts/semaphore/base/SemaphoreGroupsBase/SemaphoreGroupsBaseMock.sol",
  "abi": [
    {
      "anonymous": false,
      "inputs": [
        {
          "indexed": true,
          "internalType": "uint256",
          "name": "groupId",
          "type": "uint256"
        },
        {
          "indexed": true,
          "internalType": "address",
          "name": "oldAdmin",
          "type": "address"
        },
        {
          "indexed": true,
          "internalType": "address",
          "name": "newAdmin",
          "type": "address"
        }
      ],
      "name": "GroupAdminUpdated",
      "type": "event"
    },
    {
      "anonymous": false,
      "inputs": [
        {
          "indexed": true,
          "internalType": "uint256",
          "name": "groupId",
          "type": "uint256"
        },
        {
          "indexed": false,
          "internalType": "uint8",
          "name": "depth",
          "type": "uint8"
        },
        {
          "indexed": false,
          "internalType": "uint256",
          "name": "zeroValue",
          "type": "uint256"
        }
      ],
      "name": "GroupCreated",
      "type": "event"
    },
    {
      "anonymous": false,
      "inputs": [
        {
          "indexed": true,
          "internalType": "uint256",
          "name": "treeId",
          "type": "uint256"
        },
        {
          "indexed": false,
          "internalType": "uint256",
          "name": "leaf",
          "type": "uint256"
        },
        {
          "indexed": false,
          "internalType": "uint256",
          "name": "root",
          "type": "uint256"
        }
      ],
      "name": "LeafInserted",
      "type": "event"
    },
    {
      "anonymous": false,
      "inputs": [
        {
          "indexed": true,
          "internalType": "uint256",
          "name": "treeId",
          "type": "uint256"
        },
        {
          "indexed": false,
          "internalType": "uint256",
          "name": "leaf",
          "type": "uint256"
        },
        {
          "indexed": false,
          "internalType": "uint256",
          "name": "root",
          "type": "uint256"
        }
      ],
      "name": "LeafRemoved",
      "type": "event"
    },
    {
      "anonymous": false,
      "inputs": [
        {
          "indexed": true,
          "internalType": "uint256",
          "name": "groupId",
          "type": "uint256"
        },
        {
          "indexed": false,
          "internalType": "uint256",
          "name": "identityCommitment",
          "type": "uint256"
        },
        {
          "indexed": false,
          "internalType": "uint256",
          "name": "root",
          "type": "uint256"
        }
      ],
      "name": "MemberAdded",
      "type": "event"
    },
    {
      "anonymous": false,
      "inputs": [
        {
          "indexed": true,
          "internalType": "uint256",
          "name": "groupId",
          "type": "uint256"
        },
        {
          "indexed": false,
          "internalType": "uint256",
          "name": "identityCommitment",
          "type": "uint256"
        },
        {
          "indexed": false,
          "internalType": "uint256",
          "name": "root",
          "type": "uint256"
        }
      ],
      "name": "MemberRemoved",
      "type": "event"
    },
    {
      "anonymous": false,
      "inputs": [
        {
          "indexed": true,
          "internalType": "address",
          "name": "previousOwner",
          "type": "address"
        },
        {
          "indexed": true,
          "internalType": "address",
          "name": "newOwner",
          "type": "address"
        }
      ],
      "name": "OwnershipTransferred",
      "type": "event"
    },
    {
      "anonymous": false,
      "inputs": [
        {
          "indexed": false,
          "internalType": "uint256",
          "name": "id",
          "type": "uint256"
        },
        {
          "indexed": false,
          "internalType": "uint8",
          "name": "depth",
          "type": "uint8"
        }
      ],
      "name": "TreeCreated",
      "type": "event"
    },
    {
      "inputs": [
        {
          "internalType": "uint256",
          "name": "groupId",
          "type": "uint256"
        },
        {
          "internalType": "uint256",
          "name": "identityCommitment",
          "type": "uint256"
        }
      ],
      "name": "addMember",
      "outputs": [],
      "stateMutability": "nonpayable",
      "type": "function"
    },
    {
      "inputs": [
        {
          "internalType": "uint256",
          "name": "groupId",
          "type": "uint256"
        },
        {
          "internalType": "uint256[]",
          "name": "identityCommitments",
          "type": "uint256[]"
        }
      ],
      "name": "addMembers",
      "outputs": [],
      "stateMutability": "nonpayable",
      "type": "function"
    },
    {
      "inputs": [
        {
          "internalType": "uint256",
          "name": "groupId",
          "type": "uint256"
        },
        {
          "internalType": "uint8",
          "name": "depth",
          "type": "uint8"
        },
        {
          "internalType": "uint256",
          "name": "zeroValue",
          "type": "uint256"
        },
        {
          "internalType": "address",
          "name": "admin",
          "type": "address"
        }
      ],
      "name": "createGroup",
      "outputs": [],
      "stateMutability": "nonpayable",
      "type": "function"
    },
    {
      "inputs": [
        {
          "internalType": "uint256",
          "name": "groupId",
          "type": "uint256"
        }
      ],
      "name": "getDepth",
      "outputs": [
        {
          "internalType": "uint8",
          "name": "",
          "type": "uint8"
        }
      ],
      "stateMutability": "view",
      "type": "function"
    },
    {
      "inputs": [
        {
          "internalType": "uint256",
          "name": "groupId",
          "type": "uint256"
        }
      ],
      "name": "getGroupAdmin",
      "outputs": [
        {
          "internalType": "address",
          "name": "",
          "type": "address"
        }
      ],
      "stateMutability": "view",
      "type": "function"
    },
    {
      "inputs": [
        {
          "internalType": "uint256",
          "name": "groupId",
          "type": "uint256"
        }
      ],
      "name": "getNumberOfLeaves",
      "outputs": [
        {
          "internalType": "uint256",
          "name": "",
          "type": "uint256"
        }
      ],
      "stateMutability": "view",
      "type": "function"
    },
    {
      "inputs": [
        {
          "internalType": "uint256",
          "name": "groupId",
          "type": "uint256"
        }
      ],
      "name": "getRoot",
      "outputs": [
        {
          "internalType": "uint256",
          "name": "",
          "type": "uint256"
        }
      ],
      "stateMutability": "view",
      "type": "function"
    },
    {
      "inputs": [
        {
          "internalType": "uint256",
          "name": "groupId",
          "type": "uint256"
        },
        {
          "internalType": "uint256",
          "name": "identityCommitment",
          "type": "uint256"
        },
        {
          "internalType": "uint256[]",
          "name": "proofSiblings",
          "type": "uint256[]"
        },
        {
          "internalType": "uint8[]",
          "name": "proofPathIndices",
          "type": "uint8[]"
        }
      ],
      "name": "removeMember",
      "outputs": [],
      "stateMutability": "nonpayable",
      "type": "function"
    },
    {
      "inputs": [
        {
          "internalType": "uint256",
          "name": "groupId",
          "type": "uint256"
        },
        {
          "internalType": "address",
          "name": "newAdmin",
          "type": "address"
        }
      ],
      "name": "updateGroupAdmin",
      "outputs": [],
      "stateMutability": "nonpayable",
      "type": "function"
    }
  ],
  "bytecode": "0x608060405234801561001057600080fd5b50611826806100206000396000f3fe608060405234801561001057600080fd5b50600436106100835760003560e01c806304245371146100885780631783efc31461009d5780631c57d8ca146100b057806343989f85146100c3578063568ee826146100d657806375e618c9146100e95780639b24b3b014610113578063a9961c9414610134578063b9c78c2b1461015f575b600080fd5b61009b610096366004611215565b610172565b005b61009b6100ab3660046112de565b6101c2565b61009b6100be36600461132d565b6101da565b61009b6100d13660046113be565b610201565b61009b6100e4366004611440565b610225565b6100fc6100f736600461146c565b610263565b60405160ff90911681526020015b60405180910390f35b61012661012136600461146c565b610274565b60405190815260200161010a565b61014761014236600461146c565b61027f565b6040516001600160a01b03909116815260200161010a565b61012661016d36600461146c565b61028a565b61017c8282610295565b60005b81518110156101bd576101ab8383838151811061019e5761019e611485565b60200260200101516101c2565b806101b5816114b1565b91505061017f565b505050565b6101cc8282610295565b6101d682826102fb565b5050565b6101e684848484610354565b6101f18484846103d9565b6101fb848261041f565b50505050565b61020f868686868686610482565b61021d8686868686866104e9565b505050505050565b61022f8282610295565b610239828261041f565b6040516001600160a01b03821690339084906000805160206117d183398151915290600090a45050565b600061026e82610549565b92915050565b600061026e82610567565b600061026e82610585565b600061026e826105a9565b8161029f81610549565b60ff166000036102ca5760405162461bcd60e51b81526004016102c1906114ca565b60405180910390fd5b82336102d582610585565b6001600160a01b0316146101fb5760405162461bcd60e51b81526004016102c190611511565b61030582826105c7565b600061031083610567565b604080518481526020810183905291925084917f03fd27265b7dd1f55558bedc22a58fa3b10afb1be776e614bd5a7ba7b949940691015b60405180910390a2505050565b7f8a22373512790c48b83a1fe2efdd2888d4a917bcdc24d0adf63e60f671680460546001600160a01b031633146103cd5760405162461bcd60e51b815260206004820152601d60248201527f4f776e61626c653a2073656e646572206d757374206265206f776e657200000060448201526064016102c1565b6101fb848484846107fb565b6103e483838361091b565b6040805160ff841681526020810183905284917fc3082aa494e9088c2c9f0fb62a0b6bd46e6699acb94cfba35be29b95a93f68c89101610347565b610458828261042c610ae6565b6000928352602052604090912080546001600160a01b0319166001600160a01b03909216919091179055565b6040516001600160a01b0382169060009084906000805160206117d1833981519152908390a45050565b8561048c81610549565b60ff166000036104ae5760405162461bcd60e51b81526004016102c1906114ca565b86336104b982610585565b6001600160a01b0316146104df5760405162461bcd60e51b81526004016102c190611511565b5050505050505050565b6104f7868686868686610b0a565b600061050287610567565b604080518881526020810183905291925088917fe270325ded177064d7bda473e6519ef40a291058c41286f71a6e4872f1e9ab5c910160405180910390a250505050505050565b6000610553610e09565b600092835260205250604090205460ff1690565b6000610571610e09565b600092835260205250604090206001015490565b600061058f610ae6565b60009283526020525060409020546001600160a01b031690565b60006105b3610e09565b600092835260205250604090206002015490565b60006105d2836105a9565b90508160006105df610e09565b60008681526020919091526040902090506000805160206117b1833981519152841061061d5760405162461bcd60e51b81526004016102c19061155c565b61062685610549565b610631906002611698565b831061068b5760405162461bcd60e51b815260206004820152602360248201527f496e6372656d656e74616c42696e617279547265653a207472656520697320666044820152621d5b1b60ea1b60648201526084016102c1565b60005b61069786610549565b60ff168160ff1610156107c1576106af6002856116c4565b6000036106fb5760405180604001604052808481526020016106d4888460ff16610e2d565b905260ff8216600090815260048401602052604090206106f59160026111ac565b50610716565b60ff8116600090815260048301602052604090208390600101555b60ff81166000908152600480840160205260409182902091516314d2f97b60e11b815273__$6d81c1d65787d697695b56adedd76022ba$__926329a5f2f69261075f92016116d8565b602060405180830381865af415801561077c573d6000803e3d6000fd5b505050506040513d601f19601f820116820180604052508101906107a09190611709565b92506107ad600285611722565b9350806107b981611736565b91505061068e565b506107e285836107cf610e09565b6000928352602052604090912060010155565b6107f4856107ee610e09565b90610e57565b5050505050565b836000805160206117b183398151915281106108505760405162461bcd60e51b81526020600482015260146024820152735343414c41525f4f55545f4f465f424f554e445360601b60448201526064016102c1565b61085985610549565b60ff16156108b55760405162461bcd60e51b8152602060048201526024808201527f53656d6170686f726547726f757073426173653a2047524f55505f49445f45586044820152634953545360e01b60648201526084016102c1565b6001600160a01b0382166107f45760405162461bcd60e51b815260206004820152602760248201527f53656d6170686f726547726f757073426173653a2041444d494e5f5a45524f5f6044820152664144445245535360c81b60648201526084016102c1565b6000805160206117b183398151915281106109485760405162461bcd60e51b81526004016102c19061155c565b60008260ff1611801561095f5750602060ff831611155b6109ce5760405162461bcd60e51b815260206004820152603a60248201527f496e6372656d656e74616c42696e617279547265653a20747265652064657074604482015279341036bab9ba103132903132ba3bb2b2b710189030b73210199960311b60648201526084016102c1565b6109fb83836109db610e09565b60009283526020526040909120805460ff191660ff909216919091179055565b60005b8260ff168160ff161015610ad857610a3b848260ff1684610a1d610e09565b60009384526020908152604080852093855260039093019052912055565b6040805180820182528381526020810184905290516314d2f97b60e11b815273__$6d81c1d65787d697695b56adedd76022ba$__916329a5f2f691610a839190600401611755565b602060405180830381865af4158015610aa0573d6000803e3d6000fd5b505050506040513d601f19601f82011682018060405250810190610ac49190611709565b915080610ad081611736565b9150506109fe565b506101bd83826107cf610e09565b7f44acce4aaef954270f6d29b389ff2c226212662a4788fd9168a1db9aacc1d25e90565b610b18868686868686610e82565b610b805760405162461bcd60e51b815260206004820152603360248201527f496e6372656d656e74616c42696e617279547265653a206c656166206973206e6044820152726f742070617274206f6620746865207472656560681b60648201526084016102c1565b6000610b8a610e09565b6000888152602091909152604081209150610ba58882610e2d565b905060005b610bb389610549565b60ff168160ff161015610dff5784848260ff16818110610bd557610bd5611485565b9050602002016020810190610bea919061177d565b60ff16600003610cf35760ff8116600090815260048401602052604090206001015487878360ff16818110610c2157610c21611485565b9050602002013503610c455760ff8116600090815260048401602052604090208290555b73__$6d81c1d65787d697695b56adedd76022ba$__6329a5f2f660405180604001604052808581526020018a8a8660ff16818110610c8557610c85611485565b905060200201358152506040518263ffffffff1660e01b8152600401610cab9190611755565b602060405180830381865af4158015610cc8573d6000803e3d6000fd5b505050506040513d601f19601f82011682018060405250810190610cec9190611709565b9150610ded565b60ff811660008181526004850160205260409020549088908890818110610d1c57610d1c611485565b9050602002013503610d435760ff8116600090815260048401602052604090208290600101555b73__$6d81c1d65787d697695b56adedd76022ba$__6329a5f2f660405180604001604052808a8a8660ff16818110610d7d57610d7d611485565b905060200201358152602001858152506040518263ffffffff1660e01b8152600401610da99190611755565b602060405180830381865af4158015610dc6573d6000803e3d6000fd5b505050506040513d601f19601f82011682018060405250810190610dea9190611709565b91505b80610df781611736565b915050610baa565b506104df88826107cf5b7f18009942081384ebf013f551c6956278f8f7e6b5ba58de96a877e7d2e169e67090565b6000610e37610e09565b600093845260209081526040808520938552600390930190525090205490565b6000818152602083905260408120600201805460019290610e79908490611798565b90915550505050565b60006000805160206117b18339815191528610610eb15760405162461bcd60e51b81526004016102c19061155c565b610eba87610549565b60ff1682148015610ed55750610ecf87610549565b60ff1684145b610f3e5760405162461bcd60e51b815260206004820152603460248201527f496e6372656d656e74616c42696e617279547265653a206c656e677468206f66604482015273081c185d1a081a5cc81b9bdd0818dbdc9c9958dd60621b60648201526084016102c1565b8560005b610f4b89610549565b60ff168160ff161015611196576000805160206117b183398151915287878360ff16818110610f7c57610f7c611485565b9050602002013510610ff8576040805162461bcd60e51b81526020600482015260248101919091527f496e6372656d656e74616c42696e617279547265653a207369626c696e67206e60448201527f6f6465206d757374206265203c20534e41524b5f5343414c41525f4649454c4460648201526084016102c1565b84848260ff1681811061100d5761100d611485565b9050602002016020810190611022919061177d565b60ff166000036110da5773__$6d81c1d65787d697695b56adedd76022ba$__6329a5f2f660405180604001604052808581526020018a8a8660ff1681811061106c5761106c611485565b905060200201358152506040518263ffffffff1660e01b81526004016110929190611755565b602060405180830381865af41580156110af573d6000803e3d6000fd5b505050506040513d601f19601f820116820180604052508101906110d39190611709565b9150611184565b73__$6d81c1d65787d697695b56adedd76022ba$__6329a5f2f660405180604001604052808a8a8660ff1681811061111457611114611485565b905060200201358152602001858152506040518263ffffffff1660e01b81526004016111409190611755565b602060405180830381865af415801561115d573d6000803e3d6000fd5b505050506040513d601f19601f820116820180604052508101906111819190611709565b91505b8061118e81611736565b915050610f42565b506111a088610567565b14979650505050505050565b82600281019282156111da579160200282015b828111156111da5782518255916020019190600101906111bf565b506111e69291506111ea565b5090565b5b808211156111e657600081556001016111eb565b634e487b7160e01b600052604160045260246000fd5b6000806040838503121561122857600080fd5b823591506020808401356001600160401b038082111561124757600080fd5b818601915086601f83011261125b57600080fd5b81358181111561126d5761126d6111ff565b8060051b604051601f19603f83011681018181108582111715611292576112926111ff565b6040529182528482019250838101850191898311156112b057600080fd5b938501935b828510156112ce578435845293850193928501926112b5565b8096505050505050509250929050565b600080604083850312156112f157600080fd5b50508035926020909101359150565b803560ff8116811461131157600080fd5b919050565b80356001600160a01b038116811461131157600080fd5b6000806000806080858703121561134357600080fd5b8435935061135360208601611300565b92506040850135915061136860608601611316565b905092959194509250565b60008083601f84011261138557600080fd5b5081356001600160401b0381111561139c57600080fd5b6020830191508360208260051b85010111156113b757600080fd5b9250929050565b600080600080600080608087890312156113d757600080fd5b863595506020870135945060408701356001600160401b03808211156113fc57600080fd5b6114088a838b01611373565b9096509450606089013591508082111561142157600080fd5b5061142e89828a01611373565b979a9699509497509295939492505050565b6000806040838503121561145357600080fd5b8235915061146360208401611316565b90509250929050565b60006020828403121561147e57600080fd5b5035919050565b634e487b7160e01b600052603260045260246000fd5b634e487b7160e01b600052601160045260246000fd5b6000600182016114c3576114c361149b565b5060010190565b60208082526027908201527f53656d6170686f726547726f757073426173653a2047524f55505f49445f4e4f6040820152661517d1561254d560ca1b606082015260800190565b6020808252602b908201527f53656d6170686f726547726f757073426173653a2053454e4445525f4e4f4e5f60408201526a23a927aaa82fa0a226a4a760a91b606082015260800190565b60208082526038908201527f496e6372656d656e74616c42696e617279547265653a206c656166206d757374604082015277081899480f0814d3905492d7d4d0d053105497d19251531160421b606082015260800190565b600181815b808511156115ef5781600019048211156115d5576115d561149b565b808516156115e257918102915b93841c93908002906115b9565b509250929050565b6000826116065750600161026e565b816116135750600061026e565b816001811461162957600281146116335761164f565b600191505061026e565b60ff8411156116445761164461149b565b50506001821b61026e565b5060208310610133831016604e8410600b8410161715611672575081810a61026e565b61167c83836115b4565b80600019048211156116905761169061149b565b029392505050565b60006116a760ff8416836115f7565b9392505050565b634e487b7160e01b600052601260045260246000fd5b6000826116d3576116d36116ae565b500690565b60408101818360005b60028110156117005781548352602090920191600191820191016116e1565b50505092915050565b60006020828403121561171b57600080fd5b5051919050565b600082611731576117316116ae565b500490565b600060ff821660ff810361174c5761174c61149b565b60010192915050565b60408101818360005b600281101561170057815183526020928301929091019060010161175e565b60006020828403121561178f57600080fd5b6116a782611300565b600082198211156117ab576117ab61149b565b50019056fe30644e72e131a029b85045b68181585d2833e84879b9709143e1f593f00000010ba83579a0e79193ef649b9f5a8759d35af086ba62a3e207b52e4a8ae30d49e3a26469706673582212206acd65fd188940b536f0d1840c17e62b2b950824a66355e41a1ba9b46910b21464736f6c634300080e0033",
  "linkReferences": {
    "contracts/utils/cryptography/Hashes.sol": {
      "PoseidonT3": [
        {
          "length": 20,
          "start": 1883
        },
        {
          "length": 20,
          "start": 2684
        },
        {
          "length": 20,
          "start": 3175
        },
        {
          "length": 20,
          "start": 3429
        },
        {
          "length": 20,
          "start": 4174
        },
        {
          "length": 20,
          "start": 4348
        }
      ]
    }
  },
  "deployedLinkReferences": {
    "contracts/utils/cryptography/Hashes.sol": {
      "PoseidonT3": [
        {
          "length": 20,
          "start": 1851
        },
        {
          "length": 20,
          "start": 2652
        },
        {
          "length": 20,
          "start": 3143
        },
        {
          "length": 20,
          "start": 3397
        },
        {
          "length": 20,
          "start": 4142
        },
        {
          "length": 20,
          "start": 4316
        }
      ]
    }
  }
}