{
  "_format": "hh-sol-artifact-1",
  "contractName": "SimplicyWalletDiamond",
  "sourceName": "contracts/diamond/SimplicyWalletDiamond.sol",
  "abi": [
    {
      "inputs": [
        {
          "internalType": "address",
          "name": "owner_",
          "type": "address"
        }
      ],
      "stateMutability": "nonpayable",
      "type": "constructor"
    },
    {
      "anonymous": false,
      "inputs": [
        {
          "components": [
            {
              "internalType": "address",
              "name": "target",
              "type": "address"
            },
            {
              "internalType": "enum IDiamondWritable.FacetCutAction",
              "name": "action",
              "type": "uint8"
            },
            {
              "internalType": "bytes4[]",
              "name": "selectors",
              "type": "bytes4[]"
            }
          ],
          "indexed": false,
          "internalType": "struct IDiamondWritable.FacetCut[]",
          "name": "facetCuts",
          "type": "tuple[]"
        },
        {
          "indexed": false,
          "internalType": "address",
          "name": "target",
          "type": "address"
        },
        {
          "indexed": false,
          "internalType": "bytes",
          "name": "data",
          "type": "bytes"
        }
      ],
      "name": "DiamondCut",
      "type": "event"
    },
    {
      "anonymous": false,
      "inputs": [
        {
          "indexed": true,
          "internalType": "address",
          "name": "previousOwner",
          "type": "address"
        },
        {
          "indexed": true,
          "internalType": "address",
          "name": "newOwner",
          "type": "address"
        }
      ],
      "name": "OwnershipTransferred",
      "type": "event"
    },
    {
      "stateMutability": "payable",
      "type": "fallback"
    },
    {
      "inputs": [],
      "name": "acceptOwnership",
      "outputs": [],
      "stateMutability": "nonpayable",
      "type": "function"
    },
    {
      "inputs": [
        {
          "components": [
            {
              "internalType": "address",
              "name": "target",
              "type": "address"
            },
            {
              "internalType": "enum IDiamondWritable.FacetCutAction",
              "name": "action",
              "type": "uint8"
            },
            {
              "internalType": "bytes4[]",
              "name": "selectors",
              "type": "bytes4[]"
            }
          ],
          "internalType": "struct IDiamondWritable.FacetCut[]",
          "name": "facetCuts",
          "type": "tuple[]"
        },
        {
          "internalType": "address",
          "name": "target",
          "type": "address"
        },
        {
          "internalType": "bytes",
          "name": "data",
          "type": "bytes"
        }
      ],
      "name": "diamondCut",
      "outputs": [],
      "stateMutability": "nonpayable",
      "type": "function"
    },
    {
      "inputs": [
        {
          "internalType": "bytes4",
          "name": "selector",
          "type": "bytes4"
        }
      ],
      "name": "facetAddress",
      "outputs": [
        {
          "internalType": "address",
          "name": "facet",
          "type": "address"
        }
      ],
      "stateMutability": "view",
      "type": "function"
    },
    {
      "inputs": [],
      "name": "facetAddresses",
      "outputs": [
        {
          "internalType": "address[]",
          "name": "addresses",
          "type": "address[]"
        }
      ],
      "stateMutability": "view",
      "type": "function"
    },
    {
      "inputs": [
        {
          "internalType": "address",
          "name": "facet",
          "type": "address"
        }
      ],
      "name": "facetFunctionSelectors",
      "outputs": [
        {
          "internalType": "bytes4[]",
          "name": "selectors",
          "type": "bytes4[]"
        }
      ],
      "stateMutability": "view",
      "type": "function"
    },
    {
      "inputs": [],
      "name": "facets",
      "outputs": [
        {
          "components": [
            {
              "internalType": "address",
              "name": "target",
              "type": "address"
            },
            {
              "internalType": "bytes4[]",
              "name": "selectors",
              "type": "bytes4[]"
            }
          ],
          "internalType": "struct IDiamondReadable.Facet[]",
          "name": "diamondFacets",
          "type": "tuple[]"
        }
      ],
      "stateMutability": "view",
      "type": "function"
    },
    {
      "inputs": [],
      "name": "getFallbackAddress",
      "outputs": [
        {
          "internalType": "address",
          "name": "",
          "type": "address"
        }
      ],
      "stateMutability": "view",
      "type": "function"
    },
    {
      "inputs": [],
      "name": "nomineeOwner",
      "outputs": [
        {
          "internalType": "address",
          "name": "",
          "type": "address"
        }
      ],
      "stateMutability": "view",
      "type": "function"
    },
    {
      "inputs": [],
      "name": "owner",
      "outputs": [
        {
          "internalType": "address",
          "name": "",
          "type": "address"
        }
      ],
      "stateMutability": "view",
      "type": "function"
    },
    {
      "inputs": [
        {
          "internalType": "address",
          "name": "fallbackAddress",
          "type": "address"
        }
      ],
      "name": "setFallbackAddress",
      "outputs": [],
      "stateMutability": "nonpayable",
      "type": "function"
    },
    {
      "inputs": [
        {
          "internalType": "bytes4",
          "name": "interfaceId",
          "type": "bytes4"
        }
      ],
      "name": "supportsInterface",
      "outputs": [
        {
          "internalType": "bool",
          "name": "",
          "type": "bool"
        }
      ],
      "stateMutability": "view",
      "type": "function"
    },
    {
      "inputs": [
        {
          "internalType": "address",
          "name": "account",
          "type": "address"
        }
      ],
      "name": "transferOwnership",
      "outputs": [],
      "stateMutability": "nonpayable",
      "type": "function"
    },
    {
      "inputs": [],
      "name": "version",
      "outputs": [
        {
          "internalType": "string",
          "name": "",
          "type": "string"
        }
      ],
      "stateMutability": "pure",
      "type": "function"
    },
    {
      "stateMutability": "payable",
      "type": "receive"
    }
  ],
  "bytecode": "0x60806040523480156200001157600080fd5b506040516200317038038062003170833981016040819052620000349162000fbb565b6200003f8162000046565b5062001214565b60006200005d620004b260201b62000d1a1760201c565b60408051600c8082526101a08201909252919250600091906020820161018080368337019050509050631f931c1c60e01b81600081518110620000a457620000a462000fed565b6001600160e01b0319909216602092830291909101820152620000de9083906307e4c70760e21b9060019062000d3e620004d6821b17901c565b637a0ed62760e01b81600181518110620000fc57620000fc62000fed565b6001600160e01b03199092166020928302919091019091015280516356fe50af60e11b908290600290811062000136576200013662000fed565b6001600160e01b03199092166020928302919091019091015280516314bbdacb60e21b908290600390811062000170576200017062000fed565b6001600160e01b03199092166020928302919091019091015280516366ffd66360e11b9082906004908110620001aa57620001aa62000fed565b6001600160e01b0319909216602092830291909101820152620001e49083906348e2b09360e01b9060019062000d3e620004d6821b17901c565b6301ffc9a760e01b8160058151811062000202576200020262000fed565b6001600160e01b03199092166020928302919091018201526200023c9083906301ffc9a760e01b9060019062000d3e620004d6821b17901c565b638da5cb5b60e01b816006815181106200025a576200025a62000fed565b6001600160e01b031990921660209283029190910190910152805163455a8a8560e11b908290600790811062000294576200029462000fed565b6001600160e01b031990921660209283029190910190910152805163f2fde38b60e01b9082906008908110620002ce57620002ce62000fed565b6001600160e01b03199092166020928302919091019091015280516379ba509760e01b908290600990811062000308576200030862000fed565b6001600160e01b0319909216602092830291909101820152620003429083906307f5828d60e41b9060019062000d3e620004d6821b17901c565b632c40805960e01b81600a8151811062000360576200036062000fed565b6001600160e01b0319909216602092830291909101909101528051639142376560e01b908290600b9081106200039a576200039a62000fed565b6001600160e01b03199290921660209283029190910190910152604080516001808252818301909252600091816020015b60408051606080820183526000808352602083015291810191909152815260200190600190039081620003cb5790505060408051606081019091523081529091506020810160008152602001838152508160008151811062000431576200043162000fed565b60200260200101819052506200047e81600060405180602001604052806000815250620004686200056460201b62000dc51760201c565b6200058860201b62000dd717909392919060201c565b620004ac8462000498620007b460201b62000fb31760201c565b620007d860201b62000fd71790919060201c565b50505050565b7f326d0c59a7612f6a9919e2a8ee333c80ba689d8ba2634de89c85cbb04832e70590565b6001600160e01b03198083169003620005365760405162461bcd60e51b815260206004820152601c60248201527f4552433136353a20696e76616c696420696e746572666163652069640000000060448201526064015b60405180910390fd5b6001600160e01b03199190911660009081526020929092526040909120805460ff1916911515919091179055565b7f177481ac65e4292921c69f62d1cc7f57541261e5d61c8175cf4e36a01c9bfc9390565b600184015461ffff811690819060009060071615620005b95750600381901c60009081526002870160205260409020545b60005b865181101562000722576000878281518110620005dd57620005dd62000fed565b60200260200101519050600081602001519050600082604001515111620006535760405162461bcd60e51b815260206004820152602360248201527f4469616d6f6e64426173653a206e6f2073656c6563746f7273207370656369666044820152621a595960ea1b60648201526084016200052d565b60008160028111156200066a576200066a62001003565b0362000699576200068e8585848d620007f560201b62000ff417909392919060201c565b909550935062000717565b6001816002811115620006b057620006b062001003565b03620006d657620006d0828b620009c760201b620011a71790919060201c565b62000717565b6002816002811115620006ed57620006ed62001003565b036200071757620007118585848d62000bb060201b6200136a17909392919060201c565b90955093505b5050600101620005bc565b508282146200073f5760018701805461ffff191661ffff84161790555b60078216156200076257600382901c600090815260028801602052604090208190555b7f8faa70878671ccd212d20771b795c50af8fd3ff6cf27f4bde57e5d4de0aeb673868686604051620007979392919062001076565b60405180910390a1620007ab858562000e26565b50505050505050565b7f8a22373512790c48b83a1fe2efdd2888d4a917bcdc24d0adf63e60f67168046090565b81546001600160a01b0319166001600160a01b0391909116179055565b805160009081906001600160a01b03163014806200083157506200083183600001516001600160a01b031662000fb560201b620003c11760201c565b6200088b5760405162461bcd60e51b815260206004820152602360248201527f4469616d6f6e64426173653a204144442074617267657420686173206e6f20636044820152626f646560e81b60648201526084016200052d565b60005b836040015151811015620009ba57600084604001518281518110620008b757620008b762000fed565b6020908102919091018101516001600160e01b031981166000908152918a9052604090912054909150606081901c15620009405760405162461bcd60e51b815260206004820152602360248201527f4469616d6f6e64426173653a2073656c6563746f7220616c726561647920616460448201526219195960ea1b60648201526084016200052d565b85516001600160e01b0319838116600081815260208d90526040902060609390931b6001600160601b0319168b1790925560058a901b60e090811692831c91831c19999099161797819003620009aa57600389901c600090815260028b0160205260408120989098555b505050600195860195016200088e565b5093959294509192505050565b620009ea81600001516001600160a01b031662000fb560201b620003c11760201c565b62000a485760405162461bcd60e51b815260206004820152602760248201527f4469616d6f6e64426173653a205245504c4143452074617267657420686173206044820152666e6f20636f646560c81b60648201526084016200052d565b60005b81604001515181101562000bab5760008260400151828151811062000a745762000a7462000fed565b6020908102919091018101516001600160e01b03198116600090815291869052604090912054909150606081901c8062000ac25760405162461bcd60e51b81526004016200052d906200117d565b306001600160a01b0382160362000aed5760405162461bcd60e51b81526004016200052d90620011b4565b84600001516001600160a01b0316816001600160a01b03160362000b655760405162461bcd60e51b815260206004820152602860248201527f4469616d6f6e64426173653a205245504c41434520746172676574206973206960448201526719195b9d1a58d85b60c21b60648201526084016200052d565b5083516001600160e01b031992909216600090815260208690526040902060609290921b6001600160601b0319166001600160601b039190911617905560010162000a4b565b505050565b805160009081906001600160a01b03161562000c275760405162461bcd60e51b815260206004820152602f60248201527f4469616d6f6e64426173653a2052454d4f564520746172676574206d7573742060448201526e6265207a65726f206164647265737360881b60648201526084016200052d565b600385901c6007861660005b85604001515181101562000e125760008660400151828151811062000c5c5762000c5c62000fed565b6020908102919091018101516001600160e01b031981166000908152918c9052604090912054909150606081901c62000ca95760405162461bcd60e51b81526004016200052d906200117d565b30606082901c0362000ccf5760405162461bcd60e51b81526004016200052d90620011b4565b600089900362000cfd57600019909401600081815260028c0160205260409020549850936007935062000d05565b600019909301925b600584901b89901b6000806001600160e01b03198084169086161462000d58576001600160e01b03198316600090815260208f90526040902080546001600160601b0319166001600160601b0386161790555b50506001600160e01b03198316600090815260208d90526040812055611fff600383901c1660e0600584901b1687821462000dbd57600082815260028f016020526040902080546001600160e01b031980841c19909116908516831c17905562000de1565b80836001600160e01b031916901c816001600160e01b031960001b901c198d16179b505b8660000362000e0057600088815260028f01602052604081208190559b505b50506001909301925062000c33915050565b5060039190911b1796939550929350505050565b8051156001600160a01b038316151462000e9a5760405162461bcd60e51b815260206004820152602e60248201527f4469616d6f6e64426173653a20696e76616c696420696e697469616c697a617460448201526d696f6e20706172616d657465727360901b60648201526084016200052d565b6001600160a01b0382161562000fb1576001600160a01b038216301462000f3f5762000eda826001600160a01b031662000fb560201b620003c11760201c565b62000f3f5760405162461bcd60e51b815260206004820152602e60248201527f4469616d6f6e64426173653a20696e697469616c697a6174696f6e207461726760448201526d657420686173206e6f20636f646560901b60648201526084016200052d565b6000826001600160a01b03168260405162000f5b9190620011f6565b600060405180830381855af49150503d806000811462000f98576040519150601f19603f3d011682016040523d82523d6000602084013e62000f9d565b606091505b505090508062000bab573d6000803e3d6000fd5b5050565b3b151590565b60006020828403121562000fce57600080fd5b81516001600160a01b038116811462000fe657600080fd5b9392505050565b634e487b7160e01b600052603260045260246000fd5b634e487b7160e01b600052602160045260246000fd5b60005b83811015620010365781810151838201526020016200101c565b83811115620004ac5750506000910152565b600081518084526200106281602086016020860162001019565b601f01601f19169290920160200192915050565b60006060808301818452808751808352608092508286019150828160051b8701016020808b0160005b848110156200114b57898403607f19018652815180516001600160a01b03168552838101518986019060038110620010e757634e487b7160e01b600052602160045260246000fd5b868601526040918201519186018a905281519081905290840190600090898701905b80831015620011355783516001600160e01b031916825292860192600192909201919086019062001109565b509785019795505050908201906001016200109f565b50506001600160a01b038a169088015286810360408801526200116f818962001048565b9a9950505050505050505050565b6020808252601f908201527f4469616d6f6e64426173653a2073656c6563746f72206e6f7420666f756e6400604082015260600190565b60208082526022908201527f4469616d6f6e64426173653a2073656c6563746f7220697320696d6d757461626040820152616c6560f01b606082015260800190565b600082516200120a81846020870162001019565b9190910192915050565b611f4c80620012246000396000f3fe6080604052600436106100a65760003560e01c806301ffc9a71461014a5780631f931c1c1461017f5780632c4080591461019f57806352ef6b2c146101cc57806354fd4d50146101ee57806379ba5097146102225780637a0ed627146102375780638ab5150a146102595780638da5cb5b1461026e5780639142376514610283578063adfca15e146102a3578063cdffacc6146102d0578063f2fde38b146102f0576100ad565b366100ad57005b60006100b7610310565b90506001600160a01b0381163b6101245760405162461bcd60e51b815260206004820152602660248201527f50726f78793a20696d706c656d656e746174696f6e206d75737420626520636f6044820152651b9d1c9858dd60d21b60648201526084015b60405180910390fd5b3660008037600080366000845af43d6000803e808015610143573d6000f35b3d6000fd5b005b34801561015657600080fd5b5061016a61016536600461181d565b6103c7565b60405190151581526020015b60405180910390f35b34801561018b57600080fd5b5061014861019a366004611897565b6103fc565b3480156101ab57600080fd5b506101b4610489565b6040516001600160a01b039091168152602001610176565b3480156101d857600080fd5b506101e16104a5565b6040516101769190611948565b3480156101fa57600080fd5b506040805180820182526005815264302e302e3160d81b6020820152905161017691906119f1565b34801561022e57600080fd5b50610148610647565b34801561024357600080fd5b5061024c6106cb565b6040516101769190611a49565b34801561026557600080fd5b506101b4610af0565b34801561027a57600080fd5b506101b4610aff565b34801561028f57600080fd5b5061014861029e366004611ac6565b610b09565b3480156102af57600080fd5b506102c36102be366004611ac6565b610b66565b6040516101769190611ae1565b3480156102dc57600080fd5b506101b46102eb36600461181d565b610cb1565b3480156102fc57600080fd5b5061014861030b366004611ac6565b610cde565b600080356001600160e01b0319168152600080516020611ef783398151915260208190526040822054819060601c806103ba575060038201546001600160a01b0316806103ba5760405162461bcd60e51b815260206004820152603260248201527f4469616d6f6e64426173653a206e6f20666163657420666f756e6420666f722060448201527166756e6374696f6e207369676e617475726560701b606482015260840161011b565b9392505050565b3b151590565b60006103f6826103d5610d1a565b906001600160e01b0319166000908152602091909152604090205460ff1690565b92915050565b610404610fb3565b546001600160a01b0316331461042c5760405162461bcd60e51b815260040161011b90611b23565b6104826104398587611beb565b8484848080601f01602080910402602001604051908101604052809392919081815260200183838082843760009201919091525061047a9250610dc5915050565b929190610dd7565b5050505050565b6000610493610dc5565b600301546001600160a01b0316919050565b606060006104b1610dc5565b600181015490915061ffff166001600160401b038111156104d4576104d4611b5a565b6040519080825280602002602001820160405280156104fd578160200160208202803683370190505b50915060008060005b600184015461ffff1682101561063f576000818152600285016020526040812054905b600881101561062a578361053c81611d34565b600188015490955061ffff168511905061062a57600581901b82901b6001600160e01b0319811660009081526020889052604081205460601c90805b888110156105cd578a818151811061059257610592611d4d565b60200260200101516001600160a01b0316836001600160a01b0316036105bb57600191506105cd565b806105c581611d34565b915050610578565b5080156105dc57505050610618565b818a89815181106105ef576105ef611d4d565b6001600160a01b03909216602092830291909101909101528761061181611d34565b9850505050505b8061062281611d34565b915050610529565b5050808061063790611d34565b915050610506565b505082525090565b61064f6115cd565b6001600160a01b0316336001600160a01b0316146106c15760405162461bcd60e51b815260206004820152602960248201527f536166654f776e61626c653a2073656e646572206d757374206265206e6f6d696044820152683732b29037bbb732b960b91b606482015260840161011b565b6106c96115e6565b565b606060006106d7610dc5565b600181015490915061ffff166001600160401b038111156106fa576106fa611b5a565b60405190808252806020026020018201604052801561074057816020015b6040805180820190915260008152606060208201528152602001906001900390816107185790505b50600182015490925060009061ffff166001600160401b0381111561076757610767611b5a565b604051908082528060200260200182016040528015610790578160200160208202803683370190505b50905060008060005b600185015461ffff16821015610a7e576000818152600286016020526040812054905b6008811015610a6957836107cf81611d34565b600189015490955061ffff1685119050610a6957600581901b82901b6001600160e01b0319811660009081526020899052604081205460601c90805b8881101561092857826001600160a01b03168c828151811061082f5761082f611d4d565b6020026020010151600001516001600160a01b03160361091657838c828151811061085c5761085c611d4d565b6020026020010151602001518b838151811061087a5761087a611d4d565b602002602001015160ff168151811061089557610895611d4d565b60200260200101906001600160e01b03191690816001600160e01b0319168152505060ff8a82815181106108cb576108cb611d4d565b602002602001015160ff16106108e057600080fd5b8981815181106108f2576108f2611d4d565b60200260200101805180919061090790611d63565b60ff1690525060019150610928565b8061092081611d34565b91505061080b565b50801561093757505050610a57565b818b898151811061094a5761094a611d4d565b60209081029190910101516001600160a01b03909116905260018a015461ffff166001600160401b0381111561098257610982611b5a565b6040519080825280602002602001820160405280156109ab578160200160208202803683370190505b508b89815181106109be576109be611d4d565b602002602001015160200181905250828b89815181106109e0576109e0611d4d565b6020026020010151602001516000815181106109fe576109fe611d4d565b60200260200101906001600160e01b03191690816001600160e01b031916815250506001898981518110610a3457610a34611d4d565b60ff9092166020928302919091019091015287610a5081611d34565b9850505050505b80610a6181611d34565b9150506107bc565b50508080610a7690611d34565b915050610799565b5060005b82811015610ae5576000848281518110610a9e57610a9e611d4d565b602002602001015160ff1690506000878381518110610abf57610abf611d4d565b602002602001015160200151905081815250508080610add90611d34565b915050610a82565b508185525050505090565b6000610afa6115cd565b905090565b6000610afa611649565b610b11610fb3565b546001600160a01b03163314610b395760405162461bcd60e51b815260040161011b90611b23565b80610b42610dc5565b60030180546001600160a01b0319166001600160a01b039290921691909117905550565b60606000610b72610dc5565b600181015490915061ffff166001600160401b03811115610b9557610b95611b5a565b604051908082528060200260200182016040528015610bbe578160200160208202803683370190505b50915060008060005b600184015461ffff16821015610ca7576000818152600285016020526040812054905b6008811015610c925783610bfd81611d34565b600188015490955061ffff1685119050610c9257600581901b82901b6001600160e01b0319811660009081526020889052604090205460601c6001600160a01b038a1603610c7f5780888781518110610c5857610c58611d4d565b6001600160e01b03199092166020928302919091019091015285610c7b81611d34565b9650505b5080610c8a81611d34565b915050610bea565b50508080610c9f90611d34565b915050610bc7565b5050825250919050565b6000610cbb610dc5565b6001600160e01b0319909216600090815260209290925250604090205460601c90565b610ce6610fb3565b546001600160a01b03163314610d0e5760405162461bcd60e51b815260040161011b90611b23565b610d1781611653565b50565b7f326d0c59a7612f6a9919e2a8ee333c80ba689d8ba2634de89c85cbb04832e70590565b6001600160e01b03198083169003610d975760405162461bcd60e51b815260206004820152601c60248201527b115490cc4d8d4e881a5b9d985b1a59081a5b9d195c999858d9481a5960221b604482015260640161011b565b6001600160e01b03199190911660009081526020929092526040909120805460ff1916911515919091179055565b600080516020611ef783398151915290565b600184015461ffff811690819060009060071615610e075750600381901c60009081526002870160205260409020545b60005b8651811015610f27576000878281518110610e2757610e27611d4d565b60200260200101519050600081602001519050600082604001515111610e9b5760405162461bcd60e51b815260206004820152602360248201527f4469616d6f6e64426173653a206e6f2073656c6563746f7273207370656369666044820152621a595960ea1b606482015260840161011b565b6000816002811115610eaf57610eaf611d82565b03610eca57610ec08a868685610ff4565b9095509350610f1d565b6001816002811115610ede57610ede611d82565b03610ef257610eed8a836111a7565b610f1d565b6002816002811115610f0657610f06611d82565b03610f1d57610f178a86868561136a565b90955093505b5050600101610e0a565b50828214610f435760018701805461ffff191661ffff84161790555b6007821615610f6557600382901c600090815260028801602052604090208190555b7f8faa70878671ccd212d20771b795c50af8fd3ff6cf27f4bde57e5d4de0aeb673868686604051610f9893929190611d98565b60405180910390a1610faa858561165c565b50505050505050565b7f8a22373512790c48b83a1fe2efdd2888d4a917bcdc24d0adf63e60f67168046090565b81546001600160a01b0319166001600160a01b0391909116179055565b805160009081906001600160a01b031630148061101b575082516001600160a01b03163b15155b6110735760405162461bcd60e51b815260206004820152602360248201527f4469616d6f6e64426173653a204144442074617267657420686173206e6f20636044820152626f646560e81b606482015260840161011b565b60005b83604001515181101561119a5760008460400151828151811061109b5761109b611d4d565b6020908102919091018101516001600160e01b031981166000908152918a9052604090912054909150606081901c156111225760405162461bcd60e51b815260206004820152602360248201527f4469616d6f6e64426173653a2073656c6563746f7220616c726561647920616460448201526219195960ea1b606482015260840161011b565b85516001600160e01b0319838116600081815260208d90526040902060609390931b6001600160601b0319168b1790925560058a901b60e090811692831c91831c1999909916179781900361118b57600389901c600090815260028b0160205260408120989098555b50505060019586019501611076565b5093959294509192505050565b80516001600160a01b03163b61120f5760405162461bcd60e51b815260206004820152602760248201527f4469616d6f6e64426173653a205245504c4143452074617267657420686173206044820152666e6f20636f646560c81b606482015260840161011b565b60005b8160400151518110156113655760008260400151828151811061123757611237611d4d565b6020908102919091018101516001600160e01b03198116600090815291869052604090912054909150606081901c806112825760405162461bcd60e51b815260040161011b90611e61565b306001600160a01b038216036112aa5760405162461bcd60e51b815260040161011b90611e98565b84600001516001600160a01b0316816001600160a01b0316036113205760405162461bcd60e51b815260206004820152602860248201527f4469616d6f6e64426173653a205245504c41434520746172676574206973206960448201526719195b9d1a58d85b60c21b606482015260840161011b565b5083516001600160e01b031992909216600090815260208690526040902060609290921b6001600160601b0319166001600160601b0391909116179055600101611212565b505050565b805160009081906001600160a01b0316156113df5760405162461bcd60e51b815260206004820152602f60248201527f4469616d6f6e64426173653a2052454d4f564520746172676574206d7573742060448201526e6265207a65726f206164647265737360881b606482015260840161011b565b600385901c6007861660005b8560400151518110156115b95760008660400151828151811061141057611410611d4d565b6020908102919091018101516001600160e01b031981166000908152918c9052604090912054909150606081901c61145a5760405162461bcd60e51b815260040161011b90611e61565b30606082901c0361147d5760405162461bcd60e51b815260040161011b90611e98565b60008990036114a957600019909401600081815260028c016020526040902054985093600793506114b1565b600019909301925b600584901b89901b6000806001600160e01b031980841690861614611503576001600160e01b03198316600090815260208f90526040902080546001600160601b0319166001600160601b0386161790555b50506001600160e01b03198316600090815260208d90526040812055611fff600383901c1660e0600584901b1687821461156657600082815260028f016020526040902080546001600160e01b031980841c19909116908516831c17905561158a565b80836001600160e01b031916901c816001600160e01b031960001b901c198d16179b505b866000036115a857600088815260028f01602052604081208190559b505b5050600190930192506113eb915050565b5060039190911b1796939550929350505050565b60006115d76117cc565b546001600160a01b0316919050565b60006115f0610fb3565b805460405191925033916001600160a01b03909116907f8be0079c531659141344cd1fd0a4f28419497f9722a3daafe3b4186f6b6457e090600090a36116368133610fd7565b610d1760006116436117cc565b90610fd7565b60006115d7610fb3565b610d17816117f0565b8051156001600160a01b03831615146116ce5760405162461bcd60e51b815260206004820152602e60248201527f4469616d6f6e64426173653a20696e76616c696420696e697469616c697a617460448201526d696f6e20706172616d657465727360901b606482015260840161011b565b6001600160a01b038216156117c8576001600160a01b038216301461175b576001600160a01b0382163b61175b5760405162461bcd60e51b815260206004820152602e60248201527f4469616d6f6e64426173653a20696e697469616c697a6174696f6e207461726760448201526d657420686173206e6f20636f646560901b606482015260840161011b565b6000826001600160a01b0316826040516117759190611eda565b600060405180830381855af49150503d80600081146117b0576040519150601f19603f3d011682016040523d82523d6000602084013e6117b5565b606091505b5050905080611365573d6000803e3d6000fd5b5050565b7f24aa1f7b31fd188a8d3ecfb06bc55c806040e59b03bd4396283442fce661789090565b610d1781610d17816116436117cc565b80356001600160e01b03198116811461181857600080fd5b919050565b60006020828403121561182f57600080fd5b6103ba82611800565b80356001600160a01b038116811461181857600080fd5b60008083601f84011261186157600080fd5b5081356001600160401b0381111561187857600080fd5b60208301915083602082850101111561189057600080fd5b9250929050565b6000806000806000606086880312156118af57600080fd5b85356001600160401b03808211156118c657600080fd5b818801915088601f8301126118da57600080fd5b8135818111156118e957600080fd5b8960208260051b85010111156118fe57600080fd5b6020830197508096505061191460208901611838565b9450604088013591508082111561192a57600080fd5b506119378882890161184f565b969995985093965092949392505050565b6020808252825182820181905260009190848201906040850190845b818110156119895783516001600160a01b031683529284019291840191600101611964565b50909695505050505050565b60005b838110156119b0578181015183820152602001611998565b838111156119bf576000848401525b50505050565b600081518084526119dd816020860160208601611995565b601f01601f19169290920160200192915050565b6020815260006103ba60208301846119c5565b600081518084526020808501945080840160005b83811015611a3e5781516001600160e01b03191687529582019590820190600101611a18565b509495945050505050565b60006020808301818452808551808352604092508286019150828160051b87010184880160005b83811015611ab857888303603f19018552815180516001600160a01b03168452870151878401879052611aa587850182611a04565b9588019593505090860190600101611a70565b509098975050505050505050565b600060208284031215611ad857600080fd5b6103ba82611838565b6020808252825182820181905260009190848201906040850190845b818110156119895783516001600160e01b03191683529284019291840191600101611afd565b6020808252601d908201527f4f776e61626c653a2073656e646572206d757374206265206f776e6572000000604082015260600190565b634e487b7160e01b600052604160045260246000fd5b604051606081016001600160401b0381118282101715611b9257611b92611b5a565b60405290565b604051601f8201601f191681016001600160401b0381118282101715611bc057611bc0611b5a565b604052919050565b60006001600160401b03821115611be157611be1611b5a565b5060051b60200190565b6000611bfe611bf984611bc8565b611b98565b83815260208082019190600586811b860136811115611c1c57600080fd5b865b81811015611d115780356001600160401b0380821115611c3e5760008081fd5b818a01915060608236031215611c545760008081fd5b611c5c611b70565b611c6583611838565b81528683013560038110611c795760008081fd5b8188015260408381013583811115611c915760008081fd5b939093019236601f850112611ca857600092508283fd5b83359250611cb8611bf984611bc8565b83815292871b84018801928881019036851115611cd55760008081fd5b948901945b84861015611cfa57611ceb86611800565b82529489019490890190611cda565b918301919091525088525050948301948301611c1e565b5092979650505050505050565b634e487b7160e01b600052601160045260246000fd5b600060018201611d4657611d46611d1e565b5060010190565b634e487b7160e01b600052603260045260246000fd5b600060ff821660ff8103611d7957611d79611d1e565b60010192915050565b634e487b7160e01b600052602160045260246000fd5b6000606080830181845280875180835260808601915060808160051b87010192506020808a016000805b84811015611e3157898703607f19018652825180516001600160a01b031688528481015160038110611e0257634e487b7160e01b84526021600452602484fd5b88860152604090810151908801899052611e1e89890182611a04565b9750509483019491830191600101611dc2565b5050506001600160a01b0389169087015250508381036040850152611e5681866119c5565b979650505050505050565b6020808252601f908201527f4469616d6f6e64426173653a2073656c6563746f72206e6f7420666f756e6400604082015260600190565b60208082526022908201527f4469616d6f6e64426173653a2073656c6563746f7220697320696d6d757461626040820152616c6560f01b606082015260800190565b60008251611eec818460208701611995565b919091019291505056fe177481ac65e4292921c69f62d1cc7f57541261e5d61c8175cf4e36a01c9bfc93a2646970667358221220888c073203dc6d17e4d387fb367861c1d168e8aea028dfcdd75e2719d2787b8d64736f6c634300080e0033",
  "linkReferences": {},
  "deployedLinkReferences": {}
}