{
  "_format": "hh-sol-artifact-1",
  "contractName": "ERC721ServiceFacet",
  "sourceName": "contracts/token/ERC721/ERC721ServiceFacet.sol",
  "abi": [
    {
      "anonymous": false,
      "inputs": [
        {
          "indexed": true,
          "internalType": "address",
          "name": "tokenAddress",
          "type": "address"
        },
        {
          "indexed": false,
          "internalType": "uint256",
          "name": "tokenId",
          "type": "uint256"
        }
      ],
      "name": "ERC721Deposited",
      "type": "event"
    },
    {
      "anonymous": false,
      "inputs": [
        {
          "indexed": true,
          "internalType": "address",
          "name": "tokenAddress",
          "type": "address"
        }
      ],
      "name": "ERC721TokenRemoved",
      "type": "event"
    },
    {
      "anonymous": false,
      "inputs": [
        {
          "indexed": true,
          "internalType": "address",
          "name": "tokenAddress",
          "type": "address"
        }
      ],
      "name": "ERC721TokenTracked",
      "type": "event"
    },
    {
      "anonymous": false,
      "inputs": [
        {
          "indexed": true,
          "internalType": "address",
          "name": "previousOwner",
          "type": "address"
        },
        {
          "indexed": true,
          "internalType": "address",
          "name": "newOwner",
          "type": "address"
        }
      ],
      "name": "OwnershipTransferred",
      "type": "event"
    },
    {
      "anonymous": false,
      "inputs": [
        {
          "indexed": false,
          "internalType": "address",
          "name": "operator",
          "type": "address"
        },
        {
          "indexed": false,
          "internalType": "address",
          "name": "from",
          "type": "address"
        },
        {
          "indexed": false,
          "internalType": "uint256",
          "name": "tokenId",
          "type": "uint256"
        },
        {
          "indexed": false,
          "internalType": "bytes",
          "name": "data",
          "type": "bytes"
        },
        {
          "indexed": false,
          "internalType": "uint256",
          "name": "gas",
          "type": "uint256"
        }
      ],
      "name": "Received",
      "type": "event"
    },
    {
      "inputs": [
        {
          "internalType": "address",
          "name": "token",
          "type": "address"
        },
        {
          "internalType": "address",
          "name": "spender",
          "type": "address"
        },
        {
          "internalType": "uint256",
          "name": "tokenId",
          "type": "uint256"
        }
      ],
      "name": "approveERC721",
      "outputs": [],
      "stateMutability": "nonpayable",
      "type": "function"
    },
    {
      "inputs": [
        {
          "internalType": "address",
          "name": "token",
          "type": "address"
        }
      ],
      "name": "balanceOfERC721",
      "outputs": [
        {
          "internalType": "uint256",
          "name": "",
          "type": "uint256"
        }
      ],
      "stateMutability": "view",
      "type": "function"
    },
    {
      "inputs": [
        {
          "internalType": "address",
          "name": "token",
          "type": "address"
        },
        {
          "internalType": "uint256",
          "name": "tokenId",
          "type": "uint256"
        }
      ],
      "name": "depositERC721",
      "outputs": [],
      "stateMutability": "nonpayable",
      "type": "function"
    },
    {
      "inputs": [],
      "name": "erc721ServiceFacetVersion",
      "outputs": [
        {
          "internalType": "string",
          "name": "",
          "type": "string"
        }
      ],
      "stateMutability": "pure",
      "type": "function"
    },
    {
      "inputs": [],
      "name": "getAllTrackedERC721Tokens",
      "outputs": [
        {
          "internalType": "address[]",
          "name": "",
          "type": "address[]"
        }
      ],
      "stateMutability": "view",
      "type": "function"
    },
    {
      "inputs": [
        {
          "internalType": "address",
          "name": "operator",
          "type": "address"
        },
        {
          "internalType": "address",
          "name": "from",
          "type": "address"
        },
        {
          "internalType": "uint256",
          "name": "tokenId",
          "type": "uint256"
        },
        {
          "internalType": "bytes",
          "name": "data",
          "type": "bytes"
        }
      ],
      "name": "onERC721Received",
      "outputs": [
        {
          "internalType": "bytes4",
          "name": "",
          "type": "bytes4"
        }
      ],
      "stateMutability": "nonpayable",
      "type": "function"
    },
    {
      "inputs": [
        {
          "internalType": "address",
          "name": "token",
          "type": "address"
        },
        {
          "internalType": "uint256",
          "name": "tokenId",
          "type": "uint256"
        }
      ],
      "name": "ownerOfERC721",
      "outputs": [
        {
          "internalType": "address",
          "name": "owner",
          "type": "address"
        }
      ],
      "stateMutability": "view",
      "type": "function"
    },
    {
      "inputs": [
        {
          "internalType": "address",
          "name": "token",
          "type": "address"
        }
      ],
      "name": "registerERC721",
      "outputs": [],
      "stateMutability": "nonpayable",
      "type": "function"
    },
    {
      "inputs": [
        {
          "internalType": "address",
          "name": "token",
          "type": "address"
        }
      ],
      "name": "removeERC721",
      "outputs": [],
      "stateMutability": "nonpayable",
      "type": "function"
    },
    {
      "inputs": [
        {
          "internalType": "address",
          "name": "token",
          "type": "address"
        },
        {
          "internalType": "address",
          "name": "from",
          "type": "address"
        },
        {
          "internalType": "address",
          "name": "to",
          "type": "address"
        },
        {
          "internalType": "uint256",
          "name": "tokenId",
          "type": "uint256"
        }
      ],
      "name": "safeTransferERC721From",
      "outputs": [],
      "stateMutability": "nonpayable",
      "type": "function"
    },
    {
      "inputs": [
        {
          "internalType": "address",
          "name": "token",
          "type": "address"
        },
        {
          "internalType": "address",
          "name": "from",
          "type": "address"
        },
        {
          "internalType": "address",
          "name": "to",
          "type": "address"
        },
        {
          "internalType": "uint256",
          "name": "tokenId",
          "type": "uint256"
        },
        {
          "internalType": "bytes",
          "name": "data",
          "type": "bytes"
        }
      ],
      "name": "safeTransferERC721From",
      "outputs": [],
      "stateMutability": "nonpayable",
      "type": "function"
    },
    {
      "inputs": [
        {
          "internalType": "address",
          "name": "token",
          "type": "address"
        },
        {
          "internalType": "address",
          "name": "to",
          "type": "address"
        },
        {
          "internalType": "uint256",
          "name": "tokenId",
          "type": "uint256"
        }
      ],
      "name": "transferERC721",
      "outputs": [],
      "stateMutability": "nonpayable",
      "type": "function"
    },
    {
      "inputs": [
        {
          "internalType": "address",
          "name": "token",
          "type": "address"
        },
        {
          "internalType": "address",
          "name": "from",
          "type": "address"
        },
        {
          "internalType": "address",
          "name": "to",
          "type": "address"
        },
        {
          "internalType": "uint256",
          "name": "tokenId",
          "type": "uint256"
        }
      ],
      "name": "transferERC721From",
      "outputs": [],
      "stateMutability": "nonpayable",
      "type": "function"
    }
  ],
  "bytecode": "0x608060405234801561001057600080fd5b506111c0806100206000396000f3fe608060405234801561001057600080fd5b50600436106100ae5760003560e01c8062a7230a146100b3578063150b7a02146100c85780631aca6376146100f95780633c8bff3f1461010c578063468f26221461011f5780634e911490146101405780635020ac77146101605780636492339d1461017557806375ed7702146101a2578063b689876b146101b5578063d29a4bf6146101c8578063e8023c371461010c578063eb73e7ff146101db575b600080fd5b6100c66100c1366004610c1a565b6101ee565b005b6100db6100d6366004610c71565b61026b565b6040516001600160e01b031990911681526020015b60405180910390f35b6100c6610107366004610c1a565b6102bd565b6100c661011a366004610d50565b61032f565b61013261012d366004610da1565b6103af565b6040519081526020016100f0565b61015361014e366004610dbe565b610425565b6040516100f09190610dea565b610168610498565b6040516100f09190610dfe565b604080518082018252600b81526a302e312e302e616c70686160a81b602082015290516100f09190610e98565b6100c66101b0366004610da1565b6104a7565b6100c66101c3366004610da1565b6104bc565b6100c66101d6366004610dbe565b6104ce565b6100c66101e9366004610eab565b61058c565b6101f9838383610612565b60405163095ea7b360e01b81526001600160a01b0383811660048301526024820183905284169063095ea7b390604401600060405180830381600087803b15801561024357600080fd5b505af1158015610257573d6000803e3d6000fd5b50505050610266838383610652565b505050565b60007f28fa6e16458f9c24aa59ddd4085264573006dbe30304837873c7deafc702b038858585855a6040516102a4959493929190610f5d565b60405180910390a150630a85bd0160e11b949350505050565b6102c8838383610612565b604051632142170760e11b81526001600160a01b038416906342842e0e906102f890859030908690600401610fa2565b600060405180830381600087803b15801561031257600080fd5b505af1158015610326573d6000803e3d6000fd5b50505050505050565b61033b8484848461067b565b604051632142170760e11b81526001600160a01b038516906342842e0e9061036b90869086908690600401610fa2565b600060405180830381600087803b15801561038557600080fd5b505af1158015610399573d6000803e3d6000fd5b505050506103a98484848461067b565b50505050565b6040516370a0823160e01b81526000906001600160a01b038316906370a08231906103de903090600401610dea565b602060405180830381865afa1580156103fb573d6000803e3d6000fd5b505050506040513d601f19601f8201168201806040525081019061041f9190610fc6565b92915050565b6040516331a9108f60e11b8152600481018290526000906001600160a01b03841690636352211e90602401602060405180830381865afa15801561046d573d6000803e3d6000fd5b505050506040513d601f19601f820116820180604052508101906104919190610fdf565b9392505050565b60606104a26106ab565b905090565b6104b081610716565b6104b98161074f565b50565b6104c581610798565b6104b9816107d1565b6104d8828261081a565b6104e28282610854565b604051632142170760e11b81526001600160a01b038316906342842e0e9061051290339030908690600401610fa2565b600060405180830381600087803b15801561052c57600080fd5b505af1158015610540573d6000803e3d6000fd5b50505050816001600160a01b03167fa2d003d5da09c66f819593df4005002649b2d85f2bcb235106733d6655cb25a88260405161057f91815260200190565b60405180910390a25b5050565b6105988686868661067b565b604051635c46a7ef60e11b81526001600160a01b0387169063b88d4fde906105cc9088908890889088908890600401610ffc565b600060405180830381600087803b1580156105e657600080fd5b505af11580156105fa573d6000803e3d6000fd5b5050505061060a8686868661067b565b505050505050565b61061a61086d565b546001600160a01b0316331461064b5760405162461bcd60e51b815260040161064290611050565b60405180910390fd5b6102668383835b82600061065e82610891565b116103a95760405162461bcd60e51b815260040161064290611087565b83600061068782610891565b116106a45760405162461bcd60e51b815260040161064290611087565b5050505050565b60606106b56108ba565b60010180548060200260200160405190810160405280929190818152602001828054801561070c57602002820191906000526020600020905b81546001600160a01b031681526001909101906020018083116106ee575b5050505050905090565b61071e61086d565b546001600160a01b031633146107465760405162461bcd60e51b815260040161064290611050565b6104b9816108de565b6107618161075b6108ba565b90610904565b6040516001600160a01b038216907f2e2eb08597f3c54e578c640632a3690143f366bbda20cedec5404a0240f74a7790600090a250565b6107a061086d565b546001600160a01b031633146107c85760405162461bcd60e51b815260040161064290611050565b6104b981610a55565b6107e3816107dd6108ba565b90610aeb565b6040516001600160a01b038216907fee61f5a5f1ccefd3b0ea82cdf28e9278997a076ac9263c14228e68a712159f7290600090a250565b61082261086d565b546001600160a01b0316331461084a5760405162461bcd60e51b815260040161064290611050565b6105888282610b46565b61085d82610891565b60000361058857610588826107d1565b7f8a22373512790c48b83a1fe2efdd2888d4a917bcdc24d0adf63e60f67168046090565b600061089b6108ba565b6001600160a01b03909216600090815260209290925250604090205490565b7f8a53225db4186d6e89c4edb9888dba4f19d7e2ebc31c94cb90e6d498eb8a609690565b6001600160a01b0381166104b95760405162461bcd60e51b8152600401610642906110ca565b6001600160a01b0381166000908152602083905260408120549061092960018361112f565b905060018481015461093b919061112f565b8114610a01576001808501805490916109539161112f565b8154811061096357610963611146565b6000918252602090912001546001850180546001600160a01b03909216918390811061099157610991611146565b9060005260206000200160006101000a8154816001600160a01b0302191690836001600160a01b03160217905550818460000160008660010184815481106109db576109db611146565b60009182526020808320909101546001600160a01b031683528201929092526040019020555b83600101805480610a1457610a1461115c565b60008281526020808220830160001990810180546001600160a01b03191690559092019092556001600160a01b039490941681529390925250506040812055565b6001600160a01b038116610a7b5760405162461bcd60e51b8152600401610642906110ca565b610a8481610891565b156104b95760405162461bcd60e51b815260206004820152603160248201527f455243373231536572766963653a2045524337323120746f6b656e20697320616044820152701b1c9958591e481c9959da5cdd195c9959607a1b6064820152608401610642565b60018083015490600090610b00908390611172565b6001808601805491820181556000908152602080822090920180546001600160a01b039097166001600160a01b0319909716871790559485529490945250506040902055565b6001600160a01b038216610bb55760405162461bcd60e51b815260206004820152603060248201527f45524337323131536572766963653a20746f6b656e416464726573732069732060448201526f746865207a65726f206164647265737360801b6064820152608401610642565b600081116105885760405162461bcd60e51b815260206004820152601d60248201527f4552433230536572766963653a20746f6b656e4964206973207a65726f0000006044820152606401610642565b6001600160a01b03811681146104b957600080fd5b600080600060608486031215610c2f57600080fd5b8335610c3a81610c05565b92506020840135610c4a81610c05565b929592945050506040919091013590565b634e487b7160e01b600052604160045260246000fd5b60008060008060808587031215610c8757600080fd5b8435610c9281610c05565b93506020850135610ca281610c05565b92506040850135915060608501356001600160401b0380821115610cc557600080fd5b818701915087601f830112610cd957600080fd5b813581811115610ceb57610ceb610c5b565b604051601f8201601f19908116603f01168101908382118183101715610d1357610d13610c5b565b816040528281528a6020848701011115610d2c57600080fd5b82602086016020830137600060208483010152809550505050505092959194509250565b60008060008060808587031215610d6657600080fd5b8435610d7181610c05565b93506020850135610d8181610c05565b92506040850135610d9181610c05565b9396929550929360600135925050565b600060208284031215610db357600080fd5b813561049181610c05565b60008060408385031215610dd157600080fd5b8235610ddc81610c05565b946020939093013593505050565b6001600160a01b0391909116815260200190565b6020808252825182820181905260009190848201906040850190845b81811015610e3f5783516001600160a01b031683529284019291840191600101610e1a565b50909695505050505050565b6000815180845260005b81811015610e7157602081850181015186830182015201610e55565b81811115610e83576000602083870101525b50601f01601f19169290920160200192915050565b6020815260006104916020830184610e4b565b60008060008060008060a08789031215610ec457600080fd5b8635610ecf81610c05565b95506020870135610edf81610c05565b94506040870135610eef81610c05565b93506060870135925060808701356001600160401b0380821115610f1257600080fd5b818901915089601f830112610f2657600080fd5b813581811115610f3557600080fd5b8a6020828501011115610f4757600080fd5b6020830194508093505050509295509295509295565b6001600160a01b038681168252851660208201526040810184905260a060608201819052600090610f9090830185610e4b565b90508260808301529695505050505050565b6001600160a01b039384168152919092166020820152604081019190915260600190565b600060208284031215610fd857600080fd5b5051919050565b600060208284031215610ff157600080fd5b815161049181610c05565b6001600160a01b038681168252851660208201526040810184905260806060820181905281018290526000828460a0840137600060a0848401015260a0601f19601f85011683010190509695505050505050565b6020808252601d908201527f4f776e61626c653a2073656e646572206d757374206265206f776e6572000000604082015260600190565b60208082526023908201527f455243373231536572766963653a20746f6b656e206e6f7420726567697374656040820152621c995960ea1b606082015260800190565b6020808252602f908201527f455243373231536572766963653a20746f6b656e41646472657373206973207460408201526e6865207a65726f206164647265737360881b606082015260800190565b634e487b7160e01b600052601160045260246000fd5b60008282101561114157611141611119565b500390565b634e487b7160e01b600052603260045260246000fd5b634e487b7160e01b600052603160045260246000fd5b6000821982111561118557611185611119565b50019056fea26469706673582212202331731fdad0aaa94a748b19a5f60c2fc8c367f4da567b3a88cec3b4d0ea2ba964736f6c634300080e0033",
  "linkReferences": {},
  "deployedLinkReferences": {}
}