{
  "_format": "hh-sol-artifact-1",
  "contractName": "ERC20ServiceFacet",
  "sourceName": "contracts/token/ERC20/ERC20ServiceFacet.sol",
  "abi": [
    {
      "anonymous": false,
      "inputs": [
        {
          "indexed": true,
          "internalType": "address",
          "name": "tokenAddress",
          "type": "address"
        },
        {
          "indexed": false,
          "internalType": "uint256",
          "name": "amount",
          "type": "uint256"
        }
      ],
      "name": "ERC20Deposited",
      "type": "event"
    },
    {
      "anonymous": false,
      "inputs": [
        {
          "indexed": false,
          "internalType": "address",
          "name": "tokenAddress",
          "type": "address"
        }
      ],
      "name": "ERC20TokenRemoved",
      "type": "event"
    },
    {
      "anonymous": false,
      "inputs": [
        {
          "indexed": true,
          "internalType": "address",
          "name": "tokenAddress",
          "type": "address"
        }
      ],
      "name": "ERC20TokenTracked",
      "type": "event"
    },
    {
      "anonymous": false,
      "inputs": [
        {
          "indexed": true,
          "internalType": "address",
          "name": "previousOwner",
          "type": "address"
        },
        {
          "indexed": true,
          "internalType": "address",
          "name": "newOwner",
          "type": "address"
        }
      ],
      "name": "OwnershipTransferred",
      "type": "event"
    },
    {
      "inputs": [
        {
          "internalType": "address",
          "name": "token",
          "type": "address"
        },
        {
          "internalType": "address",
          "name": "spender",
          "type": "address"
        },
        {
          "internalType": "uint256",
          "name": "amount",
          "type": "uint256"
        }
      ],
      "name": "approveERC20",
      "outputs": [
        {
          "internalType": "bool",
          "name": "",
          "type": "bool"
        }
      ],
      "stateMutability": "nonpayable",
      "type": "function"
    },
    {
      "inputs": [
        {
          "internalType": "address",
          "name": "token",
          "type": "address"
        }
      ],
      "name": "balanceOfERC20",
      "outputs": [
        {
          "internalType": "uint256",
          "name": "",
          "type": "uint256"
        }
      ],
      "stateMutability": "view",
      "type": "function"
    },
    {
      "inputs": [
        {
          "internalType": "address",
          "name": "token",
          "type": "address"
        },
        {
          "internalType": "uint256",
          "name": "amount",
          "type": "uint256"
        }
      ],
      "name": "depositERC20",
      "outputs": [],
      "stateMutability": "nonpayable",
      "type": "function"
    },
    {
      "inputs": [],
      "name": "erc20ServiceFacetVersion",
      "outputs": [
        {
          "internalType": "string",
          "name": "",
          "type": "string"
        }
      ],
      "stateMutability": "pure",
      "type": "function"
    },
    {
      "inputs": [],
      "name": "getAllTrackedERC20Tokens",
      "outputs": [
        {
          "internalType": "address[]",
          "name": "",
          "type": "address[]"
        }
      ],
      "stateMutability": "view",
      "type": "function"
    },
    {
      "inputs": [
        {
          "internalType": "address",
          "name": "token",
          "type": "address"
        }
      ],
      "name": "registerERC20",
      "outputs": [],
      "stateMutability": "nonpayable",
      "type": "function"
    },
    {
      "inputs": [
        {
          "internalType": "address",
          "name": "token",
          "type": "address"
        }
      ],
      "name": "removeERC20",
      "outputs": [],
      "stateMutability": "nonpayable",
      "type": "function"
    },
    {
      "inputs": [
        {
          "internalType": "address",
          "name": "token",
          "type": "address"
        },
        {
          "internalType": "address",
          "name": "to",
          "type": "address"
        },
        {
          "internalType": "uint256",
          "name": "amount",
          "type": "uint256"
        }
      ],
      "name": "transferERC20",
      "outputs": [
        {
          "internalType": "bool",
          "name": "",
          "type": "bool"
        }
      ],
      "stateMutability": "nonpayable",
      "type": "function"
    },
    {
      "inputs": [
        {
          "internalType": "address",
          "name": "token",
          "type": "address"
        },
        {
          "internalType": "address",
          "name": "from",
          "type": "address"
        },
        {
          "internalType": "address",
          "name": "to",
          "type": "address"
        },
        {
          "internalType": "uint256",
          "name": "amount",
          "type": "uint256"
        }
      ],
      "name": "transferERC20From",
      "outputs": [
        {
          "internalType": "bool",
          "name": "",
          "type": "bool"
        }
      ],
      "stateMutability": "nonpayable",
      "type": "function"
    }
  ],
  "bytecode": "0x608060405234801561001057600080fd5b50610dde806100206000396000f3fe608060405234801561001057600080fd5b50600436106100835760003560e01c806307940ee7146100885780632137b20f146100b05780633bb810c0146100c557806397feb926146100da5780639db5dbe4146100ed578063a67755c214610100578063a8e5e4aa14610113578063d93db24f14610126578063ebe2001514610147575b600080fd5b61009b610096366004610a7a565b610174565b60405190151581526020015b60405180910390f35b6100b86101fe565b6040516100a79190610ac5565b6100d86100d3366004610b12565b61020d565b005b6100d86100e8366004610b34565b610222565b61009b6100fb366004610b5e565b6102fa565b6100d861010e366004610b12565b610380565b61009b610121366004610b5e565b610392565b610139610134366004610b12565b6103cd565b6040519081526020016100a7565b604080518082018252600b81526a302e312e302e616c70686160a81b602082015290516100a79190610b9a565b600061018285858585610443565b6040516323b872dd60e01b81526001600160a01b038616906323b872dd906101b290879087908790600401610bef565b6020604051808303816000875af11580156101d1573d6000803e3d6000fd5b505050506040513d601f19601f820116820180604052508101906101f59190610c13565b95945050505050565b606061020861048e565b905090565b610216816104f9565b61021f81610532565b50565b61022c828261057b565b61023682826105b5565b6040516323b872dd60e01b81526001600160a01b038316906323b872dd9061026690339030908690600401610bef565b6020604051808303816000875af1158015610285573d6000803e3d6000fd5b505050506040513d601f19601f820116820180604052508101906102a99190610c13565b6102b257600080fd5b816001600160a01b03167fab79632de7fe1724598ce2214eaa326d90d48064d2d3397406ecc5769316a5f6826040516102ed91815260200190565b60405180910390a25b5050565b60006103078484846105ce565b60405163a9059cbb60e01b81526001600160a01b0385169063a9059cbb906103359086908690600401610c35565b6020604051808303816000875af1158015610354573d6000803e3d6000fd5b505050506040513d601f19601f820116820180604052508101906103789190610c13565b949350505050565b6103898161060e565b61021f81610647565b600061039f8484846105ce565b60405163095ea7b360e01b81526001600160a01b0385169063095ea7b3906103359086908690600401610c35565b6040516370a0823160e01b81526000906001600160a01b038316906370a08231906103fc903090600401610c4e565b602060405180830381865afa158015610419573d6000803e3d6000fd5b505050506040513d601f19601f8201168201806040525081019061043d9190610c62565b92915050565b61044b610693565b546001600160a01b0316331461047c5760405162461bcd60e51b815260040161047390610c7b565b60405180910390fd5b610488848484846106b7565b50505050565b60606104986106e7565b6001018054806020026020016040519081016040528092919081815260200182805480156104ef57602002820191906000526020600020905b81546001600160a01b031681526001909101906020018083116104d1575b5050505050905090565b610501610693565b546001600160a01b031633146105295760405162461bcd60e51b815260040161047390610c7b565b61021f8161070b565b6105448161053e6106e7565b9061079c565b6040516001600160a01b038216907ffc0df4c937d034a35e004d3be20b22b3fa469059b9048555932f16f0b219ca4d90600090a250565b610583610693565b546001600160a01b031633146105ab5760405162461bcd60e51b815260040161047390610c7b565b6102f682826107f7565b6105be8261086c565b6000036102f6576102f682610532565b6105d6610693565b546001600160a01b031633146105fe5760405162461bcd60e51b815260040161047390610c7b565b610609838383610895565b505050565b610616610693565b546001600160a01b0316331461063e5760405162461bcd60e51b815260040161047390610c7b565b61021f816108be565b610659816106536106e7565b9061090d565b7f90387a30bef2980f7747512c8766fbb69ddb92b45d201abf34eb8915299f8d6a816040516106889190610c4e565b60405180910390a150565b7f8a22373512790c48b83a1fe2efdd2888d4a917bcdc24d0adf63e60f67168046090565b8360006106c38261086c565b116106e05760405162461bcd60e51b815260040161047390610cb2565b5050505050565b7ffcac9c4df6614b71838bf4d9c5317076838004b2a6c8cccf90e0375f6f4dafc290565b6001600160a01b0381166107315760405162461bcd60e51b815260040161047390610ce9565b61073a8161086c565b1561021f5760405162461bcd60e51b815260206004820152602c60248201527f4552433230536572766963653a20455243323020746f6b656e20697320616c7260448201526b1958591e481d1c9858dad95960a21b6064820152608401610473565b600180830154906000906107b1908390610d4d565b6001808601805491820181556000908152602080822090920180546001600160a01b039097166001600160a01b0319909716871790559485529490945250506040902055565b6001600160a01b03821661081d5760405162461bcd60e51b815260040161047390610ce9565b600081116102f65760405162461bcd60e51b815260206004820152601c60248201527b4552433230536572766963653a20616d6f756e74206973207a65726f60201b6044820152606401610473565b60006108766106e7565b6001600160a01b03909216600090815260209290925250604090205490565b8260006108a18261086c565b116104885760405162461bcd60e51b815260040161047390610cb2565b8060006108ca8261086c565b116108e75760405162461bcd60e51b815260040161047390610cb2565b6001600160a01b0382166102f65760405162461bcd60e51b815260040161047390610ce9565b6001600160a01b03811660009081526020839052604081205490610932600183610d65565b90506001848101546109449190610d65565b8114610a0a5760018085018054909161095c91610d65565b8154811061096c5761096c610d7c565b6000918252602090912001546001850180546001600160a01b03909216918390811061099a5761099a610d7c565b9060005260206000200160006101000a8154816001600160a01b0302191690836001600160a01b03160217905550818460000160008660010184815481106109e4576109e4610d7c565b60009182526020808320909101546001600160a01b031683528201929092526040019020555b83600101805480610a1d57610a1d610d92565b60008281526020808220830160001990810180546001600160a01b03191690559092019092556001600160a01b039490941681529390925250506040812055565b80356001600160a01b0381168114610a7557600080fd5b919050565b60008060008060808587031215610a9057600080fd5b610a9985610a5e565b9350610aa760208601610a5e565b9250610ab560408601610a5e565b9396929550929360600135925050565b6020808252825182820181905260009190848201906040850190845b81811015610b065783516001600160a01b031683529284019291840191600101610ae1565b50909695505050505050565b600060208284031215610b2457600080fd5b610b2d82610a5e565b9392505050565b60008060408385031215610b4757600080fd5b610b5083610a5e565b946020939093013593505050565b600080600060608486031215610b7357600080fd5b610b7c84610a5e565b9250610b8a60208501610a5e565b9150604084013590509250925092565b600060208083528351808285015260005b81811015610bc757858101830151858201604001528201610bab565b81811115610bd9576000604083870101525b50601f01601f1916929092016040019392505050565b6001600160a01b039384168152919092166020820152604081019190915260600190565b600060208284031215610c2557600080fd5b81518015158114610b2d57600080fd5b6001600160a01b03929092168252602082015260400190565b6001600160a01b0391909116815260200190565b600060208284031215610c7457600080fd5b5051919050565b6020808252601d908201527f4f776e61626c653a2073656e646572206d757374206265206f776e6572000000604082015260600190565b6020808252601f908201527f4552433230536572766963653a20746f6b656e206e6f7420747261636b656400604082015260600190565b6020808252602e908201527f4552433230536572766963653a20746f6b656e4164647265737320697320746860408201526d65207a65726f206164647265737360901b606082015260800190565b634e487b7160e01b600052601160045260246000fd5b60008219821115610d6057610d60610d37565b500190565b600082821015610d7757610d77610d37565b500390565b634e487b7160e01b600052603260045260246000fd5b634e487b7160e01b600052603160045260246000fdfea26469706673582212203a7623d6470e8f73e0d10a339be41173f6f41b86826ad82526f0d3e80fd85c4564736f6c634300080e0033",
  "linkReferences": {},
  "deployedLinkReferences": {}
}