{
  "_format": "hh-sol-artifact-1",
  "contractName": "SemaphoreGroupsFacet",
  "sourceName": "contracts/semaphore/SemaphoreGroupsFacet.sol",
  "abi": [
    {
      "anonymous": false,
      "inputs": [
        {
          "indexed": true,
          "internalType": "uint256",
          "name": "groupId",
          "type": "uint256"
        },
        {
          "indexed": true,
          "internalType": "address",
          "name": "oldAdmin",
          "type": "address"
        },
        {
          "indexed": true,
          "internalType": "address",
          "name": "newAdmin",
          "type": "address"
        }
      ],
      "name": "GroupAdminUpdated",
      "type": "event"
    },
    {
      "anonymous": false,
      "inputs": [
        {
          "indexed": true,
          "internalType": "uint256",
          "name": "groupId",
          "type": "uint256"
        },
        {
          "indexed": false,
          "internalType": "uint8",
          "name": "depth",
          "type": "uint8"
        },
        {
          "indexed": false,
          "internalType": "uint256",
          "name": "zeroValue",
          "type": "uint256"
        }
      ],
      "name": "GroupCreated",
      "type": "event"
    },
    {
      "anonymous": false,
      "inputs": [
        {
          "indexed": true,
          "internalType": "uint256",
          "name": "treeId",
          "type": "uint256"
        },
        {
          "indexed": false,
          "internalType": "uint256",
          "name": "leaf",
          "type": "uint256"
        },
        {
          "indexed": false,
          "internalType": "uint256",
          "name": "root",
          "type": "uint256"
        }
      ],
      "name": "LeafInserted",
      "type": "event"
    },
    {
      "anonymous": false,
      "inputs": [
        {
          "indexed": true,
          "internalType": "uint256",
          "name": "treeId",
          "type": "uint256"
        },
        {
          "indexed": false,
          "internalType": "uint256",
          "name": "leaf",
          "type": "uint256"
        },
        {
          "indexed": false,
          "internalType": "uint256",
          "name": "root",
          "type": "uint256"
        }
      ],
      "name": "LeafRemoved",
      "type": "event"
    },
    {
      "anonymous": false,
      "inputs": [
        {
          "indexed": true,
          "internalType": "uint256",
          "name": "groupId",
          "type": "uint256"
        },
        {
          "indexed": false,
          "internalType": "uint256",
          "name": "identityCommitment",
          "type": "uint256"
        },
        {
          "indexed": false,
          "internalType": "uint256",
          "name": "root",
          "type": "uint256"
        }
      ],
      "name": "MemberAdded",
      "type": "event"
    },
    {
      "anonymous": false,
      "inputs": [
        {
          "indexed": true,
          "internalType": "uint256",
          "name": "groupId",
          "type": "uint256"
        },
        {
          "indexed": false,
          "internalType": "uint256",
          "name": "identityCommitment",
          "type": "uint256"
        },
        {
          "indexed": false,
          "internalType": "uint256",
          "name": "root",
          "type": "uint256"
        }
      ],
      "name": "MemberRemoved",
      "type": "event"
    },
    {
      "anonymous": false,
      "inputs": [
        {
          "indexed": true,
          "internalType": "address",
          "name": "previousOwner",
          "type": "address"
        },
        {
          "indexed": true,
          "internalType": "address",
          "name": "newOwner",
          "type": "address"
        }
      ],
      "name": "OwnershipTransferred",
      "type": "event"
    },
    {
      "anonymous": false,
      "inputs": [
        {
          "indexed": false,
          "internalType": "uint256",
          "name": "id",
          "type": "uint256"
        },
        {
          "indexed": false,
          "internalType": "uint8",
          "name": "depth",
          "type": "uint8"
        }
      ],
      "name": "TreeCreated",
      "type": "event"
    },
    {
      "inputs": [
        {
          "internalType": "uint256",
          "name": "groupId",
          "type": "uint256"
        },
        {
          "internalType": "uint256",
          "name": "identityCommitment",
          "type": "uint256"
        }
      ],
      "name": "addMember",
      "outputs": [],
      "stateMutability": "nonpayable",
      "type": "function"
    },
    {
      "inputs": [
        {
          "internalType": "uint256",
          "name": "groupId",
          "type": "uint256"
        },
        {
          "internalType": "uint256[]",
          "name": "identityCommitments",
          "type": "uint256[]"
        }
      ],
      "name": "addMembers",
      "outputs": [],
      "stateMutability": "nonpayable",
      "type": "function"
    },
    {
      "inputs": [
        {
          "internalType": "uint256",
          "name": "groupId",
          "type": "uint256"
        },
        {
          "internalType": "uint8",
          "name": "depth",
          "type": "uint8"
        },
        {
          "internalType": "uint256",
          "name": "zeroValue",
          "type": "uint256"
        },
        {
          "internalType": "address",
          "name": "admin",
          "type": "address"
        }
      ],
      "name": "createGroup",
      "outputs": [],
      "stateMutability": "nonpayable",
      "type": "function"
    },
    {
      "inputs": [
        {
          "internalType": "uint256",
          "name": "groupId",
          "type": "uint256"
        }
      ],
      "name": "getDepth",
      "outputs": [
        {
          "internalType": "uint8",
          "name": "",
          "type": "uint8"
        }
      ],
      "stateMutability": "view",
      "type": "function"
    },
    {
      "inputs": [
        {
          "internalType": "uint256",
          "name": "groupId",
          "type": "uint256"
        }
      ],
      "name": "getGroupAdmin",
      "outputs": [
        {
          "internalType": "address",
          "name": "",
          "type": "address"
        }
      ],
      "stateMutability": "view",
      "type": "function"
    },
    {
      "inputs": [
        {
          "internalType": "uint256",
          "name": "groupId",
          "type": "uint256"
        }
      ],
      "name": "getNumberOfLeaves",
      "outputs": [
        {
          "internalType": "uint256",
          "name": "",
          "type": "uint256"
        }
      ],
      "stateMutability": "view",
      "type": "function"
    },
    {
      "inputs": [
        {
          "internalType": "uint256",
          "name": "groupId",
          "type": "uint256"
        }
      ],
      "name": "getRoot",
      "outputs": [
        {
          "internalType": "uint256",
          "name": "",
          "type": "uint256"
        }
      ],
      "stateMutability": "view",
      "type": "function"
    },
    {
      "inputs": [
        {
          "internalType": "uint256",
          "name": "groupId",
          "type": "uint256"
        },
        {
          "internalType": "uint256",
          "name": "identityCommitment",
          "type": "uint256"
        },
        {
          "internalType": "uint256[]",
          "name": "proofSiblings",
          "type": "uint256[]"
        },
        {
          "internalType": "uint8[]",
          "name": "proofPathIndices",
          "type": "uint8[]"
        }
      ],
      "name": "removeMember",
      "outputs": [],
      "stateMutability": "nonpayable",
      "type": "function"
    },
    {
      "inputs": [],
      "name": "semaphoreGroupsFacetVersion",
      "outputs": [
        {
          "internalType": "string",
          "name": "",
          "type": "string"
        }
      ],
      "stateMutability": "pure",
      "type": "function"
    },
    {
      "inputs": [
        {
          "internalType": "uint256",
          "name": "groupId",
          "type": "uint256"
        },
        {
          "internalType": "address",
          "name": "newAdmin",
          "type": "address"
        }
      ],
      "name": "updateGroupAdmin",
      "outputs": [],
      "stateMutability": "nonpayable",
      "type": "function"
    }
  ],
  "bytecode": "0x608060405234801561001057600080fd5b506118b7806100206000396000f3fe608060405234801561001057600080fd5b506004361061008e5760003560e01c806304245371146100935780631783efc3146100a85780631c57d8ca146100bb57806343989f85146100ce578063568ee826146100e157806371749b3d146100f457806375e618c91461012a5780639b24b3b01461014f578063a9961c9414610170578063b9c78c2b1461019b575b600080fd5b6100a66100a1366004611251565b6101ae565b005b6100a66100b636600461131a565b6101fe565b6100a66100c9366004611369565b610216565b6100a66100dc3660046113fa565b61023d565b6100a66100ef36600461147c565b610261565b604080518082018252600b81526a302e312e302e616c70686160a81b6020820152905161012191906114a8565b60405180910390f35b61013d6101383660046114fd565b61029f565b60405160ff9091168152602001610121565b61016261015d3660046114fd565b6102b0565b604051908152602001610121565b61018361017e3660046114fd565b6102bb565b6040516001600160a01b039091168152602001610121565b6101626101a93660046114fd565b6102c6565b6101b882826102d1565b60005b81518110156101f9576101e7838383815181106101da576101da611516565b60200260200101516101fe565b806101f181611542565b9150506101bb565b505050565b61020882826102d1565b6102128282610337565b5050565b61022284848484610390565b61022d848484610415565b610237848261045b565b50505050565b61024b8686868686866104be565b610259868686868686610525565b505050505050565b61026b82826102d1565b610275828261045b565b6040516001600160a01b038216903390849060008051602061186283398151915290600090a45050565b60006102aa82610585565b92915050565b60006102aa826105a3565b60006102aa826105c1565b60006102aa826105e5565b816102db81610585565b60ff166000036103065760405162461bcd60e51b81526004016102fd9061155b565b60405180910390fd5b8233610311826105c1565b6001600160a01b0316146102375760405162461bcd60e51b81526004016102fd906115a2565b6103418282610603565b600061034c836105a3565b604080518481526020810183905291925084917f03fd27265b7dd1f55558bedc22a58fa3b10afb1be776e614bd5a7ba7b949940691015b60405180910390a2505050565b7f8a22373512790c48b83a1fe2efdd2888d4a917bcdc24d0adf63e60f671680460546001600160a01b031633146104095760405162461bcd60e51b815260206004820152601d60248201527f4f776e61626c653a2073656e646572206d757374206265206f776e657200000060448201526064016102fd565b61023784848484610837565b610420838383610957565b6040805160ff841681526020810183905284917fc3082aa494e9088c2c9f0fb62a0b6bd46e6699acb94cfba35be29b95a93f68c89101610383565b6104948282610468610b22565b6000928352602052604090912080546001600160a01b0319166001600160a01b03909216919091179055565b6040516001600160a01b038216906000908490600080516020611862833981519152908390a45050565b856104c881610585565b60ff166000036104ea5760405162461bcd60e51b81526004016102fd9061155b565b86336104f5826105c1565b6001600160a01b03161461051b5760405162461bcd60e51b81526004016102fd906115a2565b5050505050505050565b610533868686868686610b46565b600061053e876105a3565b604080518881526020810183905291925088917fe270325ded177064d7bda473e6519ef40a291058c41286f71a6e4872f1e9ab5c910160405180910390a250505050505050565b600061058f610e45565b600092835260205250604090205460ff1690565b60006105ad610e45565b600092835260205250604090206001015490565b60006105cb610b22565b60009283526020525060409020546001600160a01b031690565b60006105ef610e45565b600092835260205250604090206002015490565b600061060e836105e5565b905081600061061b610e45565b600086815260209190915260409020905060008051602061184283398151915284106106595760405162461bcd60e51b81526004016102fd906115ed565b61066285610585565b61066d906002611729565b83106106c75760405162461bcd60e51b815260206004820152602360248201527f496e6372656d656e74616c42696e617279547265653a207472656520697320666044820152621d5b1b60ea1b60648201526084016102fd565b60005b6106d386610585565b60ff168160ff1610156107fd576106eb600285611755565b600003610737576040518060400160405280848152602001610710888460ff16610e69565b905260ff8216600090815260048401602052604090206107319160026111e8565b50610752565b60ff8116600090815260048301602052604090208390600101555b60ff81166000908152600480840160205260409182902091516314d2f97b60e11b815273__$6d81c1d65787d697695b56adedd76022ba$__926329a5f2f69261079b9201611769565b602060405180830381865af41580156107b8573d6000803e3d6000fd5b505050506040513d601f19601f820116820180604052508101906107dc919061179a565b92506107e96002856117b3565b9350806107f5816117c7565b9150506106ca565b5061081e858361080b610e45565b6000928352602052604090912060010155565b6108308561082a610e45565b90610e93565b5050505050565b83600080516020611842833981519152811061088c5760405162461bcd60e51b81526020600482015260146024820152735343414c41525f4f55545f4f465f424f554e445360601b60448201526064016102fd565b61089585610585565b60ff16156108f15760405162461bcd60e51b8152602060048201526024808201527f53656d6170686f726547726f757073426173653a2047524f55505f49445f45586044820152634953545360e01b60648201526084016102fd565b6001600160a01b0382166108305760405162461bcd60e51b815260206004820152602760248201527f53656d6170686f726547726f757073426173653a2041444d494e5f5a45524f5f6044820152664144445245535360c81b60648201526084016102fd565b60008051602061184283398151915281106109845760405162461bcd60e51b81526004016102fd906115ed565b60008260ff1611801561099b5750602060ff831611155b610a0a5760405162461bcd60e51b815260206004820152603a60248201527f496e6372656d656e74616c42696e617279547265653a20747265652064657074604482015279341036bab9ba103132903132ba3bb2b2b710189030b73210199960311b60648201526084016102fd565b610a378383610a17610e45565b60009283526020526040909120805460ff191660ff909216919091179055565b60005b8260ff168160ff161015610b1457610a77848260ff1684610a59610e45565b60009384526020908152604080852093855260039093019052912055565b6040805180820182528381526020810184905290516314d2f97b60e11b815273__$6d81c1d65787d697695b56adedd76022ba$__916329a5f2f691610abf91906004016117e6565b602060405180830381865af4158015610adc573d6000803e3d6000fd5b505050506040513d601f19601f82011682018060405250810190610b00919061179a565b915080610b0c816117c7565b915050610a3a565b506101f9838261080b610e45565b7f44acce4aaef954270f6d29b389ff2c226212662a4788fd9168a1db9aacc1d25e90565b610b54868686868686610ebe565b610bbc5760405162461bcd60e51b815260206004820152603360248201527f496e6372656d656e74616c42696e617279547265653a206c656166206973206e6044820152726f742070617274206f6620746865207472656560681b60648201526084016102fd565b6000610bc6610e45565b6000888152602091909152604081209150610be18882610e69565b905060005b610bef89610585565b60ff168160ff161015610e3b5784848260ff16818110610c1157610c11611516565b9050602002016020810190610c26919061180e565b60ff16600003610d2f5760ff8116600090815260048401602052604090206001015487878360ff16818110610c5d57610c5d611516565b9050602002013503610c815760ff8116600090815260048401602052604090208290555b73__$6d81c1d65787d697695b56adedd76022ba$__6329a5f2f660405180604001604052808581526020018a8a8660ff16818110610cc157610cc1611516565b905060200201358152506040518263ffffffff1660e01b8152600401610ce791906117e6565b602060405180830381865af4158015610d04573d6000803e3d6000fd5b505050506040513d601f19601f82011682018060405250810190610d28919061179a565b9150610e29565b60ff811660008181526004850160205260409020549088908890818110610d5857610d58611516565b9050602002013503610d7f5760ff8116600090815260048401602052604090208290600101555b73__$6d81c1d65787d697695b56adedd76022ba$__6329a5f2f660405180604001604052808a8a8660ff16818110610db957610db9611516565b905060200201358152602001858152506040518263ffffffff1660e01b8152600401610de591906117e6565b602060405180830381865af4158015610e02573d6000803e3d6000fd5b505050506040513d601f19601f82011682018060405250810190610e26919061179a565b91505b80610e33816117c7565b915050610be6565b5061051b888261080b5b7f18009942081384ebf013f551c6956278f8f7e6b5ba58de96a877e7d2e169e67090565b6000610e73610e45565b600093845260209081526040808520938552600390930190525090205490565b6000818152602083905260408120600201805460019290610eb5908490611829565b90915550505050565b60006000805160206118428339815191528610610eed5760405162461bcd60e51b81526004016102fd906115ed565b610ef687610585565b60ff1682148015610f115750610f0b87610585565b60ff1684145b610f7a5760405162461bcd60e51b815260206004820152603460248201527f496e6372656d656e74616c42696e617279547265653a206c656e677468206f66604482015273081c185d1a081a5cc81b9bdd0818dbdc9c9958dd60621b60648201526084016102fd565b8560005b610f8789610585565b60ff168160ff1610156111d25760008051602061184283398151915287878360ff16818110610fb857610fb8611516565b9050602002013510611034576040805162461bcd60e51b81526020600482015260248101919091527f496e6372656d656e74616c42696e617279547265653a207369626c696e67206e60448201527f6f6465206d757374206265203c20534e41524b5f5343414c41525f4649454c4460648201526084016102fd565b84848260ff1681811061104957611049611516565b905060200201602081019061105e919061180e565b60ff166000036111165773__$6d81c1d65787d697695b56adedd76022ba$__6329a5f2f660405180604001604052808581526020018a8a8660ff168181106110a8576110a8611516565b905060200201358152506040518263ffffffff1660e01b81526004016110ce91906117e6565b602060405180830381865af41580156110eb573d6000803e3d6000fd5b505050506040513d601f19601f8201168201806040525081019061110f919061179a565b91506111c0565b73__$6d81c1d65787d697695b56adedd76022ba$__6329a5f2f660405180604001604052808a8a8660ff1681811061115057611150611516565b905060200201358152602001858152506040518263ffffffff1660e01b815260040161117c91906117e6565b602060405180830381865af4158015611199573d6000803e3d6000fd5b505050506040513d601f19601f820116820180604052508101906111bd919061179a565b91505b806111ca816117c7565b915050610f7e565b506111dc886105a3565b14979650505050505050565b8260028101928215611216579160200282015b828111156112165782518255916020019190600101906111fb565b50611222929150611226565b5090565b5b808211156112225760008155600101611227565b634e487b7160e01b600052604160045260246000fd5b6000806040838503121561126457600080fd5b823591506020808401356001600160401b038082111561128357600080fd5b818601915086601f83011261129757600080fd5b8135818111156112a9576112a961123b565b8060051b604051601f19603f830116810181811085821117156112ce576112ce61123b565b6040529182528482019250838101850191898311156112ec57600080fd5b938501935b8285101561130a578435845293850193928501926112f1565b8096505050505050509250929050565b6000806040838503121561132d57600080fd5b50508035926020909101359150565b803560ff8116811461134d57600080fd5b919050565b80356001600160a01b038116811461134d57600080fd5b6000806000806080858703121561137f57600080fd5b8435935061138f6020860161133c565b9250604085013591506113a460608601611352565b905092959194509250565b60008083601f8401126113c157600080fd5b5081356001600160401b038111156113d857600080fd5b6020830191508360208260051b85010111156113f357600080fd5b9250929050565b6000806000806000806080878903121561141357600080fd5b863595506020870135945060408701356001600160401b038082111561143857600080fd5b6114448a838b016113af565b9096509450606089013591508082111561145d57600080fd5b5061146a89828a016113af565b979a9699509497509295939492505050565b6000806040838503121561148f57600080fd5b8235915061149f60208401611352565b90509250929050565b600060208083528351808285015260005b818110156114d5578581018301518582016040015282016114b9565b818111156114e7576000604083870101525b50601f01601f1916929092016040019392505050565b60006020828403121561150f57600080fd5b5035919050565b634e487b7160e01b600052603260045260246000fd5b634e487b7160e01b600052601160045260246000fd5b6000600182016115545761155461152c565b5060010190565b60208082526027908201527f53656d6170686f726547726f757073426173653a2047524f55505f49445f4e4f6040820152661517d1561254d560ca1b606082015260800190565b6020808252602b908201527f53656d6170686f726547726f757073426173653a2053454e4445525f4e4f4e5f60408201526a23a927aaa82fa0a226a4a760a91b606082015260800190565b60208082526038908201527f496e6372656d656e74616c42696e617279547265653a206c656166206d757374604082015277081899480f0814d3905492d7d4d0d053105497d19251531160421b606082015260800190565b600181815b808511156116805781600019048211156116665761166661152c565b8085161561167357918102915b93841c939080029061164a565b509250929050565b600082611697575060016102aa565b816116a4575060006102aa565b81600181146116ba57600281146116c4576116e0565b60019150506102aa565b60ff8411156116d5576116d561152c565b50506001821b6102aa565b5060208310610133831016604e8410600b8410161715611703575081810a6102aa565b61170d8383611645565b80600019048211156117215761172161152c565b029392505050565b600061173860ff841683611688565b9392505050565b634e487b7160e01b600052601260045260246000fd5b6000826117645761176461173f565b500690565b60408101818360005b6002811015611791578154835260209092019160019182019101611772565b50505092915050565b6000602082840312156117ac57600080fd5b5051919050565b6000826117c2576117c261173f565b500490565b600060ff821660ff81036117dd576117dd61152c565b60010192915050565b60408101818360005b60028110156117915781518352602092830192909101906001016117ef565b60006020828403121561182057600080fd5b6117388261133c565b6000821982111561183c5761183c61152c565b50019056fe30644e72e131a029b85045b68181585d2833e84879b9709143e1f593f00000010ba83579a0e79193ef649b9f5a8759d35af086ba62a3e207b52e4a8ae30d49e3a2646970667358221220827295ce951d5e46e660341d1afdb0e64b15f65e7b3e4b1a992047308f53c8ab64736f6c634300080e0033",
  "linkReferences": {
    "contracts/utils/cryptography/Hashes.sol": {
      "PoseidonT3": [
        {
          "length": 20,
          "start": 1943
        },
        {
          "length": 20,
          "start": 2744
        },
        {
          "length": 20,
          "start": 3235
        },
        {
          "length": 20,
          "start": 3489
        },
        {
          "length": 20,
          "start": 4234
        },
        {
          "length": 20,
          "start": 4408
        }
      ]
    }
  },
  "deployedLinkReferences": {
    "contracts/utils/cryptography/Hashes.sol": {
      "PoseidonT3": [
        {
          "length": 20,
          "start": 1911
        },
        {
          "length": 20,
          "start": 2712
        },
        {
          "length": 20,
          "start": 3203
        },
        {
          "length": 20,
          "start": 3457
        },
        {
          "length": 20,
          "start": 4202
        },
        {
          "length": 20,
          "start": 4376
        }
      ]
    }
  }
}