{
  "_format": "hh-sol-artifact-1",
  "contractName": "GuardianFacet",
  "sourceName": "contracts/guardian/GuardianFacet.sol",
  "abi": [
    {
      "anonymous": false,
      "inputs": [
        {
          "indexed": true,
          "internalType": "uint256",
          "name": "groupId",
          "type": "uint256"
        },
        {
          "indexed": true,
          "internalType": "address",
          "name": "oldAdmin",
          "type": "address"
        },
        {
          "indexed": true,
          "internalType": "address",
          "name": "newAdmin",
          "type": "address"
        }
      ],
      "name": "GroupAdminUpdated",
      "type": "event"
    },
    {
      "anonymous": false,
      "inputs": [
        {
          "indexed": true,
          "internalType": "uint256",
          "name": "groupId",
          "type": "uint256"
        },
        {
          "indexed": false,
          "internalType": "uint8",
          "name": "depth",
          "type": "uint8"
        },
        {
          "indexed": false,
          "internalType": "uint256",
          "name": "zeroValue",
          "type": "uint256"
        }
      ],
      "name": "GroupCreated",
      "type": "event"
    },
    {
      "anonymous": false,
      "inputs": [
        {
          "indexed": true,
          "internalType": "uint256",
          "name": "hashId",
          "type": "uint256"
        },
        {
          "indexed": false,
          "internalType": "uint256",
          "name": "effectiveTime",
          "type": "uint256"
        }
      ],
      "name": "GuardianAdded",
      "type": "event"
    },
    {
      "anonymous": false,
      "inputs": [
        {
          "indexed": true,
          "internalType": "uint256",
          "name": "hashId",
          "type": "uint256"
        },
        {
          "indexed": false,
          "internalType": "uint256",
          "name": "effectiveTime",
          "type": "uint256"
        }
      ],
      "name": "GuardianRemoved",
      "type": "event"
    },
    {
      "anonymous": false,
      "inputs": [
        {
          "indexed": true,
          "internalType": "uint256",
          "name": "treeId",
          "type": "uint256"
        },
        {
          "indexed": false,
          "internalType": "uint256",
          "name": "leaf",
          "type": "uint256"
        },
        {
          "indexed": false,
          "internalType": "uint256",
          "name": "root",
          "type": "uint256"
        }
      ],
      "name": "LeafInserted",
      "type": "event"
    },
    {
      "anonymous": false,
      "inputs": [
        {
          "indexed": true,
          "internalType": "uint256",
          "name": "treeId",
          "type": "uint256"
        },
        {
          "indexed": false,
          "internalType": "uint256",
          "name": "leaf",
          "type": "uint256"
        },
        {
          "indexed": false,
          "internalType": "uint256",
          "name": "root",
          "type": "uint256"
        }
      ],
      "name": "LeafRemoved",
      "type": "event"
    },
    {
      "anonymous": false,
      "inputs": [
        {
          "indexed": true,
          "internalType": "uint256",
          "name": "groupId",
          "type": "uint256"
        },
        {
          "indexed": false,
          "internalType": "uint256",
          "name": "identityCommitment",
          "type": "uint256"
        },
        {
          "indexed": false,
          "internalType": "uint256",
          "name": "root",
          "type": "uint256"
        }
      ],
      "name": "MemberAdded",
      "type": "event"
    },
    {
      "anonymous": false,
      "inputs": [
        {
          "indexed": true,
          "internalType": "uint256",
          "name": "groupId",
          "type": "uint256"
        },
        {
          "indexed": false,
          "internalType": "uint256",
          "name": "identityCommitment",
          "type": "uint256"
        },
        {
          "indexed": false,
          "internalType": "uint256",
          "name": "root",
          "type": "uint256"
        }
      ],
      "name": "MemberRemoved",
      "type": "event"
    },
    {
      "anonymous": false,
      "inputs": [
        {
          "indexed": true,
          "internalType": "address",
          "name": "previousOwner",
          "type": "address"
        },
        {
          "indexed": true,
          "internalType": "address",
          "name": "newOwner",
          "type": "address"
        }
      ],
      "name": "OwnershipTransferred",
      "type": "event"
    },
    {
      "anonymous": false,
      "inputs": [
        {
          "indexed": false,
          "internalType": "uint256",
          "name": "id",
          "type": "uint256"
        },
        {
          "indexed": false,
          "internalType": "uint8",
          "name": "depth",
          "type": "uint8"
        }
      ],
      "name": "TreeCreated",
      "type": "event"
    },
    {
      "inputs": [
        {
          "internalType": "uint256",
          "name": "hashId",
          "type": "uint256"
        }
      ],
      "name": "addGuardian",
      "outputs": [
        {
          "internalType": "bool",
          "name": "",
          "type": "bool"
        }
      ],
      "stateMutability": "nonpayable",
      "type": "function"
    },
    {
      "inputs": [
        {
          "internalType": "uint256",
          "name": "groupId",
          "type": "uint256"
        },
        {
          "internalType": "uint256",
          "name": "hashId",
          "type": "uint256"
        },
        {
          "internalType": "uint256",
          "name": "identityCommitment",
          "type": "uint256"
        }
      ],
      "name": "addGuardian",
      "outputs": [],
      "stateMutability": "nonpayable",
      "type": "function"
    },
    {
      "inputs": [
        {
          "internalType": "uint256",
          "name": "groupId",
          "type": "uint256"
        },
        {
          "internalType": "uint256[]",
          "name": "identityCommitments",
          "type": "uint256[]"
        }
      ],
      "name": "addGuardians",
      "outputs": [],
      "stateMutability": "nonpayable",
      "type": "function"
    },
    {
      "inputs": [],
      "name": "cancelPendingGuardians",
      "outputs": [],
      "stateMutability": "nonpayable",
      "type": "function"
    },
    {
      "inputs": [
        {
          "internalType": "uint256",
          "name": "hashId",
          "type": "uint256"
        }
      ],
      "name": "getGuardian",
      "outputs": [
        {
          "components": [
            {
              "internalType": "uint256",
              "name": "hashId",
              "type": "uint256"
            },
            {
              "internalType": "uint8",
              "name": "status",
              "type": "uint8"
            },
            {
              "internalType": "uint64",
              "name": "timestamp",
              "type": "uint64"
            }
          ],
          "internalType": "struct GuardianStorage.Guardian",
          "name": "",
          "type": "tuple"
        }
      ],
      "stateMutability": "view",
      "type": "function"
    },
    {
      "inputs": [
        {
          "internalType": "bool",
          "name": "includePendingAddition",
          "type": "bool"
        }
      ],
      "name": "getGuardians",
      "outputs": [
        {
          "components": [
            {
              "internalType": "uint256",
              "name": "hashId",
              "type": "uint256"
            },
            {
              "internalType": "uint8",
              "name": "status",
              "type": "uint8"
            },
            {
              "internalType": "uint64",
              "name": "timestamp",
              "type": "uint64"
            }
          ],
          "internalType": "struct GuardianStorage.Guardian[]",
          "name": "",
          "type": "tuple[]"
        }
      ],
      "stateMutability": "view",
      "type": "function"
    },
    {
      "inputs": [],
      "name": "guardianFacetVersion",
      "outputs": [
        {
          "internalType": "string",
          "name": "",
          "type": "string"
        }
      ],
      "stateMutability": "pure",
      "type": "function"
    },
    {
      "inputs": [
        {
          "internalType": "bool",
          "name": "includePendingAddition",
          "type": "bool"
        }
      ],
      "name": "numGuardians",
      "outputs": [
        {
          "internalType": "uint256",
          "name": "",
          "type": "uint256"
        }
      ],
      "stateMutability": "view",
      "type": "function"
    },
    {
      "inputs": [
        {
          "internalType": "uint256",
          "name": "hashId",
          "type": "uint256"
        }
      ],
      "name": "removeGuardian",
      "outputs": [
        {
          "internalType": "bool",
          "name": "",
          "type": "bool"
        }
      ],
      "stateMutability": "nonpayable",
      "type": "function"
    },
    {
      "inputs": [
        {
          "internalType": "uint256",
          "name": "groupId",
          "type": "uint256"
        },
        {
          "internalType": "uint256",
          "name": "hashId",
          "type": "uint256"
        },
        {
          "internalType": "uint256",
          "name": "identityCommitment",
          "type": "uint256"
        },
        {
          "internalType": "uint256[]",
          "name": "proofSiblings",
          "type": "uint256[]"
        },
        {
          "internalType": "uint8[]",
          "name": "proofPathIndices",
          "type": "uint8[]"
        }
      ],
      "name": "removeGuardian",
      "outputs": [],
      "stateMutability": "nonpayable",
      "type": "function"
    },
    {
      "inputs": [
        {
          "internalType": "uint256[]",
          "name": "guardians",
          "type": "uint256[]"
        }
      ],
      "name": "removeGuardians",
      "outputs": [],
      "stateMutability": "nonpayable",
      "type": "function"
    },
    {
      "inputs": [
        {
          "components": [
            {
              "internalType": "uint256",
              "name": "hashId",
              "type": "uint256"
            }
          ],
          "internalType": "struct IGuardianInternal.GuardianDTO[]",
          "name": "guardians",
          "type": "tuple[]"
        }
      ],
      "name": "requireMajority",
      "outputs": [],
      "stateMutability": "view",
      "type": "function"
    },
    {
      "inputs": [
        {
          "internalType": "uint256[]",
          "name": "guardians",
          "type": "uint256[]"
        }
      ],
      "name": "setInitialGuardians",
      "outputs": [],
      "stateMutability": "nonpayable",
      "type": "function"
    }
  ],
  "bytecode": "0x608060405234801561001057600080fd5b506126a4806100206000396000f3fe608060405234801561001057600080fd5b50600436106100af5760003560e01c80630206b440146100b457806305b9e533146100dd57806331076217146100f25780634cc499d7146101155780635136bbda146101355780639872581914610148578063a4a9ba73146100f0578063a7ba59f114610175578063a8f9cf3a14610188578063a9c33b741461019b578063b79edce7146101ae578063c3b9d44f146101c1578063f5a857ff146101e2575b600080fd5b6100c76100c2366004611e27565b6101f5565b6040516100d49190611e6e565b60405180910390f35b6100f06100eb366004611f07565b610206565b005b610105610100366004611f48565b610215565b60405190151581526020016100d4565b610128610123366004611f48565b610229565b6040516100d49190611f61565b610105610143366004611f48565b610287565b604080518082018252600b81526a302e312e302e616c70686160a81b602082015290516100d49190611f6f565b6100f0610183366004612074565b61029b565b6100f06101963660046120ba565b610320565b6100f06101a93660046120ba565b610390565b6100f06101bc3660046120ee565b610437565b6101d46101cf366004611e27565b6104cb565b6040519081526020016100d4565b6100f06101f036600461217a565b6104d6565b606061020082610556565b92915050565b610210828261068f565b505050565b600061022082610856565b6102008261088f565b610231611dbd565b600061023c8361094f565b9050600081116102675760405162461bcd60e51b815260040161025e906121a6565b60405180910390fd5b60006102746001836121f2565b905061027f8161096a565b949350505050565b6000610292826109db565b61020082610a14565b816102a581610afb565b60ff166000036102c75760405162461bcd60e51b815260040161025e90612209565b6102d082610b19565b6102d982610320565b60005b825181101561031a57610308848483815181106102fb576102fb612250565b6020026020010151610b52565b8061031281612266565b9150506102dc565b50505050565b61032981610b19565b60005b815181101561038b57600082828151811061034957610349612250565b6020026020010151905061035c81610215565b6103785760405162461bcd60e51b815260040161025e9061227f565b508061038381612266565b91505061032c565b505b50565b61039981610baa565b60005b815181101561038b5760008282815181106103b9576103b9612250565b602002602001015190506103cc81610287565b6104245760405162461bcd60e51b815260206004820152602360248201527f477561726469616e3a204641494c45445f544f5f52454d4f56455f475541524460448201526224a0a760e91b606482015260840161025e565b508061042f81612266565b91505061039c565b610440866109db565b61044986610a14565b6104a65760405162461bcd60e51b815260206004820152602860248201527f477561726469616e46616365743a204641494c45445f544f5f52454d4f56455f60448201526723aaa0a92224a0a760c11b606482015260840161025e565b6104b4878686868686610be3565b6104c2878686868686610c4a565b50505050505050565b600061020082610cb2565b6104df82610856565b6104e98382610d21565b6104f28261088f565b61054c5760405162461bcd60e51b815260206004820152602560248201527f477561726469616e46616365743a204641494c45445f544f5f4144445f475541604482015264292224a0a760d91b606482015260840161025e565b6102108382610b52565b60606000610562610d7e565b600101546001600160401b0381111561057d5761057d611fc4565b6040519080825280602002602001820160405280156105b657816020015b6105a3611dbd565b81526020019060019003908161059b5790505b5090506000805b6105c5610d7e565b600101548110156106865760006105da610d7e565b60010182815481106105ee576105ee612250565b600091825260209182902060408051606081018252600293909302909101805483526001015460ff8116938301939093526101009092046001600160401b03169181019190915290506106418187610da2565b15610673578084848151811061065957610659612250565b6020026020010181905250828061066f90612266565b9350505b508061067e81612266565b9150506105bd565b50909392505050565b60008181036106a057506000610200565b6000806106ad6000610556565b905060008151116106ef5760405162461bcd60e51b815260206004820152600c60248201526b4e4f5f475541524449414e5360a01b604482015260640161025e565b60005b84811015610838578286868381811061070d5761070d612250565b905060200201600001351161075c5760405162461bcd60e51b815260206004820152601560248201527424a72b20a624a22fa9a4a3a722a929afa7a92222a960591b604482015260640161025e565b85858281811061076e5761076e612250565b9050602002016000013592506000805b83518110156107e15787878481811061079957610799612250565b905060200201600001358482815181106107b5576107b5612250565b602002602001015160000151036107cf57600191506107e1565b806107d981612266565b91505061077e565b50806108255760405162461bcd60e51b815260206004820152601360248201527229a4a3a722a92fa727aa2fa3aaa0a92224a0a760691b604482015260640161025e565b508061083081612266565b9150506106f2565b508051610849600182811c906122b4565b9094101595945050505050565b61085e610dcb565b546001600160a01b031633146108865760405162461bcd60e51b815260040161025e906122cc565b61038d81610def565b60008061089c6001610cb2565b9050600a81106108be5760405162461bcd60e51b815260040161025e90612303565b4260038211156108d8576108d56203f480426122b4565b90505b60006108ee85836108e7610d7e565b9190610e1e565b90508061090d5760405162461bcd60e51b815260040161025e9061227f565b847ffcdfd5aeb97f499ca134ed43f010f2a4f5b0ab73d317ac27246a066a050a73af8360405161093f91815260200190565b60405180910390a2949350505050565b6000610959610d7e565b600092835260205250604090205490565b610972611dbd565b61097a610d7e565b600101828154811061098e5761098e612250565b600091825260209182902060408051606081018252600293909302909101805483526001015460ff8116938301939093526101009092046001600160401b03169181019190915292915050565b6109e3610dcb565b546001600160a01b03163314610a0b5760405162461bcd60e51b815260040161025e906122cc565b61038d81610ed3565b600080610a246203f480426122b4565b90506000610a318461094f565b90506000610a406001836121f2565b90506000610a4c610d7e565b6001018281548110610a6057610a60612250565b600091825260209182902060408051606081018252600293909302909101805483526001015460ff8116938301939093526101009092046001600160401b0316918101919091529050610ab38185610f95565b9350857f2264fa092e5819982f4edca5b7e9c6318a16dc3e03673510429c078656dea45c85604051610ae791815260200190565b60405180910390a250600195945050505050565b6000610b05611051565b600092835260205250604090205460ff1690565b610b21610dcb565b546001600160a01b03163314610b495760405162461bcd60e51b815260040161025e906122cc565b61038d81611075565b610b5c82826111dd565b6000610b6783611411565b604080518481526020810183905291925084917f03fd27265b7dd1f55558bedc22a58fa3b10afb1be776e614bd5a7ba7b9499406910160405180910390a2505050565b610bb2610dcb565b546001600160a01b03163314610bda5760405162461bcd60e51b815260040161025e906122cc565b61038d8161142f565b85610bed81610afb565b60ff16600003610c0f5760405162461bcd60e51b815260040161025e90612209565b8633610c1a82611480565b6001600160a01b031614610c405760405162461bcd60e51b815260040161025e90612339565b5050505050505050565b610c588686868686866114ba565b6000610c6387611411565b604080518881526020810183905291925088917fe270325ded177064d7bda473e6519ef40a291058c41286f71a6e4872f1e9ab5c910160405180910390a250505050505050565b505050505050565b600080610cbe83610556565b905060005b8151811015610d1a576000828281518110610ce057610ce0612250565b60200260200101519050610cf48186610da2565b15610d075783610d0381612266565b9450505b5080610d1281612266565b915050610cc3565b5050919050565b81610d2b81610afb565b60ff16600003610d4d5760405162461bcd60e51b815260040161025e90612209565b8233610d5882611480565b6001600160a01b03161461031a5760405162461bcd60e51b815260040161025e90612339565b7f45859138d8d663d06b2ba6d2358a3e0ff977596ccb2ad702c7f89e6584675d3490565b6000610dad836117bd565b80610dc45750818015610dc45750610dc4836117e8565b9392505050565b7f8a22373512790c48b83a1fe2efdd2888d4a917bcdc24d0adf63e60f67168046090565b6000610dfb6001610cb2565b9050600a81111561038b5760405162461bcd60e51b815260040161025e90612303565b6001808401546000918290610e349083906122b4565b9050856001016040518060600160405280878152602001600160ff168152602001610e5e87611812565b6001600160401b03908116909152825460018181018555600094855260208086208551600290940201928355808501519282018054604096870151909516610100026001600160481b031990951660ff9094169390931793909317909155888452908990529120919091559150509392505050565b80600181600003610ef65760405162461bcd60e51b815260040161025e90612384565b6000610f018361094f565b905060008111610f235760405162461bcd60e51b815260040161025e906121a6565b6000610f306001836121f2565b90506000610f3d8261096a565b9050610f498185610da2565b610caa5760405162461bcd60e51b815260206004820152601d60248201527f477561726469616e3a20475541524449414e5f4e4f545f414354495645000000604482015260640161025e565b6000610fa0836117bd565b15610ffa5760006020840152610fb582611812565b6001600160401b031660408401528251610fd790610fd1610d7e565b9061186e565b610ff35760405162461bcd60e51b815260040161025e906123c6565b5080610200565b611003836117e8565b15611048576000602084018190526040840152825161102490610fd1610d7e565b6110405760405162461bcd60e51b815260040161025e906123c6565b506000610200565b50600092915050565b7f18009942081384ebf013f551c6956278f8f7e6b5ba58de96a877e7d2e169e67090565b806003815110156110c85760405162461bcd60e51b815260206004820152601f60248201527f477561726469616e3a204d494e5f475541524449414e535f4e4f545f4d455400604482015260640161025e565b81600a8151111561111b5760405162461bcd60e51b815260206004820181905260248201527f477561726469616e3a204d41585f475541524449414e535f4558434545444544604482015260640161025e565b60005b835181101561031a5783818151811061113957611139612250565b60200260200101516000036111605760405162461bcd60e51b815260040161025e90612384565b61118284828151811061117557611175612250565b602002602001015161094f565b156111cb5760405162461bcd60e51b8152602060048201526019602482015278477561726469616e3a20475541524449414e5f45584953545360381b604482015260640161025e565b806111d581612266565b91505061111e565b60006111e883611a20565b90508160006111f5611051565b600086815260209190915260409020905060008051602061264f83398151915284106112335760405162461bcd60e51b815260040161025e906123fb565b61123c85610afb565b611247906002612537565b83106112a15760405162461bcd60e51b815260206004820152602360248201527f496e6372656d656e74616c42696e617279547265653a207472656520697320666044820152621d5b1b60ea1b606482015260840161025e565b60005b6112ad86610afb565b60ff168160ff1610156113d7576112c560028561255c565b6000036113115760405180604001604052808481526020016112ea888460ff16611a3e565b905260ff82166000908152600484016020526040902061130b916002611ddd565b5061132c565b60ff8116600090815260048301602052604090208390600101555b60ff81166000908152600480840160205260409182902091516314d2f97b60e11b815273__$6d81c1d65787d697695b56adedd76022ba$__926329a5f2f6926113759201612570565b602060405180830381865af4158015611392573d6000803e3d6000fd5b505050506040513d601f19601f820116820180604052508101906113b691906125a1565b92506113c36002856125ba565b9350806113cf816125ce565b9150506112a4565b506113f885836113e5611051565b6000928352602052604090912060010155565b61140a85611404611051565b90611a68565b5050505050565b600061141b611051565b600092835260205250604090206001015490565b600081511161038d5760405162461bcd60e51b815260206004820181905260248201527f477561726469616e3a204e4f5f475541524449414e535f544f5f52454d4f5645604482015260640161025e565b60009081527f44acce4aaef954270f6d29b389ff2c226212662a4788fd9168a1db9aacc1d25e60205260409020546001600160a01b031690565b6114c8868686868686611a93565b6115305760405162461bcd60e51b815260206004820152603360248201527f496e6372656d656e74616c42696e617279547265653a206c656166206973206e6044820152726f742070617274206f6620746865207472656560681b606482015260840161025e565b600061153a611051565b60008881526020919091526040812091506115558882611a3e565b905060005b61156389610afb565b60ff168160ff1610156117af5784848260ff1681811061158557611585612250565b905060200201602081019061159a91906125ed565b60ff166000036116a35760ff8116600090815260048401602052604090206001015487878360ff168181106115d1576115d1612250565b90506020020135036115f55760ff8116600090815260048401602052604090208290555b73__$6d81c1d65787d697695b56adedd76022ba$__6329a5f2f660405180604001604052808581526020018a8a8660ff1681811061163557611635612250565b905060200201358152506040518263ffffffff1660e01b815260040161165b9190612610565b602060405180830381865af4158015611678573d6000803e3d6000fd5b505050506040513d601f19601f8201168201806040525081019061169c91906125a1565b915061179d565b60ff8116600081815260048501602052604090205490889088908181106116cc576116cc612250565b90506020020135036116f35760ff8116600090815260048401602052604090208290600101555b73__$6d81c1d65787d697695b56adedd76022ba$__6329a5f2f660405180604001604052808a8a8660ff1681811061172d5761172d612250565b905060200201358152602001858152506040518263ffffffff1660e01b81526004016117599190612610565b602060405180830381865af4158015611776573d6000803e3d6000fd5b505050506040513d601f19601f8201168201806040525081019061179a91906125a1565b91505b806117a7816125ce565b91505061155a565b50610c4088826113e5611051565b602081015160009060ff16600114801561020057505060400151426001600160401b03909116111590565b602081015160009060ff16600114801561020057505060400151426001600160401b039091161190565b60006001600160401b0382111561186a5760405162461bcd60e51b815260206004820152601c60248201527b14d8599950d85cdd0e881d985b1d5948191bd95cc81b9bdd08199a5d60221b604482015260640161025e565b5090565b600081815260208390526040812054806118ca5760405162461bcd60e51b815260206004820152601d60248201527f477561726469616e3a20475541524449414e5f4e4f545f455849535453000000604482015260640161025e565b60006118d76001836121f2565b90506001858101546118e991906121f2565b81146119c857600180860180549091611901916121f2565b8154811061191157611911612250565b906000526020600020906002020185600101828154811061193457611934612250565b600091825260208220835460029092020190815560019283018054918401805460ff19811660ff909416938417825591546001600160401b036101009182900416026001600160481b03199092169092171790559086018054849288929091859081106119a3576119a3612250565b9060005260206000209060020201600001548152602001908152602001600020819055505b846001018054806119db576119db612638565b6000828152602080822060026000199490940193840201828155600190810180546001600160481b031916905592909355958652959052505060408220919091555090565b6000611a2a611051565b600092835260205250604090206002015490565b6000611a48611051565b600093845260209081526040808520938552600390930190525090205490565b6000818152602083905260408120600201805460019290611a8a9084906122b4565b90915550505050565b600060008051602061264f8339815191528610611ac25760405162461bcd60e51b815260040161025e906123fb565b611acb87610afb565b60ff1682148015611ae65750611ae087610afb565b60ff1684145b611b4f5760405162461bcd60e51b815260206004820152603460248201527f496e6372656d656e74616c42696e617279547265653a206c656e677468206f66604482015273081c185d1a081a5cc81b9bdd0818dbdc9c9958dd60621b606482015260840161025e565b8560005b611b5c89610afb565b60ff168160ff161015611da75760008051602061264f83398151915287878360ff16818110611b8d57611b8d612250565b9050602002013510611c09576040805162461bcd60e51b81526020600482015260248101919091527f496e6372656d656e74616c42696e617279547265653a207369626c696e67206e60448201527f6f6465206d757374206265203c20534e41524b5f5343414c41525f4649454c44606482015260840161025e565b84848260ff16818110611c1e57611c1e612250565b9050602002016020810190611c3391906125ed565b60ff16600003611ceb5773__$6d81c1d65787d697695b56adedd76022ba$__6329a5f2f660405180604001604052808581526020018a8a8660ff16818110611c7d57611c7d612250565b905060200201358152506040518263ffffffff1660e01b8152600401611ca39190612610565b602060405180830381865af4158015611cc0573d6000803e3d6000fd5b505050506040513d601f19601f82011682018060405250810190611ce491906125a1565b9150611d95565b73__$6d81c1d65787d697695b56adedd76022ba$__6329a5f2f660405180604001604052808a8a8660ff16818110611d2557611d25612250565b905060200201358152602001858152506040518263ffffffff1660e01b8152600401611d519190612610565b602060405180830381865af4158015611d6e573d6000803e3d6000fd5b505050506040513d601f19601f82011682018060405250810190611d9291906125a1565b91505b80611d9f816125ce565b915050611b53565b50611db188611411565b14979650505050505050565b604080516060810182526000808252602082018190529181019190915290565b8260028101928215611e0b579160200282015b82811115611e0b578251825591602001919060010190611df0565b5061186a9291505b8082111561186a5760008155600101611e13565b600060208284031215611e3957600080fd5b81358015158114610dc457600080fd5b8051825260208082015160ff16908301526040908101516001600160401b0316910152565b6020808252825182820181905260009190848201906040850190845b81811015611eb057611e9d838551611e49565b9284019260609290920191600101611e8a565b50909695505050505050565b60008083601f840112611ece57600080fd5b5081356001600160401b03811115611ee557600080fd5b6020830191508360208260051b8501011115611f0057600080fd5b9250929050565b60008060208385031215611f1a57600080fd5b82356001600160401b03811115611f3057600080fd5b611f3c85828601611ebc565b90969095509350505050565b600060208284031215611f5a57600080fd5b5035919050565b606081016102008284611e49565b600060208083528351808285015260005b81811015611f9c57858101830151858201604001528201611f80565b81811115611fae576000604083870101525b50601f01601f1916929092016040019392505050565b634e487b7160e01b600052604160045260246000fd5b600082601f830112611feb57600080fd5b813560206001600160401b038083111561200757612007611fc4565b8260051b604051601f19603f8301168101818110848211171561202c5761202c611fc4565b60405293845285810183019383810192508785111561204a57600080fd5b83870191505b8482101561206957813583529183019190830190612050565b979650505050505050565b6000806040838503121561208757600080fd5b8235915060208301356001600160401b038111156120a457600080fd5b6120b085828601611fda565b9150509250929050565b6000602082840312156120cc57600080fd5b81356001600160401b038111156120e257600080fd5b61027f84828501611fda565b600080600080600080600060a0888a03121561210957600080fd5b87359650602088013595506040880135945060608801356001600160401b038082111561213557600080fd5b6121418b838c01611ebc565b909650945060808a013591508082111561215a57600080fd5b506121678a828b01611ebc565b989b979a50959850939692959293505050565b60008060006060848603121561218f57600080fd5b505081359360208301359350604090920135919050565b6020808252601c908201527b11dd585c991a585b8e8811d550549112505397d393d517d193d5539160221b604082015260600190565b634e487b7160e01b600052601160045260246000fd5b600082821015612204576122046121dc565b500390565b60208082526027908201527f53656d6170686f726547726f757073426173653a2047524f55505f49445f4e4f6040820152661517d1561254d560ca1b606082015260800190565b634e487b7160e01b600052603260045260246000fd5b600060018201612278576122786121dc565b5060010190565b6020808252818101527f477561726469616e3a204641494c45445f544f5f4144445f475541524449414e604082015260600190565b600082198211156122c7576122c76121dc565b500190565b6020808252601d908201527f4f776e61626c653a2073656e646572206d757374206265206f776e6572000000604082015260600190565b6020808252601c908201527b477561726469616e3a20544f4f5f4d414e595f475541524449414e5360201b604082015260600190565b6020808252602b908201527f53656d6170686f726547726f757073426173653a2053454e4445525f4e4f4e5f60408201526a23a927aaa82fa0a226a4a760a91b606082015260800190565b60208082526022908201527f477561726469616e3a20475541524449414e5f484153485f49445f49535f5a45604082015261524f60f01b606082015260800190565b6020808252601b908201527a11dd585c991a585b8e8815539156141150d5115117d49154d55315602a1b604082015260600190565b60208082526038908201527f496e6372656d656e74616c42696e617279547265653a206c656166206d757374604082015277081899480f0814d3905492d7d4d0d053105497d19251531160421b606082015260800190565b600181815b8085111561248e578160001904821115612474576124746121dc565b8085161561248157918102915b93841c9390800290612458565b509250929050565b6000826124a557506001610200565b816124b257506000610200565b81600181146124c857600281146124d2576124ee565b6001915050610200565b60ff8411156124e3576124e36121dc565b50506001821b610200565b5060208310610133831016604e8410600b8410161715612511575081810a610200565b61251b8383612453565b806000190482111561252f5761252f6121dc565b029392505050565b6000610dc460ff841683612496565b634e487b7160e01b600052601260045260246000fd5b60008261256b5761256b612546565b500690565b60408101818360005b6002811015612598578154835260209092019160019182019101612579565b50505092915050565b6000602082840312156125b357600080fd5b5051919050565b6000826125c9576125c9612546565b500490565b600060ff821660ff81036125e4576125e46121dc565b60010192915050565b6000602082840312156125ff57600080fd5b813560ff81168114610dc457600080fd5b60408101818360005b6002811015612598578151835260209283019290910190600101612619565b634e487b7160e01b600052603160045260246000fdfe30644e72e131a029b85045b68181585d2833e84879b9709143e1f593f0000001a2646970667358221220ceee93e5d0288d0f0e58c17bf5b7bb07442c03052b618ddcd31973d59ee01bf364736f6c634300080e0033",
  "linkReferences": {
    "contracts/utils/cryptography/Hashes.sol": {
      "PoseidonT3": [
        {
          "length": 20,
          "start": 4977
        },
        {
          "length": 20,
          "start": 5655
        },
        {
          "length": 20,
          "start": 5909
        },
        {
          "length": 20,
          "start": 7263
        },
        {
          "length": 20,
          "start": 7437
        }
      ]
    }
  },
  "deployedLinkReferences": {
    "contracts/utils/cryptography/Hashes.sol": {
      "PoseidonT3": [
        {
          "length": 20,
          "start": 4945
        },
        {
          "length": 20,
          "start": 5623
        },
        {
          "length": 20,
          "start": 5877
        },
        {
          "length": 20,
          "start": 7231
        },
        {
          "length": 20,
          "start": 7405
        }
      ]
    }
  }
}