{
  "_format": "hh-sol-artifact-1",
  "contractName": "PoseidonT3",
  "sourceName": "contracts/utils/cryptography/Hashes.sol",
  "abi": [
    {
      "inputs": [
        {
          "internalType": "uint256[2]",
          "name": "",
          "type": "uint256[2]"
        }
      ],
      "name": "poseidon",
      "outputs": [
        {
          "internalType": "uint256",
          "name": "",
          "type": "uint256"
        }
      ],
      "stateMutability": "pure",
      "type": "function"
    }
  ],
  "bytecode": "0x61011861003a600b82828239805160001a60731461002d57634e487b7160e01b600052600060045260246000fd5b30600052607381538281f3fe730000000000000000000000000000000000000000301460806040526004361060335760003560e01c806329a5f2f6146038575b600080fd5b60496043366004605b565b50600090565b60405190815260200160405180910390f35b600060408284031215606c57600080fd5b82601f830112607a57600080fd5b604080519081016001600160401b038111828210171560a957634e487b7160e01b600052604160045260246000fd5b806040525080604084018581111560bf57600080fd5b845b8181101560d757803583526020928301920160c1565b50919594505050505056fea2646970667358221220e4ab508ecf1997a391ac639553322775268975869eba14617ddc12b323e81e8464736f6c634300080e0033",
  "linkReferences": {},
  "deployedLinkReferences": {}
}