{
  "_format": "hh-sol-artifact-1",
  "contractName": "SemaphoreFacet",
  "sourceName": "contracts/semaphore/SemaphoreFacet.sol",
  "abi": [
    {
      "anonymous": false,
      "inputs": [
        {
          "indexed": false,
          "internalType": "uint256",
          "name": "nullifierHash",
          "type": "uint256"
        }
      ],
      "name": "NullifierHashAdded",
      "type": "event"
    },
    {
      "anonymous": false,
      "inputs": [
        {
          "indexed": true,
          "internalType": "address",
          "name": "previousOwner",
          "type": "address"
        },
        {
          "indexed": true,
          "internalType": "address",
          "name": "newOwner",
          "type": "address"
        }
      ],
      "name": "OwnershipTransferred",
      "type": "event"
    },
    {
      "anonymous": false,
      "inputs": [
        {
          "indexed": true,
          "internalType": "uint256",
          "name": "groupId",
          "type": "uint256"
        },
        {
          "indexed": false,
          "internalType": "bytes32",
          "name": "signal",
          "type": "bytes32"
        }
      ],
      "name": "ProofVerified",
      "type": "event"
    },
    {
      "inputs": [
        {
          "internalType": "uint8",
          "name": "merkleTreeDepth",
          "type": "uint8"
        }
      ],
      "name": "getVerifier",
      "outputs": [
        {
          "internalType": "contract IVerifier",
          "name": "",
          "type": "address"
        }
      ],
      "stateMutability": "nonpayable",
      "type": "function"
    },
    {
      "inputs": [],
      "name": "semaphoreFacetVersion",
      "outputs": [
        {
          "internalType": "string",
          "name": "",
          "type": "string"
        }
      ],
      "stateMutability": "pure",
      "type": "function"
    },
    {
      "inputs": [
        {
          "components": [
            {
              "internalType": "address",
              "name": "contractAddress",
              "type": "address"
            },
            {
              "internalType": "uint8",
              "name": "merkleTreeDepth",
              "type": "uint8"
            }
          ],
          "internalType": "struct ISemaphoreInternal.Verifier[]",
          "name": "_verifiers",
          "type": "tuple[]"
        }
      ],
      "name": "setVerifiers",
      "outputs": [],
      "stateMutability": "nonpayable",
      "type": "function"
    },
    {
      "inputs": [
        {
          "internalType": "uint256",
          "name": "groupId",
          "type": "uint256"
        },
        {
          "internalType": "bytes32",
          "name": "signal",
          "type": "bytes32"
        },
        {
          "internalType": "uint256",
          "name": "nullifierHash",
          "type": "uint256"
        },
        {
          "internalType": "uint256",
          "name": "externalNullifier",
          "type": "uint256"
        },
        {
          "internalType": "uint256[8]",
          "name": "proof",
          "type": "uint256[8]"
        }
      ],
      "name": "verifyProof",
      "outputs": [],
      "stateMutability": "nonpayable",
      "type": "function"
    }
  ],
  "bytecode": "0x608060405234801561001057600080fd5b506109b1806100206000396000f3fe608060405234801561001057600080fd5b506004361061004c5760003560e01c80631417aa05146100515780636673e849146100665780638f64b8ba14610079578063adaad467146100af575b600080fd5b61006461005f3660046106d7565b6100da565b005b6100646100743660046107c1565b610202565b604080518082018252600b81526a302e312e302e616c70686160a81b602082015290516100a69190610814565b60405180910390f35b6100c26100bd366004610869565b61025d565b6040516001600160a01b0390911681526020016100a6565b7f8a22373512790c48b83a1fe2efdd2888d4a917bcdc24d0adf63e60f671680460546001600160a01b031633146101585760405162461bcd60e51b815260206004820152601d60248201527f4f776e61626c653a2073656e646572206d757374206265206f776e657200000060448201526064015b60405180910390fd5b60005b81518160ff1610156101fe57818160ff168151811061017c5761017c61088b565b60200260200101516000015161019061026e565b6000016000848460ff16815181106101aa576101aa61088b565b60200260200101516020015160ff16815260200190815260200160002060006101000a8154816001600160a01b0302191690836001600160a01b0316021790555080806101f6906108a1565b91505061015b565b5050565b61020f8585858585610292565b61021c8585858585610308565b847f102229041138505f4cecdadc8e3ac1cd92c55870c17371050fc00bdb088898018560405161024e91815260200190565b60405180910390a25050505050565b6000610268826103a8565b92915050565b7f1fd5ae9b688ff1e92cea024147bd3c60ba20584ed7225a597f53b9dde63d587e90565b600061029c6103d4565b6000878152602091909152604081205460ff1691508190036103005760405162461bcd60e51b815260206004820152601f60248201527f53656d6170686f72653a2067726f757020646f6573206e6f7420657869737400604482015260640161014f565b505050505050565b60006103126103d4565b60008781526020919091526040812060010154915061032f6103d4565b6000888152602091909152604081205460ff16915061034c61026e565b60ff8316600090815260209190915260409020546001600160a01b031690506103798784888888866103f8565b61039e866103856105f8565b600091825260205260409020805460ff19166001179055565b5050505050505050565b60006103b261026e565b60ff90921660009081526020929092525060409020546001600160a01b031690565b7f18009942081384ebf013f551c6956278f8f7e6b5ba58de96a877e7d2e169e67090565b6104006105f8565b6000858152602091909152604090205460ff161561047f5760405162461bcd60e51b815260206004820152603660248201527f53656d6170686f7265436f72653a20796f752063616e6e6f7420757365207468604482015275652073616d65206e756c6c696669657220747769636560501b606482015260840161014f565b600061048a8761061c565b9050816001600160a01b0316635fe8c13b6040518060400160405280866000600881106104b9576104b961088b565b60200201358152602001866001600881106104d6576104d661088b565b60200201359052604080516080810182528782013591810191825290819060608201896003602002013581525081526020016040518060400160405280896004600881106105265761052661088b565b60200201358152602001896005600881106105435761054361088b565b602002013590529052604080518082019091528088600660200201358152602001886007600881106105775761057761088b565b602002013581525060405180608001604052808c81526020018b81526020018781526020018a8152506040518563ffffffff1660e01b81526004016105bf94939291906108f7565b60006040518083038186803b1580156105d757600080fd5b505afa1580156105eb573d6000803e3d6000fd5b5050505050505050505050565b7f2e80343f7be649afb4507a40421854eda29bc956f126850e8d1f99d3fcc3131e90565b600060088260405160200161063391815260200190565b60408051601f198184030181529190528051602090910120901c92915050565b634e487b7160e01b600052604160045260246000fd5b604080519081016001600160401b038111828210171561068b5761068b610653565b60405290565b604051601f8201601f191681016001600160401b03811182821017156106b9576106b9610653565b604052919050565b803560ff811681146106d257600080fd5b919050565b600060208083850312156106ea57600080fd5b82356001600160401b038082111561070157600080fd5b818501915085601f83011261071557600080fd5b81358181111561072757610727610653565b610735848260051b01610691565b818152848101925060069190911b83018401908782111561075557600080fd5b928401925b818410156107b657604084890312156107735760008081fd5b61077b610669565b84356001600160a01b03811681146107935760008081fd5b81526107a08587016106c1565b818701528352604093909301929184019161075a565b979650505050505050565b60008060008060006101808087890312156107db57600080fd5b8635955060208701359450604087013593506060870135925087818801111561080357600080fd5b506080860190509295509295909350565b600060208083528351808285015260005b8181101561084157858101830151858201604001528201610825565b81811115610853576000604083870101525b50601f01601f1916929092016040019392505050565b60006020828403121561087b57600080fd5b610884826106c1565b9392505050565b634e487b7160e01b600052603260045260246000fd5b600060ff821660ff81036108c557634e487b7160e01b600052601160045260246000fd5b60010192915050565b8060005b60028110156108f15781518452602093840193909101906001016108d2565b50505050565b610180810161090682876108ce565b60408083018660005b6002811015610936576109238383516108ce565b918301916020919091019060010161090f565b5050505061094760c08301856108ce565b61010082018360005b600481101561096f578151835260209283019290910190600101610950565b5050509594505050505056fea26469706673582212207690990afd3ac20b65d34fada235130d4d62775de574d91ee0dc66d3c96b5fd664736f6c634300080e0033",
  "linkReferences": {},
  "deployedLinkReferences": {}
}